Archive member included because of file (symbol)

d:/codesourcery/sourcery_codebench_lite_for_arm_eabi/bin/../lib/gcc/arm-none-eabi/4.6.3/thumb2\libgcc.a(_arm_addsubdf3.o)
                              build\components\libc\minilibc\math.o (__aeabi_dsub)
d:/codesourcery/sourcery_codebench_lite_for_arm_eabi/bin/../lib/gcc/arm-none-eabi/4.6.3/thumb2\libgcc.a(_arm_muldivdf3.o)
                              build\components\libc\minilibc\math.o (__aeabi_dmul)
d:/codesourcery/sourcery_codebench_lite_for_arm_eabi/bin/../lib/gcc/arm-none-eabi/4.6.3/thumb2\libgcc.a(_arm_fixdfsi.o)
                              build\components\libc\minilibc\math.o (__aeabi_d2iz)

Allocating common symbols
Common symbol       size              file

rt_interrupt_to_thread
                    0x4               build\libcpu\arm\cortex-m4\cpuport.o
HSEStartUpStatus    0x1               build\drivers\usb_bsp.o
rt_interrupt_from_thread
                    0x4               build\libcpu\arm\cortex-m4\cpuport.o
global_sysvar_list  0x4               build\components\finsh\finsh_var.o
USBH_MSC_CSWData    0x10              build\STM32F4xx_Libraries\STM32_USB_HOST_Library\Class\Msc\src\usbh_msc_bot.o
finsh_heap          0x80              build\components\finsh\finsh_heap.o
MSC_Machine         0x4a              build\STM32F4xx_Libraries\STM32_USB_HOST_Library\Class\Msc\src\usbh_msc_core.o
Image_Buf           0x64              build\drivers\usbh_usr.o
shell               0x4               build\components\finsh\shell.o
rt_thread_switch_interrupt_flag
                    0x4               build\libcpu\arm\cortex-m4\cpuport.o
text_segment        0x80              build\components\finsh\finsh_vm.o
USBH_CfgDesc        0x200             build\STM32F4xx_Libraries\STM32_USB_HOST_Library\Core\src\usbh_stdreq.o
finsh_compile_pc    0x4               build\components\finsh\finsh_compiler.o
fd_table            0x80              build\components\dfs\src\dfs.o
USBH_DataInBuffer   0x200             build\STM32F4xx_Libraries\STM32_USB_HOST_Library\Class\Msc\src\usbh_msc_scsi.o
finsh_vm_stack      0x100             build\components\finsh\finsh_vm.o
global_errno        0x1               build\components\finsh\finsh_error.o
uart2_device        0x40              build\drivers\usart.o
USBH_MSC_Param      0x10              build\STM32F4xx_Libraries\STM32_USB_HOST_Library\Class\Msc\src\usbh_msc_scsi.o
USBH_MSC_BOTXferParam
                    0x10              build\STM32F4xx_Libraries\STM32_USB_HOST_Library\Class\Msc\src\usbh_msc_bot.o
rt_thread_priority_table
                    0x100             build\src\scheduler.o
file                0x228             build\drivers\usbh_usr.o
rt_object_put_hook  0x4               build\src\object.o
rt_current_priority
                    0x1               build\src\scheduler.o
USB_OTG_Core        0x5ac             build\applications\application.o
USBH_DataOutBuffer  0x200             build\STM32F4xx_Libraries\STM32_USB_HOST_Library\Class\Msc\src\usbh_msc_scsi.o
uart2_int_rx        0x48              build\drivers\usart.o
filesystem_table    0x20              build\components\dfs\src\dfs.o
thread_led1         0x80              build\applications\application.o
thread_usbmsc       0x80              build\applications\application.o
rt_interrupt_nest   0x1               build\src\irq.o
rt_object_take_hook
                    0x4               build\src\object.o
rt_current_thread   0x4               build\src\scheduler.o
MSC_Setup           0x8               build\STM32F4xx_Libraries\STM32_USB_HOST_Library\Class\Msc\src\usbh_msc_core.o
rt_thread_ready_priority_group
                    0x4               build\src\scheduler.o
rt_thread_defunct   0x8               build\src\scheduler.o
global_node_table   0x140             build\components\finsh\finsh_node.o
finsh_compile_sp    0x4               build\components\finsh\finsh_compiler.o
USBH_MSC_CBWData    0x20              build\STM32F4xx_Libraries\STM32_USB_HOST_Library\Class\Msc\src\usbh_msc_bot.o
finsh_pc            0x4               build\components\finsh\finsh_vm.o
USB_Host            0x84              build\applications\application.o
filesystem_operation_table
                    0x10              build\components\dfs\src\dfs.o
rt_object_trytake_hook
                    0x4               build\src\object.o
finsh_sp            0x4               build\components\finsh\finsh_vm.o
fatfs               0x234             build\drivers\usbh_usr.o
global_variable     0xc0              build\components\finsh\finsh_var.o

Discarded input sections

 .text          0x00000000        0x0 d:/codesourcery/sourcery_codebench_lite_for_arm_eabi/bin/../lib/gcc/arm-none-eabi/4.6.3/thumb2/crti.o
 .data          0x00000000        0x0 d:/codesourcery/sourcery_codebench_lite_for_arm_eabi/bin/../lib/gcc/arm-none-eabi/4.6.3/thumb2/crti.o
 .bss           0x00000000        0x0 d:/codesourcery/sourcery_codebench_lite_for_arm_eabi/bin/../lib/gcc/arm-none-eabi/4.6.3/thumb2/crti.o
 .init          0x00000000        0x4 d:/codesourcery/sourcery_codebench_lite_for_arm_eabi/bin/../lib/gcc/arm-none-eabi/4.6.3/thumb2/crti.o
 .fini          0x00000000        0x4 d:/codesourcery/sourcery_codebench_lite_for_arm_eabi/bin/../lib/gcc/arm-none-eabi/4.6.3/thumb2/crti.o
 .ARM.attributes
                0x00000000       0x1b d:/codesourcery/sourcery_codebench_lite_for_arm_eabi/bin/../lib/gcc/arm-none-eabi/4.6.3/thumb2/crti.o
 .text          0x00000000       0x68 d:/codesourcery/sourcery_codebench_lite_for_arm_eabi/bin/../lib/gcc/arm-none-eabi/4.6.3/thumb2/crtbegin.o
 .data          0x00000000        0x4 d:/codesourcery/sourcery_codebench_lite_for_arm_eabi/bin/../lib/gcc/arm-none-eabi/4.6.3/thumb2/crtbegin.o
 .bss           0x00000000       0x1c d:/codesourcery/sourcery_codebench_lite_for_arm_eabi/bin/../lib/gcc/arm-none-eabi/4.6.3/thumb2/crtbegin.o
 .init_array    0x00000000        0x4 d:/codesourcery/sourcery_codebench_lite_for_arm_eabi/bin/../lib/gcc/arm-none-eabi/4.6.3/thumb2/crtbegin.o
 .fini_array    0x00000000        0x4 d:/codesourcery/sourcery_codebench_lite_for_arm_eabi/bin/../lib/gcc/arm-none-eabi/4.6.3/thumb2/crtbegin.o
 .eh_frame      0x00000000        0x0 d:/codesourcery/sourcery_codebench_lite_for_arm_eabi/bin/../lib/gcc/arm-none-eabi/4.6.3/thumb2/crtbegin.o
 .jcr           0x00000000        0x0 d:/codesourcery/sourcery_codebench_lite_for_arm_eabi/bin/../lib/gcc/arm-none-eabi/4.6.3/thumb2/crtbegin.o
 .ARM.attributes
                0x00000000       0x2b d:/codesourcery/sourcery_codebench_lite_for_arm_eabi/bin/../lib/gcc/arm-none-eabi/4.6.3/thumb2/crtbegin.o
 .text          0x00000000        0x0 build\applications\application.o
 .data          0x00000000        0x0 build\applications\application.o
Memory Configuration

Name             Origin             Length             Attributes
CODE             0x08000000         0x00080000         xr
DATA             0x20000000         0x00010000         rw
*default*        0x00000000         0xffffffff

Linker script and memory map

LOAD d:/codesourcery/sourcery_codebench_lite_for_arm_eabi/bin/../lib/gcc/arm-none-eabi/4.6.3/thumb2/crti.o
LOAD d:/codesourcery/sourcery_codebench_lite_for_arm_eabi/bin/../lib/gcc/arm-none-eabi/4.6.3/thumb2/crtbegin.o
LOAD build\applications\application.o
LOAD build\applications\startup.o
LOAD build\drivers\board.o
LOAD build\drivers\serial.o
LOAD build\drivers\stm32f4xx_it.o
LOAD build\drivers\usart.o
LOAD build\drivers\usb_bsp.o
LOAD build\drivers\usbh_usr.o
LOAD build\STM32F4xx_Libraries\CMSIS\ST\STM32F4xx\Source\Templates\system_stm32f4xx.o
LOAD build\STM32F4xx_Libraries\STM32F4xx_StdPeriph_Driver\src\misc.o
LOAD build\STM32F4xx_Libraries\STM32F4xx_StdPeriph_Driver\src\stm32f4xx_adc.o
LOAD build\STM32F4xx_Libraries\STM32F4xx_StdPeriph_Driver\src\stm32f4xx_can.o
LOAD build\STM32F4xx_Libraries\STM32F4xx_StdPeriph_Driver\src\stm32f4xx_crc.o
LOAD build\STM32F4xx_Libraries\STM32F4xx_StdPeriph_Driver\src\stm32f4xx_cryp.o
LOAD build\STM32F4xx_Libraries\STM32F4xx_StdPeriph_Driver\src\stm32f4xx_cryp_aes.o
LOAD build\STM32F4xx_Libraries\STM32F4xx_StdPeriph_Driver\src\stm32f4xx_cryp_des.o
LOAD build\STM32F4xx_Libraries\STM32F4xx_StdPeriph_Driver\src\stm32f4xx_cryp_tdes.o
LOAD build\STM32F4xx_Libraries\STM32F4xx_StdPeriph_Driver\src\stm32f4xx_dac.o
LOAD build\STM32F4xx_Libraries\STM32F4xx_StdPeriph_Driver\src\stm32f4xx_dbgmcu.o
LOAD build\STM32F4xx_Libraries\STM32F4xx_StdPeriph_Driver\src\stm32f4xx_dcmi.o
LOAD build\STM32F4xx_Libraries\STM32F4xx_StdPeriph_Driver\src\stm32f4xx_dma.o
LOAD build\STM32F4xx_Libraries\STM32F4xx_StdPeriph_Driver\src\stm32f4xx_exti.o
LOAD build\STM32F4xx_Libraries\STM32F4xx_StdPeriph_Driver\src\stm32f4xx_flash.o
LOAD build\STM32F4xx_Libraries\STM32F4xx_StdPeriph_Driver\src\stm32f4xx_fsmc.o
LOAD build\STM32F4xx_Libraries\STM32F4xx_StdPeriph_Driver\src\stm32f4xx_gpio.o
LOAD build\STM32F4xx_Libraries\STM32F4xx_StdPeriph_Driver\src\stm32f4xx_hash.o
LOAD build\STM32F4xx_Libraries\STM32F4xx_StdPeriph_Driver\src\stm32f4xx_hash_md5.o
LOAD build\STM32F4xx_Libraries\STM32F4xx_StdPeriph_Driver\src\stm32f4xx_hash_sha1.o
LOAD build\STM32F4xx_Libraries\STM32F4xx_StdPeriph_Driver\src\stm32f4xx_i2c.o
LOAD build\STM32F4xx_Libraries\STM32F4xx_StdPeriph_Driver\src\stm32f4xx_iwdg.o
LOAD build\STM32F4xx_Libraries\STM32F4xx_StdPeriph_Driver\src\stm32f4xx_pwr.o
LOAD build\STM32F4xx_Libraries\STM32F4xx_StdPeriph_Driver\src\stm32f4xx_rcc.o
LOAD build\STM32F4xx_Libraries\STM32F4xx_StdPeriph_Driver\src\stm32f4xx_rng.o
LOAD build\STM32F4xx_Libraries\STM32F4xx_StdPeriph_Driver\src\stm32f4xx_rtc.o
LOAD build\STM32F4xx_Libraries\STM32F4xx_StdPeriph_Driver\src\stm32f4xx_sdio.o
LOAD build\STM32F4xx_Libraries\STM32F4xx_StdPeriph_Driver\src\stm32f4xx_spi.o
LOAD build\STM32F4xx_Libraries\STM32F4xx_StdPeriph_Driver\src\stm32f4xx_syscfg.o
LOAD build\STM32F4xx_Libraries\STM32F4xx_StdPeriph_Driver\src\stm32f4xx_tim.o
LOAD build\STM32F4xx_Libraries\STM32F4xx_StdPeriph_Driver\src\stm32f4xx_usart.o
LOAD build\STM32F4xx_Libraries\STM32F4xx_StdPeriph_Driver\src\stm32f4xx_wwdg.o
LOAD build\STM32F4xx_Libraries\STM32_USB_HOST_Library\Core\src\usbh_hcs.o
LOAD build\STM32F4xx_Libraries\STM32_USB_HOST_Library\Core\src\usbh_ioreq.o
LOAD build\STM32F4xx_Libraries\STM32_USB_HOST_Library\Core\src\usbh_core.o
LOAD build\STM32F4xx_Libraries\STM32_USB_HOST_Library\Core\src\usbh_stdreq.o
LOAD build\STM32F4xx_Libraries\STM32_USB_HOST_Library\Class\Msc\src\usbh_msc_bot.o
LOAD build\STM32F4xx_Libraries\STM32_USB_HOST_Library\Class\Msc\src\usbh_msc_core.o
LOAD build\STM32F4xx_Libraries\STM32_USB_HOST_Library\Class\Msc\src\usbh_msc_scsi.o
LOAD build\STM32F4xx_Libraries\STM32_USB_OTG_Driver\src\usb_core.o
LOAD build\STM32F4xx_Libraries\STM32_USB_OTG_Driver\src\usb_hcd.o
LOAD build\STM32F4xx_Libraries\STM32_USB_OTG_Driver\src\usb_hcd_int.o
LOAD build\STM32F4xx_Libraries\CMSIS\ST\STM32F4xx\Source\Templates\gcc_ride7\startup_stm32f4xx.o
LOAD build\src\clock.o
LOAD build\src\device.o
LOAD build\src\idle.o
LOAD build\src\ipc.o
LOAD build\src\irq.o
LOAD build\src\kservice.o
LOAD build\src\mem.o
LOAD build\src\mempool.o
LOAD build\src\object.o
LOAD build\src\scheduler.o
LOAD build\src\thread.o
LOAD build\src\timer.o
LOAD build\libcpu\arm\cortex-m4\cpuport.o
LOAD build\libcpu\arm\cortex-m4\context_gcc.o
LOAD build\libcpu\arm\common\backtrace.o
LOAD build\libcpu\arm\common\div0.o
LOAD build\libcpu\arm\common\showmem.o
LOAD build\components\dfs\src\dfs.o
LOAD build\components\dfs\src\dfs_fs.o
LOAD build\components\dfs\src\dfs_file.o
LOAD build\components\dfs\src\dfs_posix.o
LOAD build\components\dfs\filesystems\elmfat\dfs_elm.o
LOAD build\components\dfs\filesystems\elmfat\ff.o
LOAD build\components\dfs\filesystems\romfs\dfs_romfs.o
LOAD build\components\dfs\filesystems\romfs\romfs.o
LOAD build\components\finsh\cmd.o
LOAD build\components\finsh\finsh_compiler.o
LOAD build\components\finsh\finsh_error.o
LOAD build\components\finsh\finsh_heap.o
LOAD build\components\finsh\finsh_init.o
LOAD build\components\finsh\finsh_node.o
LOAD build\components\finsh\finsh_ops.o
LOAD build\components\finsh\finsh_parser.o
LOAD build\components\finsh\finsh_token.o
LOAD build\components\finsh\finsh_var.o
LOAD build\components\finsh\finsh_vm.o
LOAD build\components\finsh\shell.o
LOAD build\components\finsh\symbol.o
LOAD build\components\libc\minilibc\ctype.o
LOAD build\components\libc\minilibc\math.o
LOAD build\components\libc\minilibc\qsort.o
LOAD build\components\libc\minilibc\rand.o
LOAD build\components\libc\minilibc\stdlib.o
LOAD build\components\libc\minilibc\string.o
LOAD build\components\libc\minilibc\time.o
START GROUP
LOAD d:/codesourcery/sourcery_codebench_lite_for_arm_eabi/bin/../lib/gcc/arm-none-eabi/4.6.3/thumb2\libgcc.a
LOAD d:/codesourcery/sourcery_codebench_lite_for_arm_eabi/bin/../lib/gcc/arm-none-eabi/4.6.3/../../../../arm-none-eabi/lib/thumb2\libc.a
END GROUP
LOAD d:/codesourcery/sourcery_codebench_lite_for_arm_eabi/bin/../lib/gcc/arm-none-eabi/4.6.3/thumb2/crtend.o
LOAD d:/codesourcery/sourcery_codebench_lite_for_arm_eabi/bin/../lib/gcc/arm-none-eabi/4.6.3/thumb2/crtn.o
                0x00000100                _system_stack_size = 0x100

.text           0x08000000    0x1826c
                0x08000000                . = ALIGN (0x4)
 *(.isr_vector)
 .isr_vector    0x08000000      0x188 build\STM32F4xx_Libraries\CMSIS\ST\STM32F4xx\Source\Templates\gcc_ride7\startup_stm32f4xx.o
                0x08000000                g_pfnVectors
                0x08000188                . = ALIGN (0x4)
 *(.text)
 .text          0x08000188       0xd0 build\libcpu\arm\cortex-m4\context_gcc.o
                0x08000188                rt_hw_interrupt_disable
                0x08000190                rt_hw_interrupt_enable
                0x08000196                rt_hw_context_switch_interrupt
                0x08000196                rt_hw_context_switch
                0x080001b6                PendSV_Handler
                0x080001fa                rt_hw_context_switch_to
                0x08000224                rt_hw_interrupt_thread_switch
                0x08000228                HardFault_Handler
 *(.text.*)
 .text.rt_init_thread_entry
                0x08000258       0x14 build\applications\application.o
                0x08000258                rt_init_thread_entry
 .text.rt_thread_entry_led1
                0x0800026c       0x7c build\applications\application.o
 .text.rt_thread_entry_usbmsc
                0x080002e8       0x88 build\applications\application.o
 .text.rt_application_init
                0x08000370       0xdc build\applications\application.o
                0x08000370                rt_application_init
 .text.assert_failed
                0x0800044c       0x34 build\applications\startup.o
                0x0800044c                assert_failed
 .text.rtthread_startup
                0x08000480       0x58 build\applications\startup.o
                0x08000480                rtthread_startup
 .text.main     0x080004d8       0x14 build\applications\startup.o
                0x080004d8                main
 .text.NVIC_SetPriority
                0x080004ec       0x5c build\drivers\board.o
 .text.SysTick_Config
                0x08000548       0x64 build\drivers\board.o
 .text.NVIC_Configuration
                0x080005ac       0x1c build\drivers\board.o
                0x080005ac                NVIC_Configuration
 .text.SysTick_Configuration
                0x080005c8       0x44 build\drivers\board.o
                0x080005c8                SysTick_Configuration
 .text.SysTick_Handler
                0x0800060c       0x14 build\drivers\board.o
                0x0800060c                SysTick_Handler
 .text.rt_hw_board_init
                0x08000620       0x20 build\drivers\board.o
                0x08000620                rt_hw_board_init
 .text.rt_serial_init
                0x08000640       0xf8 build\drivers\serial.o
 .text.rt_serial_open
                0x08000738       0x1c build\drivers\serial.o
 .text.rt_serial_close
                0x08000754       0x18 build\drivers\serial.o
 .text.rt_serial_read
                0x0800076c       0xf4 build\drivers\serial.o
 .text.rt_serial_enable_dma
                0x08000860       0x68 build\drivers\serial.o
 .text.rt_serial_write
                0x080008c8      0x1b8 build\drivers\serial.o
 .text.rt_serial_control
                0x08000a80       0x9c build\drivers\serial.o
 .text.rt_hw_serial_register
                0x08000b1c      0x10c build\drivers\serial.o
                0x08000b1c                rt_hw_serial_register
 .text.rt_hw_serial_isr
                0x08000c28      0x164 build\drivers\serial.o
                0x08000c28                rt_hw_serial_isr
 .text.NMI_Handler
                0x08000d8c        0xc build\drivers\stm32f4xx_it.o
                0x08000d8c                NMI_Handler
 .text.MemManage_Handler
                0x08000d98        0x8 build\drivers\stm32f4xx_it.o
                0x08000d98                MemManage_Handler
 .text.BusFault_Handler
                0x08000da0        0x8 build\drivers\stm32f4xx_it.o
                0x08000da0                BusFault_Handler
 .text.UsageFault_Handler
                0x08000da8        0x8 build\drivers\stm32f4xx_it.o
                0x08000da8                UsageFault_Handler
 .text.SVC_Handler
                0x08000db0        0xc build\drivers\stm32f4xx_it.o
                0x08000db0                SVC_Handler
 .text.DebugMon_Handler
                0x08000dbc        0xc build\drivers\stm32f4xx_it.o
                0x08000dbc                DebugMon_Handler
 .text.USART1_IRQHandler
                0x08000dc8        0xc build\drivers\stm32f4xx_it.o
                0x08000dc8                USART1_IRQHandler
 .text.USART2_IRQHandler
                0x08000dd4       0x1c build\drivers\stm32f4xx_it.o
                0x08000dd4                USART2_IRQHandler
 .text.USART3_IRQHandler
                0x08000df0        0xc build\drivers\stm32f4xx_it.o
                0x08000df0                USART3_IRQHandler
 .text.RCC_Configuration
                0x08000dfc       0x20 build\drivers\usart.o
 .text.GPIO_Configuration
                0x08000e1c       0x64 build\drivers\usart.o
 .text.NVIC_Configuration
                0x08000e80       0x30 build\drivers\usart.o
 .text.DMA_Configuration
                0x08000eb0        0xc build\drivers\usart.o
 .text.rt_hw_usart_init
                0x08000ebc       0x88 build\drivers\usart.o
                0x08000ebc                rt_hw_usart_init
 .text.USB_OTG_BSP_TimeInit
                0x08000f44       0x50 build\drivers\usb_bsp.o
 .text.USB_OTG_BSP_Init
                0x08000f94       0xe4 build\drivers\usb_bsp.o
                0x08000f94                USB_OTG_BSP_Init
 .text.USB_OTG_BSP_EnableInterrupt
                0x08001078       0x34 build\drivers\usb_bsp.o
                0x08001078                USB_OTG_BSP_EnableInterrupt
 .text.USB_OTG_BSP_DriveVBUS
                0x080010ac       0x3c build\drivers\usb_bsp.o
                0x080010ac                USB_OTG_BSP_DriveVBUS
 .text.USB_OTG_BSP_ConfigVBUS
                0x080010e8       0x64 build\drivers\usb_bsp.o
                0x080010e8                USB_OTG_BSP_ConfigVBUS
 .text.USB_OTG_BSP_uDelay
                0x0800114c       0x1c build\drivers\usb_bsp.o
                0x0800114c                USB_OTG_BSP_uDelay
 .text.USB_OTG_BSP_mDelay
                0x08001168       0x1c build\drivers\usb_bsp.o
                0x08001168                USB_OTG_BSP_mDelay
 .text.USB_OTG_BSP_TimerIRQ
                0x08001184       0x58 build\drivers\usb_bsp.o
                0x08001184                USB_OTG_BSP_TimerIRQ
 .text.BSP_Delay
                0x080011dc       0x44 build\drivers\usb_bsp.o
 .text.BSP_SetTime
                0x08001220       0x9c build\drivers\usb_bsp.o
 .text.EXTI1_IRQHandler
                0x080012bc       0x34 build\drivers\usb_bsp.o
                0x080012bc                EXTI1_IRQHandler
 .text.TIM2_IRQHandler
                0x080012f0       0x14 build\drivers\usb_bsp.o
                0x080012f0                TIM2_IRQHandler
 .text.OTG_FS_IRQHandler
                0x08001304       0x1c build\drivers\usb_bsp.o
                0x08001304                OTG_FS_IRQHandler
 .text.USBH_USR_Init
                0x08001320       0x48 build\drivers\usbh_usr.o
                0x08001320                USBH_USR_Init
 .text.USBH_USR_DeviceAttached
                0x08001368       0x1c build\drivers\usbh_usr.o
                0x08001368                USBH_USR_DeviceAttached
 .text.USBH_USR_UnrecoveredError
                0x08001384       0x1c build\drivers\usbh_usr.o
                0x08001384                USBH_USR_UnrecoveredError
 .text.USBH_USR_DeviceDisconnected
                0x080013a0       0x1c build\drivers\usbh_usr.o
                0x080013a0                USBH_USR_DeviceDisconnected
 .text.USBH_USR_ResetDevice
                0x080013bc       0x1c build\drivers\usbh_usr.o
                0x080013bc                USBH_USR_ResetDevice
 .text.USBH_USR_DeviceSpeedDetected
                0x080013d8       0x7c build\drivers\usbh_usr.o
                0x080013d8                USBH_USR_DeviceSpeedDetected
 .text.USBH_USR_Device_DescAvailable
                0x08001454       0x38 build\drivers\usbh_usr.o
                0x08001454                USBH_USR_Device_DescAvailable
 .text.USBH_USR_DeviceAddressAssigned
                0x0800148c       0x1c build\drivers\usbh_usr.o
                0x0800148c                USBH_USR_DeviceAddressAssigned
 .text.USBH_USR_Configuration_DescAvailable
                0x080014a8       0x54 build\drivers\usbh_usr.o
                0x080014a8                USBH_USR_Configuration_DescAvailable
 .text.USBH_USR_Manufacturer_String
                0x080014fc       0x20 build\drivers\usbh_usr.o
                0x080014fc                USBH_USR_Manufacturer_String
 .text.USBH_USR_Product_String
                0x0800151c       0x20 build\drivers\usbh_usr.o
                0x0800151c                USBH_USR_Product_String
 .text.USBH_USR_SerialNum_String
                0x0800153c       0x20 build\drivers\usbh_usr.o
                0x0800153c                USBH_USR_SerialNum_String
 .text.USBH_USR_EnumerationDone
                0x0800155c       0x1c build\drivers\usbh_usr.o
                0x0800155c                USBH_USR_EnumerationDone
 .text.USBH_USR_DeviceNotSupported
                0x08001578       0x14 build\drivers\usbh_usr.o
                0x08001578                USBH_USR_DeviceNotSupported
 .text.USBH_USR_UserInput
                0x0800158c       0x1c build\drivers\usbh_usr.o
                0x0800158c                USBH_USR_UserInput
 .text.USBH_USR_OverCurrentDetected
                0x080015a8       0x14 build\drivers\usbh_usr.o
                0x080015a8                USBH_USR_OverCurrentDetected
 .text.USBH_USR_MSC_Application
                0x080015bc       0x38 build\drivers\usbh_usr.o
                0x080015bc                USBH_USR_MSC_Application
 .text.USBH_USR_DeInit
                0x080015f4       0x18 build\drivers\usbh_usr.o
                0x080015f4                USBH_USR_DeInit
 .text.SystemInit
                0x0800160c       0xb0 build\STM32F4xx_Libraries\CMSIS\ST\STM32F4xx\Source\Templates\system_stm32f4xx.o
                0x0800160c                SystemInit
 .text.SetSysClock
                0x080016bc      0x188 build\STM32F4xx_Libraries\CMSIS\ST\STM32F4xx\Source\Templates\system_stm32f4xx.o
 .text.NVIC_PriorityGroupConfig
                0x08001844       0x5c build\STM32F4xx_Libraries\STM32F4xx_StdPeriph_Driver\src\misc.o
                0x08001844                NVIC_PriorityGroupConfig
 .text.NVIC_Init
                0x080018a0      0x130 build\STM32F4xx_Libraries\STM32F4xx_StdPeriph_Driver\src\misc.o
                0x080018a0                NVIC_Init
 .text.NVIC_SetVectorTable
                0x080019d0       0x68 build\STM32F4xx_Libraries\STM32F4xx_StdPeriph_Driver\src\misc.o
                0x080019d0                NVIC_SetVectorTable
 .text.SysTick_CLKSourceConfig
                0x08001a38       0x68 build\STM32F4xx_Libraries\STM32F4xx_StdPeriph_Driver\src\misc.o
                0x08001a38                SysTick_CLKSourceConfig
 .text.DMA_Cmd  0x08001aa0      0x140 build\STM32F4xx_Libraries\STM32F4xx_StdPeriph_Driver\src\stm32f4xx_dma.o
                0x08001aa0                DMA_Cmd
 .text.EXTI_GetITStatus
                0x08001be0      0x110 build\STM32F4xx_Libraries\STM32F4xx_StdPeriph_Driver\src\stm32f4xx_exti.o
                0x08001be0                EXTI_GetITStatus
 .text.EXTI_ClearITPendingBit
                0x08001cf0       0x40 build\STM32F4xx_Libraries\STM32F4xx_StdPeriph_Driver\src\stm32f4xx_exti.o
                0x08001cf0                EXTI_ClearITPendingBit
 .text.GPIO_Init
                0x08001d30      0x294 build\STM32F4xx_Libraries\STM32F4xx_StdPeriph_Driver\src\stm32f4xx_gpio.o
                0x08001d30                GPIO_Init
 .text.GPIO_SetBits
                0x08001fc4       0xc0 build\STM32F4xx_Libraries\STM32F4xx_StdPeriph_Driver\src\stm32f4xx_gpio.o
                0x08001fc4                GPIO_SetBits
 .text.GPIO_ResetBits
                0x08002084       0xc0 build\STM32F4xx_Libraries\STM32F4xx_StdPeriph_Driver\src\stm32f4xx_gpio.o
                0x08002084                GPIO_ResetBits
 .text.GPIO_PinAFConfig
                0x08002144      0x28c build\STM32F4xx_Libraries\STM32F4xx_StdPeriph_Driver\src\stm32f4xx_gpio.o
                0x08002144                GPIO_PinAFConfig
 .text.RCC_GetClocksFreq
                0x080023d0      0x1cc build\STM32F4xx_Libraries\STM32F4xx_StdPeriph_Driver\src\stm32f4xx_rcc.o
                0x080023d0                RCC_GetClocksFreq
 .text.RCC_AHB1PeriphClockCmd
                0x0800259c       0x94 build\STM32F4xx_Libraries\STM32F4xx_StdPeriph_Driver\src\stm32f4xx_rcc.o
                0x0800259c                RCC_AHB1PeriphClockCmd
 .text.RCC_AHB2PeriphClockCmd
                0x08002630       0x8c build\STM32F4xx_Libraries\STM32F4xx_StdPeriph_Driver\src\stm32f4xx_rcc.o
                0x08002630                RCC_AHB2PeriphClockCmd
 .text.RCC_APB1PeriphClockCmd
                0x080026bc       0x94 build\STM32F4xx_Libraries\STM32F4xx_StdPeriph_Driver\src\stm32f4xx_rcc.o
                0x080026bc                RCC_APB1PeriphClockCmd
 .text.RCC_APB2PeriphClockCmd
                0x08002750       0x94 build\STM32F4xx_Libraries\STM32F4xx_StdPeriph_Driver\src\stm32f4xx_rcc.o
                0x08002750                RCC_APB2PeriphClockCmd
 .text.TIM_TimeBaseInit
                0x080027e4      0x224 build\STM32F4xx_Libraries\STM32F4xx_StdPeriph_Driver\src\stm32f4xx_tim.o
                0x080027e4                TIM_TimeBaseInit
 .text.TIM_ARRPreloadConfig
                0x08002a08      0x128 build\STM32F4xx_Libraries\STM32F4xx_StdPeriph_Driver\src\stm32f4xx_tim.o
                0x08002a08                TIM_ARRPreloadConfig
 .text.TIM_Cmd  0x08002b30      0x128 build\STM32F4xx_Libraries\STM32F4xx_StdPeriph_Driver\src\stm32f4xx_tim.o
                0x08002b30                TIM_Cmd
 .text.TIM_ITConfig
                0x08002c58      0x150 build\STM32F4xx_Libraries\STM32F4xx_StdPeriph_Driver\src\stm32f4xx_tim.o
                0x08002c58                TIM_ITConfig
 .text.TIM_GetITStatus
                0x08002da8      0x16c build\STM32F4xx_Libraries\STM32F4xx_StdPeriph_Driver\src\stm32f4xx_tim.o
                0x08002da8                TIM_GetITStatus
 .text.TIM_ClearITPendingBit
                0x08002f14       0xf0 build\STM32F4xx_Libraries\STM32F4xx_StdPeriph_Driver\src\stm32f4xx_tim.o
                0x08002f14                TIM_ClearITPendingBit
 .text.USART_Init
                0x08003004      0x36c build\STM32F4xx_Libraries\STM32F4xx_StdPeriph_Driver\src\stm32f4xx_usart.o
                0x08003004                USART_Init
 .text.USART_Cmd
                0x08003370       0xbc build\STM32F4xx_Libraries\STM32F4xx_StdPeriph_Driver\src\stm32f4xx_usart.o
                0x08003370                USART_Cmd
 .text.USART_ITConfig
                0x0800342c      0x1cc build\STM32F4xx_Libraries\STM32F4xx_StdPeriph_Driver\src\stm32f4xx_usart.o
                0x0800342c                USART_ITConfig
 .text.USART_GetITStatus
                0x080035f8      0x1f4 build\STM32F4xx_Libraries\STM32F4xx_StdPeriph_Driver\src\stm32f4xx_usart.o
                0x080035f8                USART_GetITStatus
 .text.USART_ClearITPendingBit
                0x080037ec      0x130 build\STM32F4xx_Libraries\STM32F4xx_StdPeriph_Driver\src\stm32f4xx_usart.o
                0x080037ec                USART_ClearITPendingBit
 .text.USBH_Open_Channel
                0x0800391c      0x108 build\STM32F4xx_Libraries\STM32_USB_HOST_Library\Core\src\usbh_hcs.o
                0x0800391c                USBH_Open_Channel
 .text.USBH_Modify_Channel
                0x08003a24       0x9c build\STM32F4xx_Libraries\STM32_USB_HOST_Library\Core\src\usbh_hcs.o
                0x08003a24                USBH_Modify_Channel
 .text.USBH_Alloc_Channel
                0x08003ac0       0x4c build\STM32F4xx_Libraries\STM32_USB_HOST_Library\Core\src\usbh_hcs.o
                0x08003ac0                USBH_Alloc_Channel
 .text.USBH_Free_Channel
                0x08003b0c       0x4c build\STM32F4xx_Libraries\STM32_USB_HOST_Library\Core\src\usbh_hcs.o
                0x08003b0c                USBH_Free_Channel
 .text.USBH_DeAllocate_AllChannel
                0x08003b58       0x44 build\STM32F4xx_Libraries\STM32_USB_HOST_Library\Core\src\usbh_hcs.o
                0x08003b58                USBH_DeAllocate_AllChannel
 .text.USBH_GetFreeChannel
                0x08003b9c       0x54 build\STM32F4xx_Libraries\STM32_USB_HOST_Library\Core\src\usbh_hcs.o
 .text.USBH_CtlReq
                0x08003bf0       0xa0 build\STM32F4xx_Libraries\STM32_USB_HOST_Library\Core\src\usbh_ioreq.o
                0x08003bf0                USBH_CtlReq
 .text.USBH_CtlSendSetup
                0x08003c90       0x7c build\STM32F4xx_Libraries\STM32_USB_HOST_Library\Core\src\usbh_ioreq.o
                0x08003c90                USBH_CtlSendSetup
 .text.USBH_CtlSendData
                0x08003d0c       0xc4 build\STM32F4xx_Libraries\STM32_USB_HOST_Library\Core\src\usbh_ioreq.o
                0x08003d0c                USBH_CtlSendData
 .text.USBH_CtlReceiveData
                0x08003dd0       0x7c build\STM32F4xx_Libraries\STM32_USB_HOST_Library\Core\src\usbh_ioreq.o
                0x08003dd0                USBH_CtlReceiveData
 .text.USBH_BulkSendData
                0x08003e4c       0xa8 build\STM32F4xx_Libraries\STM32_USB_HOST_Library\Core\src\usbh_ioreq.o
                0x08003e4c                USBH_BulkSendData
 .text.USBH_BulkReceiveData
                0x08003ef4       0xa8 build\STM32F4xx_Libraries\STM32_USB_HOST_Library\Core\src\usbh_ioreq.o
                0x08003ef4                USBH_BulkReceiveData
 .text.USBH_SubmitSetupRequest
                0x08003f9c       0x44 build\STM32F4xx_Libraries\STM32_USB_HOST_Library\Core\src\usbh_ioreq.o
 .text.USBH_Connected
                0x08003fe0       0x24 build\STM32F4xx_Libraries\STM32_USB_HOST_Library\Core\src\usbh_core.o
                0x08003fe0                USBH_Connected
 .text.USBH_Disconnected
                0x08004004       0x24 build\STM32F4xx_Libraries\STM32_USB_HOST_Library\Core\src\usbh_core.o
                0x08004004                USBH_Disconnected
 .text.USBH_SOF
                0x08004028       0x18 build\STM32F4xx_Libraries\STM32_USB_HOST_Library\Core\src\usbh_core.o
                0x08004028                USBH_SOF
 .text.USBH_Init
                0x08004040       0x58 build\STM32F4xx_Libraries\STM32_USB_HOST_Library\Core\src\usbh_core.o
                0x08004040                USBH_Init
 .text.USBH_DeInit
                0x08004098       0x74 build\STM32F4xx_Libraries\STM32_USB_HOST_Library\Core\src\usbh_core.o
                0x08004098                USBH_DeInit
 .text.USBH_Process
                0x0800410c      0x26c build\STM32F4xx_Libraries\STM32_USB_HOST_Library\Core\src\usbh_core.o
                0x0800410c                USBH_Process
 .text.USBH_ErrorHandle
                0x08004378       0x4c build\STM32F4xx_Libraries\STM32_USB_HOST_Library\Core\src\usbh_core.o
                0x08004378                USBH_ErrorHandle
 .text.USBH_HandleEnum
                0x080043c4      0x348 build\STM32F4xx_Libraries\STM32_USB_HOST_Library\Core\src\usbh_core.o
 .text.USBH_HandleControl
                0x0800470c      0x3ac build\STM32F4xx_Libraries\STM32_USB_HOST_Library\Core\src\usbh_core.o
                0x0800470c                USBH_HandleControl
 .text.USBH_Get_DevDesc
                0x08004ab8       0x5c build\STM32F4xx_Libraries\STM32_USB_HOST_Library\Core\src\usbh_stdreq.o
                0x08004ab8                USBH_Get_DevDesc
 .text.USBH_Get_CfgDesc
                0x08004b14       0x90 build\STM32F4xx_Libraries\STM32_USB_HOST_Library\Core\src\usbh_stdreq.o
                0x08004b14                USBH_Get_CfgDesc
 .text.USBH_Get_StringDesc
                0x08004ba4       0x5c build\STM32F4xx_Libraries\STM32_USB_HOST_Library\Core\src\usbh_stdreq.o
                0x08004ba4                USBH_Get_StringDesc
 .text.USBH_GetDescriptor
                0x08004c00       0x64 build\STM32F4xx_Libraries\STM32_USB_HOST_Library\Core\src\usbh_stdreq.o
                0x08004c00                USBH_GetDescriptor
 .text.USBH_SetAddress
                0x08004c64       0x54 build\STM32F4xx_Libraries\STM32_USB_HOST_Library\Core\src\usbh_stdreq.o
                0x08004c64                USBH_SetAddress
 .text.USBH_SetCfg
                0x08004cb8       0x50 build\STM32F4xx_Libraries\STM32_USB_HOST_Library\Core\src\usbh_stdreq.o
                0x08004cb8                USBH_SetCfg
 .text.USBH_ClrFeature
                0x08004d08       0x84 build\STM32F4xx_Libraries\STM32_USB_HOST_Library\Core\src\usbh_stdreq.o
                0x08004d08                USBH_ClrFeature
 .text.USBH_ParseDevDesc
                0x08004d8c       0xf0 build\STM32F4xx_Libraries\STM32_USB_HOST_Library\Core\src\usbh_stdreq.o
 .text.USBH_ParseCfgDesc
                0x08004e7c      0x208 build\STM32F4xx_Libraries\STM32_USB_HOST_Library\Core\src\usbh_stdreq.o
 .text.USBH_ParseInterfaceDesc
                0x08005084       0x5c build\STM32F4xx_Libraries\STM32_USB_HOST_Library\Core\src\usbh_stdreq.o
 .text.USBH_ParseEPDesc
                0x080050e0       0x5c build\STM32F4xx_Libraries\STM32_USB_HOST_Library\Core\src\usbh_stdreq.o
 .text.USBH_ParseStringDesc
                0x0800513c       0x74 build\STM32F4xx_Libraries\STM32_USB_HOST_Library\Core\src\usbh_stdreq.o
 .text.USBH_GetNextDesc
                0x080051b0       0x34 build\STM32F4xx_Libraries\STM32_USB_HOST_Library\Core\src\usbh_stdreq.o
                0x080051b0                USBH_GetNextDesc
 .text.USBH_MSC_Init
                0x080051e4       0x78 build\STM32F4xx_Libraries\STM32_USB_HOST_Library\Class\Msc\src\usbh_msc_bot.o
                0x080051e4                USBH_MSC_Init
 .text.USBH_MSC_HandleBOTXfer
                0x0800525c      0x69c build\STM32F4xx_Libraries\STM32_USB_HOST_Library\Class\Msc\src\usbh_msc_bot.o
                0x0800525c                USBH_MSC_HandleBOTXfer
 .text.USBH_MSC_BOT_Abort
                0x080058f8       0xa0 build\STM32F4xx_Libraries\STM32_USB_HOST_Library\Class\Msc\src\usbh_msc_bot.o
                0x080058f8                USBH_MSC_BOT_Abort
 .text.USBH_MSC_DecodeCSW
                0x08005998       0xd4 build\STM32F4xx_Libraries\STM32_USB_HOST_Library\Class\Msc\src\usbh_msc_bot.o
                0x08005998                USBH_MSC_DecodeCSW
 .text.USBH_MSC_InterfaceInit
                0x08005a6c      0x180 build\STM32F4xx_Libraries\STM32_USB_HOST_Library\Class\Msc\src\usbh_msc_core.o
 .text.USBH_MSC_InterfaceDeInit
                0x08005bec       0x94 build\STM32F4xx_Libraries\STM32_USB_HOST_Library\Class\Msc\src\usbh_msc_core.o
 .text.USBH_MSC_ClassRequest
                0x08005c80       0x2c build\STM32F4xx_Libraries\STM32_USB_HOST_Library\Class\Msc\src\usbh_msc_core.o
 .text.USBH_MSC_Handle
                0x08005cac      0x2f4 build\STM32F4xx_Libraries\STM32_USB_HOST_Library\Class\Msc\src\usbh_msc_core.o
 .text.USBH_MSC_BOTReset
                0x08005fa0       0x50 build\STM32F4xx_Libraries\STM32_USB_HOST_Library\Class\Msc\src\usbh_msc_core.o
 .text.USBH_MSC_GETMaxLUN
                0x08005ff0       0x50 build\STM32F4xx_Libraries\STM32_USB_HOST_Library\Class\Msc\src\usbh_msc_core.o
 .text.USBH_MSC_ErrorHandle
                0x08006040       0x84 build\STM32F4xx_Libraries\STM32_USB_HOST_Library\Class\Msc\src\usbh_msc_core.o
                0x08006040                USBH_MSC_ErrorHandle
 .text.USBH_MSC_TestUnitReady
                0x080060c4      0x17c build\STM32F4xx_Libraries\STM32_USB_HOST_Library\Class\Msc\src\usbh_msc_scsi.o
                0x080060c4                USBH_MSC_TestUnitReady
 .text.USBH_MSC_ReadCapacity10
                0x08006240      0x1f0 build\STM32F4xx_Libraries\STM32_USB_HOST_Library\Class\Msc\src\usbh_msc_scsi.o
                0x08006240                USBH_MSC_ReadCapacity10
 .text.USBH_MSC_ModeSense6
                0x08006430      0x1b8 build\STM32F4xx_Libraries\STM32_USB_HOST_Library\Class\Msc\src\usbh_msc_scsi.o
                0x08006430                USBH_MSC_ModeSense6
 .text.USBH_MSC_RequestSense
                0x080065e8      0x1f4 build\STM32F4xx_Libraries\STM32_USB_HOST_Library\Class\Msc\src\usbh_msc_scsi.o
                0x080065e8                USBH_MSC_RequestSense
 .text.USB_OTG_EnableCommonInt
                0x080067dc       0x44 build\STM32F4xx_Libraries\STM32_USB_OTG_Driver\src\usb_core.o
 .text.USB_OTG_CoreReset
                0x08006820       0xa8 build\STM32F4xx_Libraries\STM32_USB_OTG_Driver\src\usb_core.o
 .text.USB_OTG_WritePacket
                0x080068c8       0x88 build\STM32F4xx_Libraries\STM32_USB_OTG_Driver\src\usb_core.o
                0x080068c8                USB_OTG_WritePacket
 .text.USB_OTG_ReadPacket
                0x08006950       0x68 build\STM32F4xx_Libraries\STM32_USB_OTG_Driver\src\usb_core.o
                0x08006950                USB_OTG_ReadPacket
 .text.USB_OTG_SelectCore
                0x080069b8      0x1b4 build\STM32F4xx_Libraries\STM32_USB_OTG_Driver\src\usb_core.o
                0x080069b8                USB_OTG_SelectCore
 .text.USB_OTG_CoreInit
                0x08006b6c      0x150 build\STM32F4xx_Libraries\STM32_USB_OTG_Driver\src\usb_core.o
                0x08006b6c                USB_OTG_CoreInit
 .text.USB_OTG_EnableGlobalInt
                0x08006cbc       0x3c build\STM32F4xx_Libraries\STM32_USB_OTG_Driver\src\usb_core.o
                0x08006cbc                USB_OTG_EnableGlobalInt
 .text.USB_OTG_DisableGlobalInt
                0x08006cf8       0x40 build\STM32F4xx_Libraries\STM32_USB_OTG_Driver\src\usb_core.o
                0x08006cf8                USB_OTG_DisableGlobalInt
 .text.USB_OTG_FlushTxFifo
                0x08006d38       0x80 build\STM32F4xx_Libraries\STM32_USB_OTG_Driver\src\usb_core.o
                0x08006d38                USB_OTG_FlushTxFifo
 .text.USB_OTG_FlushRxFifo
                0x08006db8       0x6c build\STM32F4xx_Libraries\STM32_USB_OTG_Driver\src\usb_core.o
                0x08006db8                USB_OTG_FlushRxFifo
 .text.USB_OTG_SetCurrentMode
                0x08006e24       0x64 build\STM32F4xx_Libraries\STM32_USB_OTG_Driver\src\usb_core.o
                0x08006e24                USB_OTG_SetCurrentMode
 .text.USB_OTG_GetMode
                0x08006e88       0x20 build\STM32F4xx_Libraries\STM32_USB_OTG_Driver\src\usb_core.o
                0x08006e88                USB_OTG_GetMode
 .text.USB_OTG_IsHostMode
                0x08006ea8       0x24 build\STM32F4xx_Libraries\STM32_USB_OTG_Driver\src\usb_core.o
                0x08006ea8                USB_OTG_IsHostMode
 .text.USB_OTG_ReadCoreItr
                0x08006ecc       0x30 build\STM32F4xx_Libraries\STM32_USB_OTG_Driver\src\usb_core.o
                0x08006ecc                USB_OTG_ReadCoreItr
 .text.USB_OTG_CoreInitHost
                0x08006efc      0x13c build\STM32F4xx_Libraries\STM32_USB_OTG_Driver\src\usb_core.o
                0x08006efc                USB_OTG_CoreInitHost
 .text.USB_OTG_IsEvenFrame
                0x08007038       0x28 build\STM32F4xx_Libraries\STM32_USB_OTG_Driver\src\usb_core.o
                0x08007038                USB_OTG_IsEvenFrame
 .text.USB_OTG_DriveVbus
                0x08007060       0x80 build\STM32F4xx_Libraries\STM32_USB_OTG_Driver\src\usb_core.o
                0x08007060                USB_OTG_DriveVbus
 .text.USB_OTG_EnableHostInt
                0x080070e0       0x8c build\STM32F4xx_Libraries\STM32_USB_OTG_Driver\src\usb_core.o
                0x080070e0                USB_OTG_EnableHostInt
 .text.USB_OTG_InitFSLSPClkSel
                0x0800716c       0x38 build\STM32F4xx_Libraries\STM32_USB_OTG_Driver\src\usb_core.o
                0x0800716c                USB_OTG_InitFSLSPClkSel
 .text.USB_OTG_ReadHPRT0
                0x080071a4       0x40 build\STM32F4xx_Libraries\STM32_USB_OTG_Driver\src\usb_core.o
                0x080071a4                USB_OTG_ReadHPRT0
 .text.USB_OTG_ReadHostAllChannels_intr
                0x080071e4       0x1c build\STM32F4xx_Libraries\STM32_USB_OTG_Driver\src\usb_core.o
                0x080071e4                USB_OTG_ReadHostAllChannels_intr
 .text.USB_OTG_ResetPort
                0x08007200       0x54 build\STM32F4xx_Libraries\STM32_USB_OTG_Driver\src\usb_core.o
                0x08007200                USB_OTG_ResetPort
 .text.USB_OTG_HC_Init
                0x08007254      0x2d4 build\STM32F4xx_Libraries\STM32_USB_OTG_Driver\src\usb_core.o
                0x08007254                USB_OTG_HC_Init
 .text.USB_OTG_HC_StartXfer
                0x08007528      0x308 build\STM32F4xx_Libraries\STM32_USB_OTG_Driver\src\usb_core.o
                0x08007528                USB_OTG_HC_StartXfer
 .text.USB_OTG_HC_Halt
                0x08007830       0xb0 build\STM32F4xx_Libraries\STM32_USB_OTG_Driver\src\usb_core.o
                0x08007830                USB_OTG_HC_Halt
 .text.USB_OTG_HC_DoPing
                0x080078e0       0x88 build\STM32F4xx_Libraries\STM32_USB_OTG_Driver\src\usb_core.o
                0x080078e0                USB_OTG_HC_DoPing
 .text.HCD_Init
                0x08007968       0xa8 build\STM32F4xx_Libraries\STM32_USB_OTG_Driver\src\usb_hcd.o
                0x08007968                HCD_Init
 .text.HCD_GetCurrentSpeed
                0x08007a10       0x28 build\STM32F4xx_Libraries\STM32_USB_OTG_Driver\src\usb_hcd.o
                0x08007a10                HCD_GetCurrentSpeed
 .text.HCD_ResetPort
                0x08007a38       0x1c build\STM32F4xx_Libraries\STM32_USB_OTG_Driver\src\usb_hcd.o
                0x08007a38                HCD_ResetPort
 .text.HCD_IsDeviceConnected
                0x08007a54       0x1c build\STM32F4xx_Libraries\STM32_USB_OTG_Driver\src\usb_hcd.o
                0x08007a54                HCD_IsDeviceConnected
 .text.HCD_GetCurrentFrame
                0x08007a70       0x24 build\STM32F4xx_Libraries\STM32_USB_OTG_Driver\src\usb_hcd.o
                0x08007a70                HCD_GetCurrentFrame
 .text.HCD_GetURB_State
                0x08007a94       0x24 build\STM32F4xx_Libraries\STM32_USB_OTG_Driver\src\usb_hcd.o
                0x08007a94                HCD_GetURB_State
 .text.HCD_GetXferCnt
                0x08007ab8       0x24 build\STM32F4xx_Libraries\STM32_USB_OTG_Driver\src\usb_hcd.o
                0x08007ab8                HCD_GetXferCnt
 .text.HCD_SubmitRequest
                0x08007adc       0x44 build\STM32F4xx_Libraries\STM32_USB_OTG_Driver\src\usb_hcd.o
                0x08007adc                HCD_SubmitRequest
 .text.USBH_OTG_ISR_Handler
                0x08007b20      0x114 build\STM32F4xx_Libraries\STM32_USB_OTG_Driver\src\usb_hcd_int.o
                0x08007b20                USBH_OTG_ISR_Handler
 .text.USB_OTG_USBH_handle_hc_ISR
                0x08007c34       0x9c build\STM32F4xx_Libraries\STM32_USB_OTG_Driver\src\usb_hcd_int.o
 .text.USB_OTG_USBH_handle_sof_ISR
                0x08007cd0       0x3c build\STM32F4xx_Libraries\STM32_USB_OTG_Driver\src\usb_hcd_int.o
 .text.USB_OTG_USBH_handle_Disconnect_ISR
                0x08007d0c       0x3c build\STM32F4xx_Libraries\STM32_USB_OTG_Driver\src\usb_hcd_int.o
 .text.USB_OTG_USBH_handle_nptxfempty_ISR
                0x08007d48      0x1b0 build\STM32F4xx_Libraries\STM32_USB_OTG_Driver\src\usb_hcd_int.o
 .text.USB_OTG_USBH_handle_ptxfempty_ISR
                0x08007ef8      0x1b0 build\STM32F4xx_Libraries\STM32_USB_OTG_Driver\src\usb_hcd_int.o
 .text.USB_OTG_USBH_handle_port_ISR
                0x080080a8      0x184 build\STM32F4xx_Libraries\STM32_USB_OTG_Driver\src\usb_hcd_int.o
 .text.USB_OTG_USBH_handle_hc_n_Out_ISR
                0x0800822c      0x5c0 build\STM32F4xx_Libraries\STM32_USB_OTG_Driver\src\usb_hcd_int.o
 .text.USB_OTG_USBH_handle_hc_n_In_ISR
                0x080087ec      0x60c build\STM32F4xx_Libraries\STM32_USB_OTG_Driver\src\usb_hcd_int.o
 .text.USB_OTG_USBH_handle_rx_qlvl_ISR
                0x08008df8      0x1c8 build\STM32F4xx_Libraries\STM32_USB_OTG_Driver\src\usb_hcd_int.o
 .text.USB_OTG_USBH_handle_IncompletePeriodicXfer_ISR
                0x08008fc0       0x54 build\STM32F4xx_Libraries\STM32_USB_OTG_Driver\src\usb_hcd_int.o
 .text.Reset_Handler
                0x08009014       0x4c build\STM32F4xx_Libraries\CMSIS\ST\STM32F4xx\Source\Templates\gcc_ride7\startup_stm32f4xx.o
                0x08009014                Reset_Handler
 .text.Default_Handler
                0x08009060        0x4 build\STM32F4xx_Libraries\CMSIS\ST\STM32F4xx\Source\Templates\gcc_ride7\startup_stm32f4xx.o
                0x08009060                RTC_Alarm_IRQHandler
                0x08009060                HASH_RNG_IRQHandler
                0x08009060                EXTI2_IRQHandler
                0x08009060                TIM8_CC_IRQHandler
                0x08009060                TIM1_CC_IRQHandler
                0x08009060                DMA2_Stream5_IRQHandler
                0x08009060                DMA1_Stream5_IRQHandler
                0x08009060                PVD_IRQHandler
                0x08009060                SDIO_IRQHandler
                0x08009060                TAMP_STAMP_IRQHandler
                0x08009060                CAN2_RX1_IRQHandler
                0x08009060                EXTI3_IRQHandler
                0x08009060                TIM8_TRG_COM_TIM14_IRQHandler
                0x08009060                TIM1_UP_TIM10_IRQHandler
                0x08009060                TIM8_UP_TIM13_IRQHandler
                0x08009060                I2C3_ER_IRQHandler
                0x08009060                EXTI0_IRQHandler
                0x08009060                I2C2_EV_IRQHandler
                0x08009060                DMA1_Stream2_IRQHandler
                0x08009060                CAN1_RX0_IRQHandler
                0x08009060                FPU_IRQHandler
                0x08009060                OTG_HS_WKUP_IRQHandler
                0x08009060                CAN2_SCE_IRQHandler
                0x08009060                DMA2_Stream2_IRQHandler
                0x08009060                SPI1_IRQHandler
                0x08009060                TIM6_DAC_IRQHandler
                0x08009060                TIM1_BRK_TIM9_IRQHandler
                0x08009060                DCMI_IRQHandler
                0x08009060                CAN2_RX0_IRQHandler
                0x08009060                DMA2_Stream3_IRQHandler
                0x08009060                USART6_IRQHandler
                0x08009060                CRYP_IRQHandler
                0x08009060                CAN1_RX1_IRQHandler
                0x08009060                UART5_IRQHandler
                0x08009060                DMA2_Stream0_IRQHandler
                0x08009060                TIM4_IRQHandler
                0x08009060                I2C1_EV_IRQHandler
                0x08009060                DMA1_Stream6_IRQHandler
                0x08009060                DMA1_Stream1_IRQHandler
                0x08009060                UART4_IRQHandler
                0x08009060                TIM3_IRQHandler
                0x08009060                RCC_IRQHandler
                0x08009060                TIM8_BRK_TIM12_IRQHandler
                0x08009060                Default_Handler
                0x08009060                EXTI15_10_IRQHandler
                0x08009060                ADC_IRQHandler
                0x08009060                DMA1_Stream7_IRQHandler
                0x08009060                TIM7_IRQHandler
                0x08009060                CAN2_TX_IRQHandler
                0x08009060                TIM5_IRQHandler
                0x08009060                DMA2_Stream7_IRQHandler
                0x08009060                I2C3_EV_IRQHandler
                0x08009060                EXTI9_5_IRQHandler
                0x08009060                RTC_WKUP_IRQHandler
                0x08009060                ETH_WKUP_IRQHandler
                0x08009060                SPI2_IRQHandler
                0x08009060                OTG_HS_EP1_IN_IRQHandler
                0x08009060                DMA1_Stream0_IRQHandler
                0x08009060                CAN1_TX_IRQHandler
                0x08009060                EXTI4_IRQHandler
                0x08009060                FSMC_IRQHandler
                0x08009060                ETH_IRQHandler
                0x08009060                OTG_HS_EP1_OUT_IRQHandler
                0x08009060                WWDG_IRQHandler
                0x08009060                OTG_FS_WKUP_IRQHandler
                0x08009060                TIM1_TRG_COM_TIM11_IRQHandler
                0x08009060                OTG_HS_IRQHandler
                0x08009060                I2C2_ER_IRQHandler
                0x08009060                DMA2_Stream1_IRQHandler
                0x08009060                CAN1_SCE_IRQHandler
                0x08009060                FLASH_IRQHandler
                0x08009060                DMA2_Stream4_IRQHandler
                0x08009060                SPI3_IRQHandler
                0x08009060                DMA1_Stream4_IRQHandler
                0x08009060                I2C1_ER_IRQHandler
                0x08009060                DMA2_Stream6_IRQHandler
                0x08009060                DMA1_Stream3_IRQHandler
 .text.rt_system_tick_init
                0x08009064        0xc build\src\clock.o
                0x08009064                rt_system_tick_init
 .text.rt_tick_get
                0x08009070       0x18 build\src\clock.o
                0x08009070                rt_tick_get
 .text.rt_tick_increase
                0x08009088       0x50 build\src\clock.o
                0x08009088                rt_tick_increase
 .text.rt_device_register
                0x080090d8       0x3c build\src\device.o
                0x080090d8                rt_device_register
 .text.rt_device_init_all
                0x08009114       0x84 build\src\device.o
                0x08009114                rt_device_init_all
 .text.rt_device_find
                0x08009198       0x84 build\src\device.o
                0x08009198                rt_device_find
 .text.rt_device_open
                0x0800921c       0xec build\src\device.o
                0x0800921c                rt_device_open
 .text.rt_device_close
                0x08009308       0x7c build\src\device.o
                0x08009308                rt_device_close
 .text.rt_device_read
                0x08009384       0x74 build\src\device.o
                0x08009384                rt_device_read
 .text.rt_device_write
                0x080093f8       0x74 build\src\device.o
                0x080093f8                rt_device_write
 .text.rt_device_set_rx_indicate
                0x0800946c       0x54 build\src\device.o
                0x0800946c                rt_device_set_rx_indicate
 .text.rt_list_remove
                0x080094c0       0x34 build\src\idle.o
 .text.rt_list_isempty
                0x080094f4       0x24 build\src\idle.o
 .text.rt_thread_idle_excute
                0x08009518       0xf0 build\src\idle.o
                0x08009518                rt_thread_idle_excute
 .text.rt_thread_idle_entry
                0x08009608       0x28 build\src\idle.o
 .text.rt_thread_idle_init
                0x08009630       0x54 build\src\idle.o
                0x08009630                rt_thread_idle_init
 .text.rt_list_init
                0x08009684       0x20 build\src\ipc.o
 .text.rt_list_insert_before
                0x080096a4       0x30 build\src\ipc.o
 .text.rt_list_isempty
                0x080096d4       0x24 build\src\ipc.o
 .text.rt_ipc_object_init
                0x080096f8       0x24 build\src\ipc.o
 .text.rt_ipc_list_suspend
                0x0800971c       0x9c build\src\ipc.o
 .text.rt_ipc_list_resume
                0x080097b8       0x28 build\src\ipc.o
 .text.rt_sem_init
                0x080097e0       0x74 build\src\ipc.o
                0x080097e0                rt_sem_init
 .text.rt_sem_take
                0x08009854      0x178 build\src\ipc.o
                0x08009854                rt_sem_take
 .text.rt_sem_release
                0x080099cc       0x80 build\src\ipc.o
                0x080099cc                rt_sem_release
 .text.rt_mutex_take
                0x08009a4c      0x1e4 build\src\ipc.o
                0x08009a4c                rt_mutex_take
 .text.rt_mutex_release
                0x08009c30      0x11c build\src\ipc.o
                0x08009c30                rt_mutex_release
 .text.rt_interrupt_enter
                0x08009d4c       0x38 build\src\irq.o
                0x08009d4c                rt_interrupt_enter
 .text.rt_interrupt_leave
                0x08009d84       0x38 build\src\irq.o
                0x08009d84                rt_interrupt_leave
 .text.rt_interrupt_get_nest
                0x08009dbc       0x18 build\src\irq.o
                0x08009dbc                rt_interrupt_get_nest
 .text.rt_set_errno
                0x08009dd4       0x48 build\src\kservice.o
                0x08009dd4                rt_set_errno
 .text.rt_memset
                0x08009e1c       0xe8 build\src\kservice.o
                0x08009e1c                rt_memset
                0x08009e1c                memset
 .text.rt_memcpy
                0x08009f04      0x118 build\src\kservice.o
                0x08009f04                rt_memcpy
                0x08009f04                memcpy
 .text.rt_strncpy
                0x0800a01c       0x84 build\src\kservice.o
                0x0800a01c                rt_strncpy
 .text.rt_strncmp
                0x0800a0a0       0x70 build\src\kservice.o
                0x0800a0a0                rt_strncmp
 .text.rt_strlen
                0x0800a110       0x30 build\src\kservice.o
                0x0800a110                strlen
                0x0800a110                rt_strlen
 .text.rt_strdup
                0x0800a140       0x40 build\src\kservice.o
                0x0800a140                rt_strdup
                0x0800a140                strdup
 .text.rt_show_version
                0x0800a180       0x50 build\src\kservice.o
                0x0800a180                rt_show_version
 .text.divide   0x0800a1d0       0x7c build\src\kservice.o
 .text.skip_atoi
                0x0800a24c       0x4c build\src\kservice.o
 .text.print_number
                0x0800a298      0x244 build\src\kservice.o
 .text.vsnprintf
                0x0800a4dc      0x5d0 build\src\kservice.o
 .text.rt_snprintf
                0x0800aaac       0x34 build\src\kservice.o
                0x0800aaac                rt_snprintf
                0x0800aaac                snprintf
 .text.rt_console_set_device
                0x0800aae0       0x6c build\src\kservice.o
                0x0800aae0                rt_console_set_device
 .text.rt_hw_console_output
                0x0800ab4c       0x14 build\src\kservice.o
                0x0800ab4c                rt_hw_console_output
 .text.rt_kprintf
                0x0800ab60       0x70 build\src\kservice.o
                0x0800ab60                rt_kprintf
 .text.plug_holes
                0x0800abd0      0x1a0 build\src\mem.o
 .text.rt_system_heap_init
                0x0800ad70      0x1a0 build\src\mem.o
                0x0800ad70                rt_system_heap_init
 .text.rt_malloc
                0x0800af10      0x40c build\src\mem.o
                0x0800af10                rt_malloc
 .text.rt_free  0x0800b31c      0x22c build\src\mem.o
                0x0800b31c                rt_free
 .text.list_mem
                0x0800b548       0x50 build\src\mem.o
                0x0800b548                list_mem
 .text.rt_list_init
                0x0800b598       0x20 build\src\mempool.o
 .text.rt_list_insert_after
                0x0800b5b8       0x30 build\src\mempool.o
 .text.rt_mp_init
                0x0800b5e8      0x10c build\src\mempool.o
                0x0800b5e8                rt_mp_init
 .text.rt_mp_alloc
                0x0800b6f4      0x170 build\src\mempool.o
                0x0800b6f4                rt_mp_alloc
 .text.rt_list_insert_after
                0x0800b864       0x30 build\src\object.o
 .text.rt_list_remove
                0x0800b894       0x34 build\src\object.o
 .text.rt_system_object_init
                0x0800b8c8        0xc build\src\object.o
                0x0800b8c8                rt_system_object_init
 .text.rt_object_init
                0x0800b8d4       0x80 build\src\object.o
                0x0800b8d4                rt_object_init
 .text.rt_object_detach
                0x0800b954       0x78 build\src\object.o
                0x0800b954                rt_object_detach
 .text.rt_object_allocate
                0x0800b9cc       0xf4 build\src\object.o
                0x0800b9cc                rt_object_allocate
 .text.rt_object_delete
                0x0800bac0       0xb8 build\src\object.o
                0x0800bac0                rt_object_delete
 .text.rt_object_is_systemobject
                0x0800bb78       0x5c build\src\object.o
                0x0800bb78                rt_object_is_systemobject
 .text.rt_list_init
                0x0800bbd4       0x20 build\src\scheduler.o
 .text.rt_list_insert_before
                0x0800bbf4       0x30 build\src\scheduler.o
 .text.rt_list_remove
                0x0800bc24       0x34 build\src\scheduler.o
 .text.rt_list_isempty
                0x0800bc58       0x24 build\src\scheduler.o
 .text._rt_scheduler_stack_check
                0x0800bc7c       0xb0 build\src\scheduler.o
 .text.rt_system_scheduler_init
                0x0800bd2c       0x70 build\src\scheduler.o
                0x0800bd2c                rt_system_scheduler_init
 .text.rt_system_scheduler_start
                0x0800bd9c       0xdc build\src\scheduler.o
                0x0800bd9c                rt_system_scheduler_start
 .text.rt_schedule
                0x0800be78      0x184 build\src\scheduler.o
                0x0800be78                rt_schedule
 .text.rt_schedule_insert_thread
                0x0800bffc       0x98 build\src\scheduler.o
                0x0800bffc                rt_schedule_insert_thread
 .text.rt_schedule_remove_thread
                0x0800c094       0x9c build\src\scheduler.o
                0x0800c094                rt_schedule_remove_thread
 .text.rt_enter_critical
                0x0800c130       0x2c build\src\scheduler.o
                0x0800c130                rt_enter_critical
 .text.rt_exit_critical
                0x0800c15c       0x58 build\src\scheduler.o
                0x0800c15c                rt_exit_critical
 .text.rt_list_init
                0x0800c1b4       0x20 build\src\thread.o
 .text.rt_list_insert_after
                0x0800c1d4       0x30 build\src\thread.o
 .text.rt_list_insert_before
                0x0800c204       0x30 build\src\thread.o
 .text.rt_list_remove
                0x0800c234       0x34 build\src\thread.o
 .text.rt_thread_exit
                0x0800c268       0x84 build\src\thread.o
 .text._rt_thread_init
                0x0800c2ec      0x124 build\src\thread.o
 .text.rt_thread_init
                0x0800c410       0xac build\src\thread.o
                0x0800c410                rt_thread_init
 .text.rt_thread_self
                0x0800c4bc       0x18 build\src\thread.o
                0x0800c4bc                rt_thread_self
 .text.rt_thread_startup
                0x0800c4d4       0xc0 build\src\thread.o
                0x0800c4d4                rt_thread_startup
 .text.rt_thread_create
                0x0800c594       0x6c build\src\thread.o
                0x0800c594                rt_thread_create
 .text.rt_thread_delete
                0x0800c600       0x88 build\src\thread.o
                0x0800c600                rt_thread_delete
 .text.rt_thread_yield
                0x0800c688       0x80 build\src\thread.o
                0x0800c688                rt_thread_yield
 .text.rt_thread_sleep
                0x0800c708       0xa0 build\src\thread.o
                0x0800c708                rt_thread_sleep
 .text.rt_thread_delay
                0x0800c7a8       0x1c build\src\thread.o
                0x0800c7a8                rt_thread_delay
 .text.rt_thread_control
                0x0800c7c4       0xd8 build\src\thread.o
                0x0800c7c4                rt_thread_control
 .text.rt_thread_suspend
                0x0800c89c       0x78 build\src\thread.o
                0x0800c89c                rt_thread_suspend
 .text.rt_thread_resume
                0x0800c914       0x98 build\src\thread.o
                0x0800c914                rt_thread_resume
 .text.rt_thread_timeout
                0x0800c9ac       0xa0 build\src\thread.o
                0x0800c9ac                rt_thread_timeout
 .text.rt_list_init
                0x0800ca4c       0x20 build\src\timer.o
 .text.rt_list_insert_before
                0x0800ca6c       0x30 build\src\timer.o
 .text.rt_list_remove
                0x0800ca9c       0x34 build\src\timer.o
 .text.rt_list_isempty
                0x0800cad0       0x24 build\src\timer.o
 .text._rt_timer_init
                0x0800caf4       0x50 build\src\timer.o
 .text.rt_timer_init
                0x0800cb44       0x68 build\src\timer.o
                0x0800cb44                rt_timer_init
 .text.rt_timer_detach
                0x0800cbac       0x68 build\src\timer.o
                0x0800cbac                rt_timer_detach
 .text.rt_timer_start
                0x0800cc14      0x148 build\src\timer.o
                0x0800cc14                rt_timer_start
 .text.rt_timer_control
                0x0800cd5c       0xa4 build\src\timer.o
                0x0800cd5c                rt_timer_control
 .text.rt_timer_check
                0x0800ce00       0xd4 build\src\timer.o
                0x0800ce00                rt_timer_check
 .text.rt_system_timer_init
                0x0800ced4        0xc build\src\timer.o
                0x0800ced4                rt_system_timer_init
 .text.rt_system_timer_thread_init
                0x0800cee0        0xc build\src\timer.o
                0x0800cee0                rt_system_timer_thread_init
 .text.rt_hw_stack_init
                0x0800ceec       0x94 build\libcpu\arm\cortex-m4\cpuport.o
                0x0800ceec                rt_hw_stack_init
 .text.rt_hw_hard_fault_exception
                0x0800cf80       0xb8 build\libcpu\arm\cortex-m4\cpuport.o
                0x0800cf80                rt_hw_hard_fault_exception
 .text.dfs_lock
                0x0800d038       0x54 build\components\dfs\src\dfs.o
                0x0800d038                dfs_lock
 .text.dfs_unlock
                0x0800d08c       0x14 build\components\dfs\src\dfs.o
                0x0800d08c                dfs_unlock
 .text.fd_new   0x0800d0a0       0x74 build\components\dfs\src\dfs.o
                0x0800d0a0                fd_new
 .text.fd_get   0x0800d114       0x4c build\components\dfs\src\dfs.o
                0x0800d114                fd_get
 .text.fd_put   0x0800d160       0x70 build\components\dfs\src\dfs.o
                0x0800d160                fd_put
 .text.fd_is_open
                0x0800d1d0       0xe0 build\components\dfs\src\dfs.o
                0x0800d1d0                fd_is_open
 .text.dfs_subdir
                0x0800d2b0       0x58 build\components\dfs\src\dfs.o
                0x0800d2b0                dfs_subdir
 .text.dfs_normalize_path
                0x0800d308      0x260 build\components\dfs\src\dfs.o
                0x0800d308                dfs_normalize_path
 .text.dfs_filesystem_lookup
                0x0800d568      0x104 build\components\dfs\src\dfs_fs.o
                0x0800d568                dfs_filesystem_lookup
 .text.dfs_mkfs
                0x0800d66c       0x94 build\components\dfs\src\dfs_fs.o
                0x0800d66c                dfs_mkfs
 .text.dfs_statfs
                0x0800d700       0x40 build\components\dfs\src\dfs_fs.o
                0x0800d700                dfs_statfs
 .text.mkfs     0x0800d740       0x1c build\components\dfs\src\dfs_fs.o
                0x0800d740                mkfs
 .text.df       0x0800d75c       0x38 build\components\dfs\src\dfs_fs.o
                0x0800d75c                df
 .text.dfs_file_open
                0x0800d794      0x158 build\components\dfs\src\dfs_file.o
                0x0800d794                dfs_file_open
 .text.dfs_file_close
                0x0800d8ec       0x5c build\components\dfs\src\dfs_file.o
                0x0800d8ec                dfs_file_close
 .text.dfs_file_read
                0x0800d948       0x64 build\components\dfs\src\dfs_file.o
                0x0800d948                dfs_file_read
 .text.dfs_file_getdents
                0x0800d9ac       0x50 build\components\dfs\src\dfs_file.o
                0x0800d9ac                dfs_file_getdents
 .text.dfs_file_unlink
                0x0800d9fc       0xd8 build\components\dfs\src\dfs_file.o
                0x0800d9fc                dfs_file_unlink
 .text.dfs_file_write
                0x0800dad4       0x48 build\components\dfs\src\dfs_file.o
                0x0800dad4                dfs_file_write
 .text.dfs_file_stat
                0x0800db1c      0x110 build\components\dfs\src\dfs_file.o
                0x0800db1c                dfs_file_stat
 .text.ls       0x0800dc2c      0x150 build\components\dfs\src\dfs_file.o
                0x0800dc2c                ls
 .text.rm       0x0800dd7c       0x2c build\components\dfs\src\dfs_file.o
                0x0800dd7c                rm
 .text.cat      0x0800dda8       0x90 build\components\dfs\src\dfs_file.o
                0x0800dda8                cat
 .text.copy     0x0800de38       0xe0 build\components\dfs\src\dfs_file.o
                0x0800de38                copy
 .text.mkdir    0x0800df18       0x74 build\components\dfs\src\dfs_posix.o
                0x0800df18                mkdir
 .text.rt_list_isempty
                0x0800df8c       0x24 build\components\finsh\cmd.o
 .text.rt_list_len
                0x0800dfb0       0x3c build\components\finsh\cmd.o
 .text.hello    0x0800dfec       0x18 build\components\finsh\cmd.o
                0x0800dfec                hello
 .text.version  0x0800e004       0x10 build\components\finsh\cmd.o
                0x0800e004                version
 .text._list_thread
                0x0800e014      0x120 build\components\finsh\cmd.o
 .text.list_thread
                0x0800e134       0x14 build\components\finsh\cmd.o
                0x0800e134                list_thread
 .text.show_wait_queue
                0x0800e148       0x54 build\components\finsh\cmd.o
 .text._list_sem
                0x0800e19c       0xd0 build\components\finsh\cmd.o
 .text.list_sem
                0x0800e26c       0x14 build\components\finsh\cmd.o
                0x0800e26c                list_sem
 .text._list_event
                0x0800e280       0xb8 build\components\finsh\cmd.o
 .text.list_event
                0x0800e338       0x14 build\components\finsh\cmd.o
                0x0800e338                list_event
 .text._list_mutex
                0x0800e34c       0x84 build\components\finsh\cmd.o
 .text.list_mutex
                0x0800e3d0       0x14 build\components\finsh\cmd.o
                0x0800e3d0                list_mutex
 .text._list_mailbox
                0x0800e3e4       0xe0 build\components\finsh\cmd.o
 .text.list_mailbox
                0x0800e4c4       0x14 build\components\finsh\cmd.o
                0x0800e4c4                list_mailbox
 .text._list_msgqueue
                0x0800e4d8       0xd0 build\components\finsh\cmd.o
 .text.list_msgqueue
                0x0800e5a8       0x14 build\components\finsh\cmd.o
                0x0800e5a8                list_msgqueue
 .text._list_mempool
                0x0800e5bc       0xc0 build\components\finsh\cmd.o
 .text.list_mempool
                0x0800e67c       0x14 build\components\finsh\cmd.o
                0x0800e67c                list_mempool
 .text._list_timer
                0x0800e690       0xa4 build\components\finsh\cmd.o
 .text.list_timer
                0x0800e734       0x14 build\components\finsh\cmd.o
                0x0800e734                list_timer
 .text._list_device
                0x0800e748       0xa0 build\components\finsh\cmd.o
 .text.list_device
                0x0800e7e8       0x14 build\components\finsh\cmd.o
                0x0800e7e8                list_device
 .text.list     0x0800e7fc      0x100 build\components\finsh\cmd.o
                0x0800e7fc                list
 .text.str_is_prefix
                0x0800e8fc       0x50 build\components\finsh\cmd.o
 .text.str_common
                0x0800e94c       0x50 build\components\finsh\cmd.o
 .text.list_prefix
                0x0800e99c      0x2b4 build\components\finsh\cmd.o
                0x0800e99c                list_prefix
 .text.finsh_compile
                0x0800ec50     0x2b04 build\components\finsh\finsh_compiler.o
 .text.finsh_type_check
                0x08011754      0x24c build\components\finsh\finsh_compiler.o
 .text.finsh_compiler_run
                0x080119a0       0xc0 build\components\finsh\finsh_compiler.o
                0x080119a0                finsh_compiler_run
 .text.finsh_error_init
                0x08011a60       0x20 build\components\finsh\finsh_error.o
                0x08011a60                finsh_error_init
 .text.finsh_error_set
                0x08011a80       0x28 build\components\finsh\finsh_error.o
                0x08011a80                finsh_error_set
 .text.finsh_errno
                0x08011aa8       0x18 build\components\finsh\finsh_error.o
                0x08011aa8                finsh_errno
 .text.finsh_error_string
                0x08011ac0       0x24 build\components\finsh\finsh_error.o
                0x08011ac0                finsh_error_string
 .text.finsh_heap_init
                0x08011ae4       0x68 build\components\finsh\finsh_heap.o
                0x08011ae4                finsh_heap_init
 .text.finsh_heap_allocate
                0x08011b4c       0xcc build\components\finsh\finsh_heap.o
                0x08011b4c                finsh_heap_allocate
 .text.finsh_heap_free
                0x08011c18       0x44 build\components\finsh\finsh_heap.o
                0x08011c18                finsh_heap_free
 .text.finsh_heap_gc
                0x08011c5c       0xa8 build\components\finsh\finsh_heap.o
 .text.finsh_block_insert
                0x08011d04       0x84 build\components\finsh\finsh_heap.o
 .text.finsh_block_remove
                0x08011d88       0x5c build\components\finsh\finsh_heap.o
 .text.finsh_block_split
                0x08011de4       0x44 build\components\finsh\finsh_heap.o
 .text.finsh_block_merge
                0x08011e28       0xf0 build\components\finsh\finsh_heap.o
 .text.finsh_init
                0x08011f18       0x2c build\components\finsh\finsh_init.o
                0x08011f18                finsh_init
 .text.finsh_stack_bottom
                0x08011f44       0x18 build\components\finsh\finsh_init.o
                0x08011f44                finsh_stack_bottom
 .text.finsh_flush
                0x08011f5c       0x24 build\components\finsh\finsh_init.o
                0x08011f5c                finsh_flush
 .text.finsh_node_init
                0x08011f80       0x28 build\components\finsh\finsh_node.o
                0x08011f80                finsh_node_init
 .text.finsh_node_allocate
                0x08011fa8       0x90 build\components\finsh\finsh_node.o
                0x08011fa8                finsh_node_allocate
 .text.finsh_node_new_id
                0x08012038       0xc0 build\components\finsh\finsh_node.o
                0x08012038                finsh_node_new_id
 .text.finsh_node_new_char
                0x080120f8       0x3c build\components\finsh\finsh_node.o
                0x080120f8                finsh_node_new_char
 .text.finsh_node_new_int
                0x08012134       0x38 build\components\finsh\finsh_node.o
                0x08012134                finsh_node_new_int
 .text.finsh_node_new_long
                0x0801216c       0x38 build\components\finsh\finsh_node.o
                0x0801216c                finsh_node_new_long
 .text.finsh_node_new_string
                0x080121a4       0x74 build\components\finsh\finsh_node.o
                0x080121a4                finsh_node_new_string
 .text.finsh_node_new_ptr
                0x08012218       0x38 build\components\finsh\finsh_node.o
                0x08012218                finsh_node_new_ptr
 .text.OP_no_op
                0x08012250        0xc build\components\finsh\finsh_ops.o
                0x08012250                OP_no_op
 .text.OP_add_byte
                0x0801225c       0x58 build\components\finsh\finsh_ops.o
                0x0801225c                OP_add_byte
 .text.OP_add_word
                0x080122b4       0x5c build\components\finsh\finsh_ops.o
                0x080122b4                OP_add_word
 .text.OP_add_dword
                0x08012310       0x54 build\components\finsh\finsh_ops.o
                0x08012310                OP_add_dword
 .text.OP_sub_byte
                0x08012364       0x58 build\components\finsh\finsh_ops.o
                0x08012364                OP_sub_byte
 .text.OP_sub_word
                0x080123bc       0x5c build\components\finsh\finsh_ops.o
                0x080123bc                OP_sub_word
 .text.OP_sub_dword
                0x08012418       0x54 build\components\finsh\finsh_ops.o
                0x08012418                OP_sub_dword
 .text.OP_div_byte
                0x0801246c       0x58 build\components\finsh\finsh_ops.o
                0x0801246c                OP_div_byte
 .text.OP_div_word
                0x080124c4       0x5c build\components\finsh\finsh_ops.o
                0x080124c4                OP_div_word
 .text.OP_div_dword
                0x08012520       0x58 build\components\finsh\finsh_ops.o
                0x08012520                OP_div_dword
 .text.OP_mod_byte
                0x08012578       0x60 build\components\finsh\finsh_ops.o
                0x08012578                OP_mod_byte
 .text.OP_mod_word
                0x080125d8       0x64 build\components\finsh\finsh_ops.o
                0x080125d8                OP_mod_word
 .text.OP_mod_dword
                0x0801263c       0x5c build\components\finsh\finsh_ops.o
                0x0801263c                OP_mod_dword
 .text.OP_mul_byte
                0x08012698       0x58 build\components\finsh\finsh_ops.o
                0x08012698                OP_mul_byte
 .text.OP_mul_word
                0x080126f0       0x60 build\components\finsh\finsh_ops.o
                0x080126f0                OP_mul_word
 .text.OP_mul_dword
                0x08012750       0x58 build\components\finsh\finsh_ops.o
                0x08012750                OP_mul_dword
 .text.OP_and_byte
                0x080127a8       0x58 build\components\finsh\finsh_ops.o
                0x080127a8                OP_and_byte
 .text.OP_and_word
                0x08012800       0x58 build\components\finsh\finsh_ops.o
                0x08012800                OP_and_word
 .text.OP_and_dword
                0x08012858       0x54 build\components\finsh\finsh_ops.o
                0x08012858                OP_and_dword
 .text.OP_or_byte
                0x080128ac       0x58 build\components\finsh\finsh_ops.o
                0x080128ac                OP_or_byte
 .text.OP_or_word
                0x08012904       0x58 build\components\finsh\finsh_ops.o
                0x08012904                OP_or_word
 .text.OP_or_dword
                0x0801295c       0x54 build\components\finsh\finsh_ops.o
                0x0801295c                OP_or_dword
 .text.OP_xor_byte
                0x080129b0       0x58 build\components\finsh\finsh_ops.o
                0x080129b0                OP_xor_byte
 .text.OP_xor_word
                0x08012a08       0x58 build\components\finsh\finsh_ops.o
                0x08012a08                OP_xor_word
 .text.OP_xor_dword
                0x08012a60       0x54 build\components\finsh\finsh_ops.o
                0x08012a60                OP_xor_dword
 .text.OP_bw_byte
                0x08012ab4       0x30 build\components\finsh\finsh_ops.o
                0x08012ab4                OP_bw_byte
 .text.OP_bw_word
                0x08012ae4       0x30 build\components\finsh\finsh_ops.o
                0x08012ae4                OP_bw_word
 .text.OP_bw_dword
                0x08012b14       0x30 build\components\finsh\finsh_ops.o
                0x08012b14                OP_bw_dword
 .text.OP_shl_byte
                0x08012b44       0x5c build\components\finsh\finsh_ops.o
                0x08012b44                OP_shl_byte
 .text.OP_shl_word
                0x08012ba0       0x5c build\components\finsh\finsh_ops.o
                0x08012ba0                OP_shl_word
 .text.OP_shl_dword
                0x08012bfc       0x58 build\components\finsh\finsh_ops.o
                0x08012bfc                OP_shl_dword
 .text.OP_shr_byte
                0x08012c54       0x5c build\components\finsh\finsh_ops.o
                0x08012c54                OP_shr_byte
 .text.OP_shr_word
                0x08012cb0       0x5c build\components\finsh\finsh_ops.o
                0x08012cb0                OP_shr_word
 .text.OP_shr_dword
                0x08012d0c       0x58 build\components\finsh\finsh_ops.o
                0x08012d0c                OP_shr_dword
 .text.OP_ld_byte
                0x08012d64       0x54 build\components\finsh\finsh_ops.o
                0x08012d64                OP_ld_byte
 .text.OP_ld_word
                0x08012db8       0x70 build\components\finsh\finsh_ops.o
                0x08012db8                OP_ld_word
 .text.OP_ld_dword
                0x08012e28       0x98 build\components\finsh\finsh_ops.o
                0x08012e28                OP_ld_dword
 .text.OP_ld_value_byte
                0x08012ec0       0xa4 build\components\finsh\finsh_ops.o
                0x08012ec0                OP_ld_value_byte
 .text.OP_ld_value_byte_stack
                0x08012f64       0x38 build\components\finsh\finsh_ops.o
                0x08012f64                OP_ld_value_byte_stack
 .text.OP_ld_value_word
                0x08012f9c       0xa4 build\components\finsh\finsh_ops.o
                0x08012f9c                OP_ld_value_word
 .text.OP_ld_value_word_stack
                0x08013040       0x38 build\components\finsh\finsh_ops.o
                0x08013040                OP_ld_value_word_stack
 .text.OP_ld_value_dword
                0x08013078       0xa4 build\components\finsh\finsh_ops.o
                0x08013078                OP_ld_value_dword
 .text.OP_ld_value_dword_stack
                0x0801311c       0x38 build\components\finsh\finsh_ops.o
                0x0801311c                OP_ld_value_dword_stack
 .text.OP_st_byte
                0x08013154       0x48 build\components\finsh\finsh_ops.o
                0x08013154                OP_st_byte
 .text.OP_st_word
                0x0801319c       0x48 build\components\finsh\finsh_ops.o
                0x0801319c                OP_st_word
 .text.OP_st_dword
                0x080131e4       0x48 build\components\finsh\finsh_ops.o
                0x080131e4                OP_st_dword
 .text.OP_pop   0x0801322c       0x24 build\components\finsh\finsh_ops.o
                0x0801322c                OP_pop
 .text.OP_call  0x08013250      0x42c build\components\finsh\finsh_ops.o
                0x08013250                OP_call
 .text.proc_variable_decl
                0x0801367c      0x2f4 build\components\finsh\finsh_parser.o
 .text.proc_type
                0x08013970      0x1d8 build\components\finsh\finsh_parser.o
 .text.proc_identifier
                0x08013b48       0x50 build\components\finsh\finsh_parser.o
 .text.proc_expr_statement
                0x08013b98       0x68 build\components\finsh\finsh_parser.o
 .text.proc_expr
                0x08013c00       0x1c build\components\finsh\finsh_parser.o
 .text.proc_assign_expr
                0x08013c1c       0x54 build\components\finsh\finsh_parser.o
 .text.proc_inclusive_or_expr
                0x08013c70       0x74 build\components\finsh\finsh_parser.o
 .text.proc_exclusive_or_expr
                0x08013ce4       0x74 build\components\finsh\finsh_parser.o
 .text.proc_and_expr
                0x08013d58       0x74 build\components\finsh\finsh_parser.o
 .text.proc_shift_expr
                0x08013dcc       0xa0 build\components\finsh\finsh_parser.o
 .text.proc_additive_expr
                0x08013e6c       0xa0 build\components\finsh\finsh_parser.o
 .text.proc_multiplicative_expr
                0x08013f0c       0xb8 build\components\finsh\finsh_parser.o
 .text.proc_cast_expr
                0x08013fc4       0x80 build\components\finsh\finsh_parser.o
 .text.proc_unary_expr
                0x08014044      0x124 build\components\finsh\finsh_parser.o
 .text.proc_postfix_expr
                0x08014168       0xf0 build\components\finsh\finsh_parser.o
 .text.proc_primary_expr
                0x08014258      0x164 build\components\finsh\finsh_parser.o
 .text.proc_param_list
                0x080143bc       0x80 build\components\finsh\finsh_parser.o
 .text.make_sys_node
                0x0801443c       0x48 build\components\finsh\finsh_parser.o
 .text.finsh_parser_run
                0x08014484      0x164 build\components\finsh\finsh_parser.o
                0x08014484                finsh_parser_run
 .text.finsh_parser_init
                0x080145e8       0x2c build\components\finsh\finsh_parser.o
                0x080145e8                finsh_parser_init
 .text.finsh_token_init
                0x08014614       0x30 build\components\finsh\finsh_token.o
                0x08014614                finsh_token_init
 .text.finsh_token_token
                0x08014644       0x30 build\components\finsh\finsh_token.o
                0x08014644                finsh_token_token
 .text.token_get_string
                0x08014674       0xb4 build\components\finsh\finsh_token.o
                0x08014674                token_get_string
 .text.token_next_char
                0x08014728       0x78 build\components\finsh\finsh_token.o
 .text.token_prev_char
                0x080147a0       0x38 build\components\finsh\finsh_token.o
 .text.token_run
                0x080147d8      0x388 build\components\finsh\finsh_token.o
 .text.token_match_name
                0x08014b60       0x68 build\components\finsh\finsh_token.o
 .text.token_trim_space
                0x08014bc8       0x2c build\components\finsh\finsh_token.o
 .text.token_proc_char
                0x08014bf4       0xf0 build\components\finsh\finsh_token.o
 .text.token_proc_string
                0x08014ce4       0x84 build\components\finsh\finsh_token.o
 .text.token_proc_escape
                0x08014d68      0x148 build\components\finsh\finsh_token.o
 .text.token_proc_number
                0x08014eb0      0x200 build\components\finsh\finsh_token.o
 .text.token_spec_number
                0x080150b0      0x128 build\components\finsh\finsh_token.o
 .text.finsh_var_init
                0x080151d8       0x28 build\components\finsh\finsh_var.o
                0x080151d8                finsh_var_init
 .text.finsh_var_insert
                0x08015200       0xe8 build\components\finsh\finsh_var.o
                0x08015200                finsh_var_insert
 .text.finsh_var_lookup
                0x080152e8       0x7c build\components\finsh\finsh_var.o
                0x080152e8                finsh_var_lookup
 .text.finsh_sysvar_lookup
                0x08015364       0x90 build\components\finsh\finsh_var.o
                0x08015364                finsh_sysvar_lookup
 .text.finsh_vm_run
                0x080153f4       0x94 build\components\finsh\finsh_vm.o
                0x080153f4                finsh_vm_run
 .text.finsh_syscall_lookup
                0x08015488       0x90 build\components\finsh\finsh_vm.o
                0x08015488                finsh_syscall_lookup
 .text.finsh_rx_ind
                0x08015518       0x64 build\components\finsh\shell.o
 .text.finsh_set_device
                0x0801557c       0xc4 build\components\finsh\shell.o
                0x0801557c                finsh_set_device
 .text.finsh_auto_complete
                0x08015640       0x38 build\components\finsh\shell.o
                0x08015640                finsh_auto_complete
 .text.finsh_run_line
                0x08015678       0xcc build\components\finsh\shell.o
                0x08015678                finsh_run_line
 .text.finsh_handle_history
                0x08015744      0x1e8 build\components\finsh\shell.o
                0x08015744                finsh_handle_history
 .text.finsh_push_history
                0x0801592c      0x164 build\components\finsh\shell.o
                0x0801592c                finsh_push_history
 .text.finsh_thread_entry
                0x08015a90      0x340 build\components\finsh\shell.o
                0x08015a90                finsh_thread_entry
 .text.finsh_system_function_init
                0x08015dd0       0x2c build\components\finsh\shell.o
                0x08015dd0                finsh_system_function_init
 .text.finsh_system_var_init
                0x08015dfc       0x2c build\components\finsh\shell.o
                0x08015dfc                finsh_system_var_init
 .text.finsh_system_init
                0x08015e28       0xf4 build\components\finsh\shell.o
                0x08015e28                finsh_system_init
 .text.isalpha  0x08015f1c       0x28 build\components\libc\minilibc\ctype.o
                0x08015f1c                isalpha
 .text.atoi     0x08015f44       0xa0 build\components\libc\minilibc\stdlib.o
                0x08015f44                atoi
 .text.strncpy  0x08015fe4       0x24 build\components\libc\minilibc\string.o
                0x08015fe4                strncpy
 .text.strcmp   0x08016008       0x48 build\components\libc\minilibc\string.o
                0x08016008                strcmp
 .text.strncmp  0x08016050       0x70 build\components\libc\minilibc\string.o
                0x08016050                strncmp
 *(.rodata)
 .rodata        0x080160c0       0x24 build\applications\application.o
 .rodata        0x080160e4       0x58 build\applications\startup.o
 .rodata        0x0801613c        0x8 build\drivers\board.o
 .rodata        0x08016144       0xf4 build\drivers\serial.o
 .rodata        0x08016238        0x8 build\drivers\usart.o
 .rodata        0x08016240      0x17c build\drivers\usbh_usr.o
 .rodata        0x080163bc       0x3c build\STM32F4xx_Libraries\STM32F4xx_StdPeriph_Driver\src\misc.o
 .rodata        0x080163f8       0x44 build\STM32F4xx_Libraries\STM32F4xx_StdPeriph_Driver\src\stm32f4xx_dma.o
 .rodata        0x0801643c       0x44 build\STM32F4xx_Libraries\STM32F4xx_StdPeriph_Driver\src\stm32f4xx_exti.o
 .rodata        0x08016480       0x44 build\STM32F4xx_Libraries\STM32F4xx_StdPeriph_Driver\src\stm32f4xx_gpio.o
 .rodata        0x080164c4       0x44 build\STM32F4xx_Libraries\STM32F4xx_StdPeriph_Driver\src\stm32f4xx_rcc.o
 .rodata        0x08016508       0x44 build\STM32F4xx_Libraries\STM32F4xx_StdPeriph_Driver\src\stm32f4xx_tim.o
 .rodata        0x0801654c       0x48 build\STM32F4xx_Libraries\STM32F4xx_StdPeriph_Driver\src\stm32f4xx_usart.o
 .rodata        0x08016594        0x4 build\STM32F4xx_Libraries\STM32_USB_HOST_Library\Core\src\usbh_core.o
 .rodata        0x08016598       0x68 build\src\device.o
 .rodata        0x08016600       0x50 build\src\idle.o
 .rodata        0x08016650       0xc0 build\src\ipc.o
 .rodata        0x08016710       0x90 build\src\kservice.o
 .rodata        0x080167a0      0x2d0 build\src\mem.o
 .rodata        0x08016a70       0x58 build\src\mempool.o
 .rodata        0x08016ac8       0x88 build\src\object.o
 .rodata        0x08016b50       0x88 build\src\scheduler.o
 .rodata        0x08016bd8       0xb4 build\src\thread.o
 .rodata        0x08016c8c       0x58 build\src\timer.o
 .rodata        0x08016ce4       0xd0 build\libcpu\arm\cortex-m4\cpuport.o
 .rodata        0x08016db4       0x80 build\components\dfs\src\dfs.o
 .rodata        0x08016e34       0xc4 build\components\dfs\src\dfs_fs.o
 .rodata        0x08016ef8       0xb4 build\components\dfs\src\dfs_file.o
 .rodata        0x08016fac      0x630 build\components\finsh\cmd.o
 .rodata        0x080175dc       0xf4 build\components\finsh\finsh_error.o
 .rodata        0x080176d0       0x40 build\components\finsh\finsh_token.o
 .rodata        0x08017710       0xcc build\components\finsh\shell.o
 *(.rodata*)
 .rodata.__FUNCTION__.8052
                0x080177dc       0x14 build\drivers\serial.o
 .rodata.__FUNCTION__.8039
                0x080177f0       0x18 build\drivers\serial.o
 .rodata.__FUNCTION__.8025
                0x08017808       0x14 build\drivers\serial.o
 .rodata.__FUNCTION__.7997
                0x0801781c       0x10 build\drivers\serial.o
 .rodata.__FUNCTION__.7983
                0x0801782c       0x18 build\drivers\serial.o
 .rodata.__FUNCTION__.7947
                0x08017844       0x10 build\drivers\serial.o
 .rodata.MSG_DEV_ATTACHED
                0x08017854       0x14 build\drivers\usbh_usr.o
                0x08017854                MSG_DEV_ATTACHED
 .rodata.MSG_DEV_DISCONNECTED
                0x08017868       0x18 build\drivers\usbh_usr.o
                0x08017868                MSG_DEV_DISCONNECTED
 .rodata.MSG_DEV_ENUMERATED
                0x08017880       0x1c build\drivers\usbh_usr.o
                0x08017880                MSG_DEV_ENUMERATED
 .rodata.MSG_DEV_HIGHSPEED
                0x0801789c       0x20 build\drivers\usbh_usr.o
                0x0801789c                MSG_DEV_HIGHSPEED
 .rodata.MSG_DEV_FULLSPEED
                0x080178bc       0x20 build\drivers\usbh_usr.o
                0x080178bc                MSG_DEV_FULLSPEED
 .rodata.MSG_DEV_LOWSPEED
                0x080178dc       0x20 build\drivers\usbh_usr.o
                0x080178dc                MSG_DEV_LOWSPEED
 .rodata.MSG_DEV_ERROR
                0x080178fc       0x14 build\drivers\usbh_usr.o
                0x080178fc                MSG_DEV_ERROR
 .rodata.MSG_MSC_CLASS
                0x08017910       0x24 build\drivers\usbh_usr.o
                0x08017910                MSG_MSC_CLASS
 .rodata.MSG_HID_CLASS
                0x08017934       0x18 build\drivers\usbh_usr.o
                0x08017934                MSG_HID_CLASS
 .rodata.MSG_UNREC_ERROR
                0x0801794c       0x1c build\drivers\usbh_usr.o
                0x0801794c                MSG_UNREC_ERROR
 .rodata.__func__.9606
                0x08017968       0x20 build\drivers\usbh_usr.o
 .rodata.__func__.9595
                0x08017988       0x18 build\drivers\usbh_usr.o
 .rodata.__FUNCTION__.4765
                0x080179a0       0x1c build\src\device.o
 .rodata.__FUNCTION__.4740
                0x080179bc       0x10 build\src\device.o
 .rodata.__FUNCTION__.4724
                0x080179cc       0x10 build\src\device.o
 .rodata.__FUNCTION__.4708
                0x080179dc       0x10 build\src\device.o
 .rodata.__FUNCTION__.4697
                0x080179ec       0x10 build\src\device.o
 .rodata.__FUNCTION__.4705
                0x080179fc       0x18 build\src\idle.o
 .rodata.__FUNCTION__.4855
                0x08017a14       0x10 build\src\ipc.o
 .rodata.__FUNCTION__.4777
                0x08017a24        0xc build\src\ipc.o
 .rodata.__FUNCTION__.4733
                0x08017a30        0xc build\src\ipc.o
 .rodata.large_digits.4857
                0x08017a3c       0x14 build\src\kservice.o
 .rodata.small_digits.4856
                0x08017a50       0x14 build\src\kservice.o
 .rodata.__fsym_list_mem_name
                0x08017a64        0xc build\src\mem.o
                0x08017a64                __fsym_list_mem_name
 .rodata.__fsym_list_mem_desc
                0x08017a70       0x20 build\src\mem.o
                0x08017a70                __fsym_list_mem_desc
 .rodata.__FUNCTION__.4816
                0x08017a90        0x8 build\src\mem.o
 .rodata.__FUNCTION__.4757
                0x08017a98        0xc build\src\mem.o
 .rodata.__FUNCTION__.4744
                0x08017aa4       0x14 build\src\mem.o
 .rodata.__FUNCTION__.4724
                0x08017ab8        0xc build\src\mem.o
 .rodata.__FUNCTION__.4781
                0x08017ac4        0xc build\src\mempool.o
 .rodata.__FUNCTION__.4718
                0x08017ad0        0xc build\src\mempool.o
 .rodata.__FUNCTION__.4775
                0x08017adc       0x1c build\src\object.o
 .rodata.__FUNCTION__.4763
                0x08017af8       0x14 build\src\object.o
 .rodata.__FUNCTION__.4753
                0x08017b0c       0x14 build\src\object.o
 .rodata.__FUNCTION__.4741
                0x08017b20       0x14 build\src\object.o
 .rodata.rt_lowest_bitmap
                0x08017b34      0x100 build\src\scheduler.o
                0x08017b34                rt_lowest_bitmap
 .rodata.__FUNCTION__.4758
                0x08017c34       0x1c build\src\scheduler.o
 .rodata.__FUNCTION__.4749
                0x08017c50       0x1c build\src\scheduler.o
 .rodata.__FUNCTION__.4712
                0x08017c6c       0x1c build\src\scheduler.o
 .rodata.__FUNCTION__.4837
                0x08017c88       0x14 build\src\thread.o
 .rodata.__FUNCTION__.4828
                0x08017c9c       0x14 build\src\thread.o
 .rodata.__FUNCTION__.4819
                0x08017cb0       0x14 build\src\thread.o
 .rodata.__FUNCTION__.4805
                0x08017cc4       0x14 build\src\thread.o
 .rodata.__FUNCTION__.4791
                0x08017cd8       0x10 build\src\thread.o
 .rodata.__FUNCTION__.4776
                0x08017ce8       0x14 build\src\thread.o
 .rodata.__FUNCTION__.4743
                0x08017cfc       0x14 build\src\thread.o
 .rodata.__FUNCTION__.4728
                0x08017d10       0x10 build\src\thread.o
 .rodata.__FUNCTION__.4712
                0x08017d20       0x10 build\src\thread.o
 .rodata.__FUNCTION__.4790
                0x08017d30       0x14 build\src\timer.o
 .rodata.__FUNCTION__.4764
                0x08017d44       0x10 build\src\timer.o
 .rodata.__FUNCTION__.4734
                0x08017d54       0x10 build\src\timer.o
 .rodata.__FUNCTION__.4725
                0x08017d64       0x10 build\src\timer.o
 .rodata.__FUNCTION__.4954
                0x08017d74       0x14 build\components\dfs\src\dfs.o
 .rodata.__FUNCTION__.4924
                0x08017d88        0x8 build\components\dfs\src\dfs.o
 .rodata.__FUNCTION__.4900
                0x08017d90        0xc build\components\dfs\src\dfs.o
 .rodata.__fsym_mkfs_name
                0x08017d9c        0x8 build\components\dfs\src\dfs_fs.o
                0x08017d9c                __fsym_mkfs_name
 .rodata.__fsym_mkfs_desc
                0x08017da4       0x14 build\components\dfs\src\dfs_fs.o
                0x08017da4                __fsym_mkfs_desc
 .rodata.__fsym_df_name
                0x08017db8        0x4 build\components\dfs\src\dfs_fs.o
                0x08017db8                __fsym_df_name
 .rodata.__fsym_df_desc
                0x08017dbc       0x10 build\components\dfs\src\dfs_fs.o
                0x08017dbc                __fsym_df_desc
 .rodata.__fsym_ls_name
                0x08017dcc        0x4 build\components\dfs\src\dfs_file.o
                0x08017dcc                __fsym_ls_name
 .rodata.__fsym_ls_desc
                0x08017dd0       0x18 build\components\dfs\src\dfs_file.o
                0x08017dd0                __fsym_ls_desc
 .rodata.__fsym_rm_name
                0x08017de8        0x4 build\components\dfs\src\dfs_file.o
                0x08017de8                __fsym_rm_name
 .rodata.__fsym_rm_desc
                0x08017dec       0x1c build\components\dfs\src\dfs_file.o
                0x08017dec                __fsym_rm_desc
 .rodata.__fsym_cat_name
                0x08017e08        0x4 build\components\dfs\src\dfs_file.o
                0x08017e08                __fsym_cat_name
 .rodata.__fsym_cat_desc
                0x08017e0c        0xc build\components\dfs\src\dfs_file.o
                0x08017e0c                __fsym_cat_desc
 .rodata.__fsym_copy_name
                0x08017e18        0x8 build\components\dfs\src\dfs_file.o
                0x08017e18                __fsym_copy_name
 .rodata.__fsym_copy_desc
                0x08017e20       0x28 build\components\dfs\src\dfs_file.o
                0x08017e20                __fsym_copy_desc
 .rodata.__fsym_mkdir_name
                0x08017e48        0x8 build\components\dfs\src\dfs_posix.o
                0x08017e48                __fsym_mkdir_name
 .rodata.__fsym_mkdir_desc
                0x08017e50       0x14 build\components\dfs\src\dfs_posix.o
                0x08017e50                __fsym_mkdir_desc
 .rodata.__fsym_hello_name
                0x08017e64        0x8 build\components\finsh\cmd.o
                0x08017e64                __fsym_hello_name
 .rodata.__fsym_hello_desc
                0x08017e6c       0x10 build\components\finsh\cmd.o
                0x08017e6c                __fsym_hello_desc
 .rodata.__fsym_version_name
                0x08017e7c        0x8 build\components\finsh\cmd.o
                0x08017e7c                __fsym_version_name
 .rodata.__fsym_version_desc
                0x08017e84       0x24 build\components\finsh\cmd.o
                0x08017e84                __fsym_version_desc
 .rodata.__fsym_list_thread_name
                0x08017ea8        0xc build\components\finsh\cmd.o
                0x08017ea8                __fsym_list_thread_name
 .rodata.__fsym_list_thread_desc
                0x08017eb4        0xc build\components\finsh\cmd.o
                0x08017eb4                __fsym_list_thread_desc
 .rodata.__fsym_list_sem_name
                0x08017ec0        0xc build\components\finsh\cmd.o
                0x08017ec0                __fsym_list_sem_name
 .rodata.__fsym_list_sem_desc
                0x08017ecc       0x1c build\components\finsh\cmd.o
                0x08017ecc                __fsym_list_sem_desc
 .rodata.__fsym_list_event_name
                0x08017ee8        0xc build\components\finsh\cmd.o
                0x08017ee8                __fsym_list_event_name
 .rodata.__fsym_list_event_desc
                0x08017ef4       0x18 build\components\finsh\cmd.o
                0x08017ef4                __fsym_list_event_desc
 .rodata.__fsym_list_mutex_name
                0x08017f0c        0xc build\components\finsh\cmd.o
                0x08017f0c                __fsym_list_mutex_name
 .rodata.__fsym_list_mutex_desc
                0x08017f18       0x18 build\components\finsh\cmd.o
                0x08017f18                __fsym_list_mutex_desc
 .rodata.__fsym_list_mailbox_name
                0x08017f30       0x10 build\components\finsh\cmd.o
                0x08017f30                __fsym_list_mailbox_name
 .rodata.__fsym_list_mailbox_desc
                0x08017f40       0x18 build\components\finsh\cmd.o
                0x08017f40                __fsym_list_mailbox_desc
 .rodata.__fsym_list_msgqueue_name
                0x08017f58       0x10 build\components\finsh\cmd.o
                0x08017f58                __fsym_list_msgqueue_name
 .rodata.__fsym_list_msgqueue_desc
                0x08017f68       0x20 build\components\finsh\cmd.o
                0x08017f68                __fsym_list_msgqueue_desc
 .rodata.__fsym_list_mempool_name
                0x08017f88       0x10 build\components\finsh\cmd.o
                0x08017f88                __fsym_list_mempool_name
 .rodata.__fsym_list_mempool_desc
                0x08017f98       0x1c build\components\finsh\cmd.o
                0x08017f98                __fsym_list_mempool_desc
 .rodata.__fsym_list_timer_name
                0x08017fb4        0xc build\components\finsh\cmd.o
                0x08017fb4                __fsym_list_timer_name
 .rodata.__fsym_list_timer_desc
                0x08017fc0       0x18 build\components\finsh\cmd.o
                0x08017fc0                __fsym_list_timer_desc
 .rodata.__fsym_list_device_name
                0x08017fd8        0xc build\components\finsh\cmd.o
                0x08017fd8                __fsym_list_device_name
 .rodata.__fsym_list_device_desc
                0x08017fe4       0x18 build\components\finsh\cmd.o
                0x08017fe4                __fsym_list_device_desc
 .rodata.__fsym_list_name
                0x08017ffc        0x8 build\components\finsh\cmd.o
                0x08017ffc                __fsym_list_name
 .rodata.__fsym_list_desc
                0x08018004       0x1c build\components\finsh\cmd.o
                0x08018004                __fsym_list_desc
 .rodata.__vsym_dummy_name
                0x08018020        0x8 build\components\finsh\cmd.o
                0x08018020                __vsym_dummy_name
 .rodata.__vsym_dummy_desc
                0x08018028       0x1c build\components\finsh\cmd.o
                0x08018028                __vsym_dummy_desc
 .rodata.op_table
                0x08018044       0xc4 build\components\finsh\finsh_ops.o
                0x08018044                op_table
 .rodata.finsh_name_table
                0x08018108       0x40 build\components\finsh\finsh_token.o
 .rodata.__FUNCTION__.4934
                0x08018148       0x14 build\components\finsh\shell.o
 .rodata.__FUNCTION__.4925
                0x0801815c       0x10 build\components\finsh\shell.o
 *(.glue_7)
 .glue_7        0x00000000        0x0 linker stubs
 *(.glue_7t)
 .glue_7t       0x00000000        0x0 linker stubs
 *(.gnu.linkonce.t*)
                0x0801816c                . = ALIGN (0x4)
                0x0801816c                __fsymtab_start = .
 *(FSymTab)
 FSymTab        0x0801816c        0xc build\src\mem.o
                0x0801816c                __fsym_list_mem
 FSymTab        0x08018178       0x18 build\components\dfs\src\dfs_fs.o
                0x08018178                __fsym_mkfs
                0x08018184                __fsym_df
 FSymTab        0x08018190       0x30 build\components\dfs\src\dfs_file.o
                0x08018190                __fsym_ls
                0x0801819c                __fsym_rm
                0x080181a8                __fsym_cat
                0x080181b4                __fsym_copy
 FSymTab        0x080181c0        0xc build\components\dfs\src\dfs_posix.o
                0x080181c0                __fsym_mkdir
 FSymTab        0x080181cc       0x90 build\components\finsh\cmd.o
                0x080181cc                __fsym_hello
                0x080181d8                __fsym_version
                0x080181e4                __fsym_list_thread
                0x080181f0                __fsym_list_sem
                0x080181fc                __fsym_list_event
                0x08018208                __fsym_list_mutex
                0x08018214                __fsym_list_mailbox
                0x08018220                __fsym_list_msgqueue
                0x0801822c                __fsym_list_mempool
                0x08018238                __fsym_list_timer
                0x08018244                __fsym_list_device
                0x08018250                __fsym_list
                0x0801825c                __fsymtab_end = .
                0x0801825c                . = ALIGN (0x4)
                0x0801825c                __vsymtab_start = .
 *(VSymTab)
 VSymTab        0x0801825c       0x10 build\components\finsh\cmd.o
                0x0801825c                __vsym_dummy
                0x0801826c                __vsymtab_end = .
                0x0801826c                . = ALIGN (0x4)
                0x0801826c                . = ALIGN (0x4)
                0x0801826c                _etext = .
                0x0801826c                __exidx_start = .

.vfp11_veneer   0x0801826c        0x0
 .vfp11_veneer  0x00000000        0x0 linker stubs

.v4_bx          0x0801826c        0x0
 .v4_bx         0x00000000        0x0 linker stubs

.iplt           0x0801826c        0x0
 .iplt          0x00000000        0x0 d:/codesourcery/sourcery_codebench_lite_for_arm_eabi/bin/../lib/gcc/arm-none-eabi/4.6.3/thumb2/crtbegin.o

.rel.dyn        0x0801826c        0x0
 .rel.iplt      0x00000000        0x0 d:/codesourcery/sourcery_codebench_lite_for_arm_eabi/bin/../lib/gcc/arm-none-eabi/4.6.3/thumb2/crtbegin.o

.ARM.exidx      0x0801826c        0x0
 *(.ARM.exidx* .gnu.linkonce.armexidx.*)
                0x0801826c                _sidata = .
                0x0801826c                __exidx_end = .

.data           0x20000000      0x158 load address 0x0801826c
                0x20000000                . = ALIGN (0x4)
                0x20000000                _sdata = .
 *(.data)
 *(.data.*)
 .data.uart2    0x20000000        0xc build\drivers\usart.o
                0x20000000                uart2
 .data.USR_cb   0x2000000c       0x48 build\drivers\usbh_usr.o
                0x2000000c                USR_cb
 .data.APBAHBPrescTable
                0x20000054       0x10 build\STM32F4xx_Libraries\STM32F4xx_StdPeriph_Driver\src\stm32f4xx_rcc.o
 .data.USBH_HCD_INT_cb
                0x20000064        0xc build\STM32F4xx_Libraries\STM32_USB_HOST_Library\Core\src\usbh_core.o
                0x20000064                USBH_HCD_INT_cb
 .data.USBH_HCD_INT_fops
                0x20000070        0x4 build\STM32F4xx_Libraries\STM32_USB_HOST_Library\Core\src\usbh_core.o
                0x20000070                USBH_HCD_INT_fops
 .data.USBH_MSC_cb
                0x20000074       0x10 build\STM32F4xx_Libraries\STM32_USB_HOST_Library\Class\Msc\src\usbh_msc_core.o
                0x20000074                USBH_MSC_cb
 .data.rt_object_container
                0x20000084       0x90 build\src\object.o
                0x20000084                rt_object_container
 .data.rt_timer_list
                0x20000114        0x8 build\src\timer.o
 .data.finsh_error_string_table
                0x2000011c       0x3c build\components\finsh\finsh_error.o
 *(.gnu.linkonce.d*)
                0x20000158                . = ALIGN (0x4)
                0x20000158                _edata = .

.igot.plt       0x20000158        0x0 load address 0x080183c4
 .igot.plt      0x00000000        0x0 d:/codesourcery/sourcery_codebench_lite_for_arm_eabi/bin/../lib/gcc/arm-none-eabi/4.6.3/thumb2/crtbegin.o

.stack          0x20000158      0x100 load address 0x080183c4
                0x20000258                . = (. + _system_stack_size)
 *fill*         0x20000158      0x100 00
                0x20000258                . = ALIGN (0x4)
                0x20000258                _estack = .
                0x20000258                __bss_start = .

.bss            0x20000258     0x2bd0 load address 0x080184c8
                0x20000258                . = ALIGN (0x4)
                0x20000258                _sbss = .
 *(.bss)
 *(.bss.*)
 .bss.thread_led1_stack
                0x20000258      0x400 build\applications\application.o
 .bss.thread_usbmsc_stack
                0x20000658      0x400 build\applications\application.o
 .bss.BSP_delay
                0x20000a58        0x4 build\drivers\usb_bsp.o
                0x20000a58                BSP_delay
 .bss.USBH_USR_ApplicationState
                0x20000a5c        0x1 build\drivers\usbh_usr.o
                0x20000a5c                USBH_USR_ApplicationState
 .bss.startup.9582
                0x20000a5d        0x1 build\drivers\usbh_usr.o
 .bss.timeout.9207
                0x20000a5e        0x2 build\STM32F4xx_Libraries\STM32_USB_HOST_Library\Core\src\usbh_core.o
 .bss.prev_itf.9170
                0x20000a60        0x1 build\STM32F4xx_Libraries\STM32_USB_HOST_Library\Core\src\usbh_stdreq.o
 *fill*         0x20000a61        0x1 00
 .bss.prev_ep_size.9169
                0x20000a62        0x2 build\STM32F4xx_Libraries\STM32_USB_HOST_Library\Core\src\usbh_stdreq.o
 .bss.BOTStallErrorCount
                0x20000a64        0x4 build\STM32F4xx_Libraries\STM32_USB_HOST_Library\Class\Msc\src\usbh_msc_bot.o
 .bss.remainingDataLength.9256
                0x20000a68        0x4 build\STM32F4xx_Libraries\STM32_USB_HOST_Library\Class\Msc\src\usbh_msc_bot.o
 .bss.datapointer.9257
                0x20000a6c        0x4 build\STM32F4xx_Libraries\STM32_USB_HOST_Library\Class\Msc\src\usbh_msc_bot.o
 .bss.datapointer_prev.9258
                0x20000a70        0x4 build\STM32F4xx_Libraries\STM32_USB_HOST_Library\Class\Msc\src\usbh_msc_bot.o
 .bss.error_direction.9259
                0x20000a74        0x1 build\STM32F4xx_Libraries\STM32_USB_HOST_Library\Class\Msc\src\usbh_msc_bot.o
 .bss.MSCErrorCount
                0x20000a75        0x1 build\STM32F4xx_Libraries\STM32_USB_HOST_Library\Class\Msc\src\usbh_msc_core.o
                0x20000a75                MSCErrorCount
 .bss.maxLunExceed.9272
                0x20000a76        0x1 build\STM32F4xx_Libraries\STM32_USB_HOST_Library\Class\Msc\src\usbh_msc_core.o
 *fill*         0x20000a77        0x1 00
 .bss.rt_tick   0x20000a78        0x4 build\src\clock.o
 .bss.idle      0x20000a7c       0x80 build\src\idle.o
 *fill*         0x20000afc        0x4 00
 .bss.rt_thread_stack
                0x20000b00      0x400 build\src\idle.o
 .bss.rt_thread_idle_hook
                0x20000f00        0x4 build\src\idle.o
 .bss._errno    0x20000f04        0x4 build\src\kservice.o
 .bss._console_device
                0x20000f08        0x4 build\src\kservice.o
 .bss.rt_log_buf.4965
                0x20000f0c       0x80 build\src\kservice.o
 .bss.rt_malloc_hook
                0x20000f8c        0x4 build\src\mem.o
 .bss.rt_free_hook
                0x20000f90        0x4 build\src\mem.o
 .bss.heap_ptr  0x20000f94        0x4 build\src\mem.o
 .bss.heap_end  0x20000f98        0x4 build\src\mem.o
 .bss.lfree     0x20000f9c        0x4 build\src\mem.o
 .bss.heap_sem  0x20000fa0       0x20 build\src\mem.o
 .bss.mem_size_aligned
                0x20000fc0        0x4 build\src\mem.o
 .bss.used_mem  0x20000fc4        0x4 build\src\mem.o
 .bss.max_mem   0x20000fc8        0x4 build\src\mem.o
 .bss.rt_mp_alloc_hook
                0x20000fcc        0x4 build\src\mempool.o
 .bss.rt_object_attach_hook
                0x20000fd0        0x4 build\src\object.o
 .bss.rt_object_detach_hook
                0x20000fd4        0x4 build\src\object.o
 .bss.rt_scheduler_lock_nest
                0x20000fd8        0x2 build\src\scheduler.o
 *fill*         0x20000fda        0x2 00
 .bss.rt_scheduler_hook
                0x20000fdc        0x4 build\src\scheduler.o
 .bss.rt_timer_timeout_hook
                0x20000fe0        0x4 build\src\timer.o
 .bss.fslock    0x20000fe4       0x24 build\components\dfs\src\dfs.o
 .bss.fd        0x20001008       0x20 build\components\dfs\src\dfs_file.o
 .bss.dirent    0x20001028      0x104 build\components\dfs\src\dfs_file.o
 .bss.dummy     0x2000112c        0x4 build\components\finsh\cmd.o
 .bss.free_list
                0x20001130        0x4 build\components\finsh\finsh_heap.o
 .bss.allocate_list
                0x20001134        0x4 build\components\finsh\finsh_heap.o
 .bss.global_syscall_list
                0x20001138        0x4 build\components\finsh\finsh_vm.o
                0x20001138                global_syscall_list
 .bss.finsh_thread
                0x2000113c       0x80 build\components\finsh\shell.o
 *fill*         0x200011bc        0x4 00
 .bss.finsh_thread_stack
                0x200011c0      0x800 build\components\finsh\shell.o
 .bss._syscall_table_begin
                0x200019c0        0x4 build\components\finsh\symbol.o
                0x200019c0                _syscall_table_begin
 .bss._syscall_table_end
                0x200019c4        0x4 build\components\finsh\symbol.o
                0x200019c4                _syscall_table_end
 .bss._sysvar_table_begin
                0x200019c8        0x4 build\components\finsh\symbol.o
                0x200019c8                _sysvar_table_begin
 .bss._sysvar_table_end
                0x200019cc        0x4 build\components\finsh\symbol.o
                0x200019cc                _sysvar_table_end
 *(COMMON)
 COMMON         0x200019d0      0x730 build\applications\application.o
                0x200019d0                USB_OTG_Core
                0x20001f7c                thread_led1
                0x20001ffc                thread_usbmsc
                0x2000207c                USB_Host
 COMMON         0x20002100       0x88 build\drivers\usart.o
                0x20002100                uart2_device
                0x20002140                uart2_int_rx
 COMMON         0x20002188      0x200 build\STM32F4xx_Libraries\STM32_USB_HOST_Library\Core\src\usbh_stdreq.o
                0x20002188                USBH_CfgDesc
 COMMON         0x20002388       0x40 build\STM32F4xx_Libraries\STM32_USB_HOST_Library\Class\Msc\src\usbh_msc_bot.o
                0x20002388                USBH_MSC_CSWData
                0x20002398                USBH_MSC_BOTXferParam
                0x200023a8                USBH_MSC_CBWData
 COMMON         0x200023c8       0x54 build\STM32F4xx_Libraries\STM32_USB_HOST_Library\Class\Msc\src\usbh_msc_core.o
                0x200023c8                MSC_Machine
                0x20002414                MSC_Setup
 COMMON         0x2000241c      0x410 build\STM32F4xx_Libraries\STM32_USB_HOST_Library\Class\Msc\src\usbh_msc_scsi.o
                0x2000241c                USBH_DataInBuffer
                0x2000261c                USBH_MSC_Param
                0x2000262c                USBH_DataOutBuffer
 COMMON         0x2000282c        0x1 build\src\irq.o
                0x2000282c                rt_interrupt_nest
 *fill*         0x2000282d        0x3 00
 COMMON         0x20002830        0xc build\src\object.o
                0x20002830                rt_object_put_hook
                0x20002834                rt_object_take_hook
                0x20002838                rt_object_trytake_hook
 COMMON         0x2000283c      0x114 build\src\scheduler.o
                0x2000283c                rt_thread_priority_table
                0x2000293c                rt_current_priority
                0x20002940                rt_current_thread
                0x20002944                rt_thread_ready_priority_group
                0x20002948                rt_thread_defunct
 COMMON         0x20002950        0xc build\libcpu\arm\cortex-m4\cpuport.o
                0x20002950                rt_interrupt_to_thread
                0x20002954                rt_interrupt_from_thread
                0x20002958                rt_thread_switch_interrupt_flag
 COMMON         0x2000295c       0xb0 build\components\dfs\src\dfs.o
                0x2000295c                fd_table
                0x200029dc                filesystem_table
                0x200029fc                filesystem_operation_table
 COMMON         0x20002a0c        0x8 build\components\finsh\finsh_compiler.o
                0x20002a0c                finsh_compile_pc
                0x20002a10                finsh_compile_sp
 COMMON         0x20002a14        0x1 build\components\finsh\finsh_error.o
                0x20002a14                global_errno
 *fill*         0x20002a15        0x3 00
 COMMON         0x20002a18       0x80 build\components\finsh\finsh_heap.o
                0x20002a18                finsh_heap
 COMMON         0x20002a98      0x140 build\components\finsh\finsh_node.o
                0x20002a98                global_node_table
 COMMON         0x20002bd8       0xc4 build\components\finsh\finsh_var.o
                0x20002bd8                global_sysvar_list
                0x20002bdc                global_variable
 COMMON         0x20002c9c      0x188 build\components\finsh\finsh_vm.o
                0x20002c9c                text_segment
                0x20002d1c                finsh_vm_stack
                0x20002e1c                finsh_pc
                0x20002e20                finsh_sp
 COMMON         0x20002e24        0x4 build\components\finsh\shell.o
                0x20002e24                shell
                0x20002e28                . = ALIGN (0x4)
                0x20002e28                _ebss = .
 *(.bss.init)
                0x20002e28                __bss_end = .
                0x20002e28                _end = .

.stab
 *(.stab)

.stabstr
 *(.stabstr)

.stab.excl
 *(.stab.excl)

.stab.exclstr
 *(.stab.exclstr)

.stab.index
 *(.stab.index)

.stab.indexstr
 *(.stab.indexstr)

.comment        0x00000000       0x30
 *(.comment)
 .comment       0x00000000       0x30 build\applications\application.o
                                 0x31 (size before relaxing)
 .comment       0x00000000       0x31 build\applications\startup.o
 .comment       0x00000000       0x31 build\drivers\board.o
 .comment       0x00000000       0x31 build\drivers\serial.o
 .comment       0x00000000       0x31 build\drivers\stm32f4xx_it.o
 .comment       0x00000000       0x31 build\drivers\usart.o
 .comment       0x00000000       0x31 build\drivers\usb_bsp.o
 .comment       0x00000000       0x31 build\drivers\usbh_usr.o
 .comment       0x00000000       0x31 build\STM32F4xx_Libraries\CMSIS\ST\STM32F4xx\Source\Templates\system_stm32f4xx.o
 .comment       0x00000000       0x31 build\STM32F4xx_Libraries\STM32F4xx_StdPeriph_Driver\src\misc.o
 .comment       0x00000000       0x31 build\STM32F4xx_Libraries\STM32F4xx_StdPeriph_Driver\src\stm32f4xx_dma.o
 .comment       0x00000000       0x31 build\STM32F4xx_Libraries\STM32F4xx_StdPeriph_Driver\src\stm32f4xx_exti.o
 .comment       0x00000000       0x31 build\STM32F4xx_Libraries\STM32F4xx_StdPeriph_Driver\src\stm32f4xx_gpio.o
 .comment       0x00000000       0x31 build\STM32F4xx_Libraries\STM32F4xx_StdPeriph_Driver\src\stm32f4xx_rcc.o
 .comment       0x00000000       0x31 build\STM32F4xx_Libraries\STM32F4xx_StdPeriph_Driver\src\stm32f4xx_tim.o
 .comment       0x00000000       0x31 build\STM32F4xx_Libraries\STM32F4xx_StdPeriph_Driver\src\stm32f4xx_usart.o
 .comment       0x00000000       0x31 build\STM32F4xx_Libraries\STM32_USB_HOST_Library\Core\src\usbh_hcs.o
 .comment       0x00000000       0x31 build\STM32F4xx_Libraries\STM32_USB_HOST_Library\Core\src\usbh_ioreq.o
 .comment       0x00000000       0x31 build\STM32F4xx_Libraries\STM32_USB_HOST_Library\Core\src\usbh_core.o
 .comment       0x00000000       0x31 build\STM32F4xx_Libraries\STM32_USB_HOST_Library\Core\src\usbh_stdreq.o
 .comment       0x00000000       0x31 build\STM32F4xx_Libraries\STM32_USB_HOST_Library\Class\Msc\src\usbh_msc_bot.o
 .comment       0x00000000       0x31 build\STM32F4xx_Libraries\STM32_USB_HOST_Library\Class\Msc\src\usbh_msc_core.o
 .comment       0x00000000       0x31 build\STM32F4xx_Libraries\STM32_USB_HOST_Library\Class\Msc\src\usbh_msc_scsi.o
 .comment       0x00000000       0x31 build\STM32F4xx_Libraries\STM32_USB_OTG_Driver\src\usb_core.o
 .comment       0x00000000       0x31 build\STM32F4xx_Libraries\STM32_USB_OTG_Driver\src\usb_hcd.o
 .comment       0x00000000       0x31 build\STM32F4xx_Libraries\STM32_USB_OTG_Driver\src\usb_hcd_int.o
 .comment       0x00000000       0x31 build\src\clock.o
 .comment       0x00000000       0x31 build\src\device.o
 .comment       0x00000000       0x31 build\src\idle.o
 .comment       0x00000000       0x31 build\src\ipc.o
 .comment       0x00000000       0x31 build\src\irq.o
 .comment       0x00000000       0x31 build\src\kservice.o
 .comment       0x00000000       0x31 build\src\mem.o
 .comment       0x00000000       0x31 build\src\mempool.o
 .comment       0x00000000       0x31 build\src\object.o
 .comment       0x00000000       0x31 build\src\scheduler.o
 .comment       0x00000000       0x31 build\src\thread.o
 .comment       0x00000000       0x31 build\src\timer.o
 .comment       0x00000000       0x31 build\libcpu\arm\cortex-m4\cpuport.o
 .comment       0x00000000       0x31 build\components\dfs\src\dfs.o
 .comment       0x00000000       0x31 build\components\dfs\src\dfs_fs.o
 .comment       0x00000000       0x31 build\components\dfs\src\dfs_file.o
 .comment       0x00000000       0x31 build\components\dfs\src\dfs_posix.o
 .comment       0x00000000       0x31 build\components\finsh\cmd.o
 .comment       0x00000000       0x31 build\components\finsh\finsh_compiler.o
 .comment       0x00000000       0x31 build\components\finsh\finsh_error.o
 .comment       0x00000000       0x31 build\components\finsh\finsh_heap.o
 .comment       0x00000000       0x31 build\components\finsh\finsh_init.o
 .comment       0x00000000       0x31 build\components\finsh\finsh_node.o
 .comment       0x00000000       0x31 build\components\finsh\finsh_ops.o
 .comment       0x00000000       0x31 build\components\finsh\finsh_parser.o
 .comment       0x00000000       0x31 build\components\finsh\finsh_token.o
 .comment       0x00000000       0x31 build\components\finsh\finsh_var.o
 .comment       0x00000000       0x31 build\components\finsh\finsh_vm.o
 .comment       0x00000000       0x31 build\components\finsh\shell.o
 .comment       0x00000000       0x31 build\components\finsh\symbol.o
 .comment       0x00000000       0x31 build\components\libc\minilibc\ctype.o
 .comment       0x00000000       0x31 build\components\libc\minilibc\stdlib.o
 .comment       0x00000000       0x31 build\components\libc\minilibc\string.o

.ARM.attributes
                0x00000000       0x35
 .ARM.attributes
                0x00000000       0x39 build\applications\application.o
 .ARM.attributes
                0x00000039       0x39 build\applications\startup.o
 .ARM.attributes
                0x00000072       0x39 build\drivers\board.o
 .ARM.attributes
                0x000000ab       0x39 build\drivers\serial.o
 .ARM.attributes
                0x000000e4       0x39 build\drivers\stm32f4xx_it.o
 .ARM.attributes
                0x0000011d       0x39 build\drivers\usart.o
 .ARM.attributes
                0x00000156       0x39 build\drivers\usb_bsp.o
 .ARM.attributes
                0x0000018f       0x39 build\drivers\usbh_usr.o
 .ARM.attributes
                0x000001c8       0x39 build\STM32F4xx_Libraries\CMSIS\ST\STM32F4xx\Source\Templates\system_stm32f4xx.o
 .ARM.attributes
                0x00000201       0x39 build\STM32F4xx_Libraries\STM32F4xx_StdPeriph_Driver\src\misc.o
 .ARM.attributes
                0x0000023a       0x39 build\STM32F4xx_Libraries\STM32F4xx_StdPeriph_Driver\src\stm32f4xx_dma.o
 .ARM.attributes
                0x00000273       0x39 build\STM32F4xx_Libraries\STM32F4xx_StdPeriph_Driver\src\stm32f4xx_exti.o
 .ARM.attributes
                0x000002ac       0x39 build\STM32F4xx_Libraries\STM32F4xx_StdPeriph_Driver\src\stm32f4xx_gpio.o
 .ARM.attributes
                0x000002e5       0x39 build\STM32F4xx_Libraries\STM32F4xx_StdPeriph_Driver\src\stm32f4xx_rcc.o
 .ARM.attributes
                0x0000031e       0x39 build\STM32F4xx_Libraries\STM32F4xx_StdPeriph_Driver\src\stm32f4xx_tim.o
 .ARM.attributes
                0x00000357       0x39 build\STM32F4xx_Libraries\STM32F4xx_StdPeriph_Driver\src\stm32f4xx_usart.o
 .ARM.attributes
                0x00000390       0x39 build\STM32F4xx_Libraries\STM32_USB_HOST_Library\Core\src\usbh_hcs.o
 .ARM.attributes
                0x000003c9       0x39 build\STM32F4xx_Libraries\STM32_USB_HOST_Library\Core\src\usbh_ioreq.o
 .ARM.attributes
                0x00000402       0x39 build\STM32F4xx_Libraries\STM32_USB_HOST_Library\Core\src\usbh_core.o
 .ARM.attributes
                0x0000043b       0x39 build\STM32F4xx_Libraries\STM32_USB_HOST_Library\Core\src\usbh_stdreq.o
 .ARM.attributes
                0x00000474       0x39 build\STM32F4xx_Libraries\STM32_USB_HOST_Library\Class\Msc\src\usbh_msc_bot.o
 .ARM.attributes
                0x000004ad       0x39 build\STM32F4xx_Libraries\STM32_USB_HOST_Library\Class\Msc\src\usbh_msc_core.o
 .ARM.attributes
                0x000004e6       0x39 build\STM32F4xx_Libraries\STM32_USB_HOST_Library\Class\Msc\src\usbh_msc_scsi.o
 .ARM.attributes
                0x0000051f       0x39 build\STM32F4xx_Libraries\STM32_USB_OTG_Driver\src\usb_core.o
 .ARM.attributes
                0x00000558       0x39 build\STM32F4xx_Libraries\STM32_USB_OTG_Driver\src\usb_hcd.o
 .ARM.attributes
                0x00000591       0x39 build\STM32F4xx_Libraries\STM32_USB_OTG_Driver\src\usb_hcd_int.o
 .ARM.attributes
                0x000005ca       0x21 build\STM32F4xx_Libraries\CMSIS\ST\STM32F4xx\Source\Templates\gcc_ride7\startup_stm32f4xx.o
 .ARM.attributes
                0x000005eb       0x39 build\src\clock.o
 .ARM.attributes
                0x00000624       0x39 build\src\device.o
 .ARM.attributes
                0x0000065d       0x39 build\src\idle.o
 .ARM.attributes
                0x00000696       0x39 build\src\ipc.o
 .ARM.attributes
                0x000006cf       0x39 build\src\irq.o
 .ARM.attributes
                0x00000708       0x39 build\src\kservice.o
 .ARM.attributes
                0x00000741       0x39 build\src\mem.o
 .ARM.attributes
                0x0000077a       0x39 build\src\mempool.o
 .ARM.attributes
                0x000007b3       0x39 build\src\object.o
 .ARM.attributes
                0x000007ec       0x39 build\src\scheduler.o
 .ARM.attributes
                0x00000825       0x39 build\src\thread.o
 .ARM.attributes
                0x0000085e       0x39 build\src\timer.o
 .ARM.attributes
                0x00000897       0x39 build\libcpu\arm\cortex-m4\cpuport.o
 .ARM.attributes
                0x000008d0       0x27 build\libcpu\arm\cortex-m4\context_gcc.o
 .ARM.attributes
                0x000008f7       0x39 build\components\dfs\src\dfs.o
 .ARM.attributes
                0x00000930       0x39 build\components\dfs\src\dfs_fs.o
 .ARM.attributes
                0x00000969       0x39 build\components\dfs\src\dfs_file.o
 .ARM.attributes
                0x000009a2       0x39 build\components\dfs\src\dfs_posix.o
 .ARM.attributes
                0x000009db       0x39 build\components\finsh\cmd.o
 .ARM.attributes
                0x00000a14       0x39 build\components\finsh\finsh_compiler.o
 .ARM.attributes
                0x00000a4d       0x39 build\components\finsh\finsh_error.o
 .ARM.attributes
                0x00000a86       0x39 build\components\finsh\finsh_heap.o
 .ARM.attributes
                0x00000abf       0x39 build\components\finsh\finsh_init.o
 .ARM.attributes
                0x00000af8       0x39 build\components\finsh\finsh_node.o
 .ARM.attributes
                0x00000b31       0x39 build\components\finsh\finsh_ops.o
 .ARM.attributes
                0x00000b6a       0x39 build\components\finsh\finsh_parser.o
 .ARM.attributes
                0x00000ba3       0x39 build\components\finsh\finsh_token.o
 .ARM.attributes
                0x00000bdc       0x39 build\components\finsh\finsh_var.o
 .ARM.attributes
                0x00000c15       0x39 build\components\finsh\finsh_vm.o
 .ARM.attributes
                0x00000c4e       0x39 build\components\finsh\shell.o
 .ARM.attributes
                0x00000c87       0x39 build\components\finsh\symbol.o
 .ARM.attributes
                0x00000cc0       0x39 build\components\libc\minilibc\ctype.o
 .ARM.attributes
                0x00000cf9       0x39 build\components\libc\minilibc\stdlib.o
 .ARM.attributes
                0x00000d32       0x39 build\components\libc\minilibc\string.o

.debug
 *(.debug)

.line
 *(.line)

.debug_srcinfo
 *(.debug_srcinfo)

.debug_sfnames
 *(.debug_sfnames)

.debug_aranges  0x00000000     0x1f90
 *(.debug_aranges)
 .debug_aranges
                0x00000000       0x38 build\applications\application.o
 .debug_aranges
                0x00000038       0x30 build\applications\startup.o
 .debug_aranges
                0x00000068       0x48 build\drivers\board.o
 .debug_aranges
                0x000000b0       0x68 build\drivers\serial.o
 .debug_aranges
                0x00000118       0x60 build\drivers\stm32f4xx_it.o
 .debug_aranges
                0x00000178       0x40 build\drivers\usart.o
 .debug_aranges
                0x000001b8       0x80 build\drivers\usb_bsp.o
 .debug_aranges
                0x00000238       0xc8 build\drivers\usbh_usr.o
 .debug_aranges
                0x00000300       0x30 build\STM32F4xx_Libraries\CMSIS\ST\STM32F4xx\Source\Templates\system_stm32f4xx.o
 .debug_aranges
                0x00000330       0x40 build\STM32F4xx_Libraries\STM32F4xx_StdPeriph_Driver\src\misc.o
 .debug_aranges
                0x00000370       0xb0 build\STM32F4xx_Libraries\STM32F4xx_StdPeriph_Driver\src\stm32f4xx_dma.o
 .debug_aranges
                0x00000420       0x58 build\STM32F4xx_Libraries\STM32F4xx_StdPeriph_Driver\src\stm32f4xx_exti.o
 .debug_aranges
                0x00000478       0x88 build\STM32F4xx_Libraries\STM32F4xx_StdPeriph_Driver\src\stm32f4xx_gpio.o
 .debug_aranges
                0x00000500      0x178 build\STM32F4xx_Libraries\STM32F4xx_StdPeriph_Driver\src\stm32f4xx_rcc.o
 .debug_aranges
                0x00000678      0x2f8 build\STM32F4xx_Libraries\STM32F4xx_StdPeriph_Driver\src\stm32f4xx_tim.o
 .debug_aranges
                0x00000970      0x100 build\STM32F4xx_Libraries\STM32F4xx_StdPeriph_Driver\src\stm32f4xx_usart.o
 .debug_aranges
                0x00000a70       0x48 build\STM32F4xx_Libraries\STM32_USB_HOST_Library\Core\src\usbh_hcs.o
 .debug_aranges
                0x00000ab8       0x70 build\STM32F4xx_Libraries\STM32_USB_HOST_Library\Core\src\usbh_ioreq.o
 .debug_aranges
                0x00000b28       0x60 build\STM32F4xx_Libraries\STM32_USB_HOST_Library\Core\src\usbh_core.o
 .debug_aranges
                0x00000b88       0x88 build\STM32F4xx_Libraries\STM32_USB_HOST_Library\Core\src\usbh_stdreq.o
 .debug_aranges
                0x00000c10       0x38 build\STM32F4xx_Libraries\STM32_USB_HOST_Library\Class\Msc\src\usbh_msc_bot.o
 .debug_aranges
                0x00000c48       0x50 build\STM32F4xx_Libraries\STM32_USB_HOST_Library\Class\Msc\src\usbh_msc_core.o
 .debug_aranges
                0x00000c98       0x48 build\STM32F4xx_Libraries\STM32_USB_HOST_Library\Class\Msc\src\usbh_msc_scsi.o
 .debug_aranges
                0x00000ce0      0x100 build\STM32F4xx_Libraries\STM32_USB_OTG_Driver\src\usb_core.o
 .debug_aranges
                0x00000de0       0x68 build\STM32F4xx_Libraries\STM32_USB_OTG_Driver\src\usb_hcd.o
 .debug_aranges
                0x00000e48       0x70 build\STM32F4xx_Libraries\STM32_USB_OTG_Driver\src\usb_hcd_int.o
 .debug_aranges
                0x00000eb8       0x28 build\STM32F4xx_Libraries\CMSIS\ST\STM32F4xx\Source\Templates\gcc_ride7\startup_stm32f4xx.o
 .debug_aranges
                0x00000ee0       0x40 build\src\clock.o
 .debug_aranges
                0x00000f20       0x78 build\src\device.o
 .debug_aranges
                0x00000f98       0x48 build\src\idle.o
 .debug_aranges
                0x00000fe0      0x180 build\src\ipc.o
 .debug_aranges
                0x00001160       0x30 build\src\irq.o
 .debug_aranges
                0x00001190       0xf8 build\src\kservice.o
 .debug_aranges
                0x00001288       0x68 build\src\mem.o
 .debug_aranges
                0x000012f0       0x70 build\src\mempool.o
 .debug_aranges
                0x00001360       0x90 build\src\object.o
 .debug_aranges
                0x000013f0       0x80 build\src\scheduler.o
 .debug_aranges
                0x00001470       0xb8 build\src\thread.o
 .debug_aranges
                0x00001528       0xa8 build\src\timer.o
 .debug_aranges
                0x000015d0       0x30 build\libcpu\arm\cortex-m4\cpuport.o
 .debug_aranges
                0x00001600       0x20 build\libcpu\arm\cortex-m4\context_gcc.o
 .debug_aranges
                0x00001620       0x60 build\components\dfs\src\dfs.o
 .debug_aranges
                0x00001680       0x60 build\components\dfs\src\dfs_fs.o
 .debug_aranges
                0x000016e0       0x90 build\components\dfs\src\dfs_file.o
 .debug_aranges
                0x00001770       0xb0 build\components\dfs\src\dfs_posix.o
 .debug_aranges
                0x00001820       0xf0 build\components\finsh\cmd.o
 .debug_aranges
                0x00001910       0x30 build\components\finsh\finsh_compiler.o
 .debug_aranges
                0x00001940       0x38 build\components\finsh\finsh_error.o
 .debug_aranges
                0x00001978       0x58 build\components\finsh\finsh_heap.o
 .debug_aranges
                0x000019d0       0x38 build\components\finsh\finsh_init.o
 .debug_aranges
                0x00001a08       0x58 build\components\finsh\finsh_node.o
 .debug_aranges
                0x00001a60      0x198 build\components\finsh\finsh_ops.o
 .debug_aranges
                0x00001bf8       0xb8 build\components\finsh\finsh_parser.o
 .debug_aranges
                0x00001cb0       0x88 build\components\finsh\finsh_token.o
 .debug_aranges
                0x00001d38       0x48 build\components\finsh\finsh_var.o
 .debug_aranges
                0x00001d80       0x30 build\components\finsh\finsh_vm.o
 .debug_aranges
                0x00001db0       0x80 build\components\finsh\shell.o
 .debug_aranges
                0x00001e30       0x38 build\components\libc\minilibc\ctype.o
 .debug_aranges
                0x00001e68       0x48 build\components\libc\minilibc\stdlib.o
 .debug_aranges
                0x00001eb0       0xe0 build\components\libc\minilibc\string.o

.debug_pubnames
 *(.debug_pubnames)

.debug_info     0x00000000    0x2ccbb
 *(.debug_info .gnu.linkonce.wi.*)
 .debug_info    0x00000000     0x1926 build\applications\application.o
 .debug_info    0x00001926      0x15a build\applications\startup.o
 .debug_info    0x00001a80      0x79c build\drivers\board.o
 .debug_info    0x0000221c      0xce9 build\drivers\serial.o
 .debug_info    0x00002f05      0x4a2 build\drivers\stm32f4xx_it.o
 .debug_info    0x000033a7      0xcde build\drivers\usart.o
 .debug_info    0x00004085     0x1cbd build\drivers\usb_bsp.o
 .debug_info    0x00005d42     0x1c3a build\drivers\usbh_usr.o
 .debug_info    0x0000797c      0x622 build\STM32F4xx_Libraries\CMSIS\ST\STM32F4xx\Source\Templates\system_stm32f4xx.o
 .debug_info    0x00007f9e      0x5b2 build\STM32F4xx_Libraries\STM32F4xx_StdPeriph_Driver\src\misc.o
 .debug_info    0x00008550      0x7d7 build\STM32F4xx_Libraries\STM32F4xx_StdPeriph_Driver\src\stm32f4xx_dma.o
 .debug_info    0x00008d27      0x3b1 build\STM32F4xx_Libraries\STM32F4xx_StdPeriph_Driver\src\stm32f4xx_exti.o
 .debug_info    0x000090d8      0x665 build\STM32F4xx_Libraries\STM32F4xx_StdPeriph_Driver\src\stm32f4xx_gpio.o
 .debug_info    0x0000973d      0xd4d build\STM32F4xx_Libraries\STM32F4xx_StdPeriph_Driver\src\stm32f4xx_rcc.o
 .debug_info    0x0000a48a     0x1e51 build\STM32F4xx_Libraries\STM32F4xx_StdPeriph_Driver\src\stm32f4xx_tim.o
 .debug_info    0x0000c2db      0xa78 build\STM32F4xx_Libraries\STM32F4xx_StdPeriph_Driver\src\stm32f4xx_usart.o
 .debug_info    0x0000cd53      0xbba build\STM32F4xx_Libraries\STM32_USB_HOST_Library\Core\src\usbh_hcs.o
 .debug_info    0x0000d90d     0x1704 build\STM32F4xx_Libraries\STM32_USB_HOST_Library\Core\src\usbh_ioreq.o
 .debug_info    0x0000f011     0x166f build\STM32F4xx_Libraries\STM32_USB_HOST_Library\Core\src\usbh_core.o
 .debug_info    0x00010680     0x1925 build\STM32F4xx_Libraries\STM32_USB_HOST_Library\Core\src\usbh_stdreq.o
 .debug_info    0x00011fa5     0x17ed build\STM32F4xx_Libraries\STM32_USB_HOST_Library\Class\Msc\src\usbh_msc_bot.o
 .debug_info    0x00013792     0x174f build\STM32F4xx_Libraries\STM32_USB_HOST_Library\Class\Msc\src\usbh_msc_core.o
 .debug_info    0x00014ee1      0xf28 build\STM32F4xx_Libraries\STM32_USB_HOST_Library\Class\Msc\src\usbh_msc_scsi.o
 .debug_info    0x00015e09     0x216f build\STM32F4xx_Libraries\STM32_USB_OTG_Driver\src\usb_core.o
 .debug_info    0x00017f78      0xd3c build\STM32F4xx_Libraries\STM32_USB_OTG_Driver\src\usb_hcd.o
 .debug_info    0x00018cb4     0x1f43 build\STM32F4xx_Libraries\STM32_USB_OTG_Driver\src\usb_hcd_int.o
 .debug_info    0x0001abf7       0xae build\STM32F4xx_Libraries\CMSIS\ST\STM32F4xx\Source\Templates\gcc_ride7\startup_stm32f4xx.o
 .debug_info    0x0001aca5      0x3f8 build\src\clock.o
 .debug_info    0x0001b09d      0xa08 build\src\device.o
 .debug_info    0x0001baa5      0x508 build\src\idle.o
 .debug_info    0x0001bfad     0x1e5f build\src\ipc.o
 .debug_info    0x0001de0c       0xff build\src\irq.o
 .debug_info    0x0001df0b     0x1048 build\src\kservice.o
 .debug_info    0x0001ef53      0x923 build\src\mem.o
 .debug_info    0x0001f876      0x92f build\src\mempool.o
 .debug_info    0x000201a5      0x71b build\src\object.o
 .debug_info    0x000208c0      0x77f build\src\scheduler.o
 .debug_info    0x0002103f      0xc29 build\src\thread.o
 .debug_info    0x00021c68      0x833 build\src\timer.o
 .debug_info    0x0002249b      0x760 build\libcpu\arm\cortex-m4\cpuport.o
 .debug_info    0x00022bfb       0xa0 build\libcpu\arm\cortex-m4\context_gcc.o
 .debug_info    0x00022c9b      0xdeb build\components\dfs\src\dfs.o
 .debug_info    0x00023a86      0xddd build\components\dfs\src\dfs_fs.o
 .debug_info    0x00024863      0xf36 build\components\dfs\src\dfs_file.o
 .debug_info    0x00025799      0xf09 build\components\dfs\src\dfs_posix.o
 .debug_info    0x000266a2     0x1552 build\components\finsh\cmd.o
 .debug_info    0x00027bf4      0x589 build\components\finsh\finsh_compiler.o
 .debug_info    0x0002817d      0x147 build\components\finsh\finsh_error.o
 .debug_info    0x000282c4      0x41c build\components\finsh\finsh_heap.o
 .debug_info    0x000286e0      0x497 build\components\finsh\finsh_init.o
 .debug_info    0x00028b77      0x495 build\components\finsh\finsh_node.o
 .debug_info    0x0002900c      0x5fe build\components\finsh\finsh_ops.o
 .debug_info    0x0002960a      0xbee build\components\finsh\finsh_parser.o
 .debug_info    0x0002a1f8      0x6df build\components\finsh\finsh_token.o
 .debug_info    0x0002a8d7      0x3c0 build\components\finsh\finsh_var.o
 .debug_info    0x0002ac97      0x2d5 build\components\finsh\finsh_vm.o
 .debug_info    0x0002af6c      0xe64 build\components\finsh\shell.o
 .debug_info    0x0002bdd0      0x174 build\components\finsh\symbol.o
 .debug_info    0x0002bf44      0x111 build\components\libc\minilibc\ctype.o
 .debug_info    0x0002c055      0x1e3 build\components\libc\minilibc\stdlib.o
 .debug_info    0x0002c238      0xa83 build\components\libc\minilibc\string.o

.debug_abbrev   0x00000000     0x64f7
 *(.debug_abbrev)
 .debug_abbrev  0x00000000      0x23a build\applications\application.o
 .debug_abbrev  0x0000023a       0xca build\applications\startup.o
 .debug_abbrev  0x00000304      0x162 build\drivers\board.o
 .debug_abbrev  0x00000466      0x221 build\drivers\serial.o
 .debug_abbrev  0x00000687      0x139 build\drivers\stm32f4xx_it.o
 .debug_abbrev  0x000007c0      0x1bc build\drivers\usart.o
 .debug_abbrev  0x0000097c      0x27a build\drivers\usb_bsp.o
 .debug_abbrev  0x00000bf6      0x2a9 build\drivers\usbh_usr.o
 .debug_abbrev  0x00000e9f      0x131 build\STM32F4xx_Libraries\CMSIS\ST\STM32F4xx\Source\Templates\system_stm32f4xx.o
 .debug_abbrev  0x00000fd0      0x128 build\STM32F4xx_Libraries\STM32F4xx_StdPeriph_Driver\src\misc.o
 .debug_abbrev  0x000010f8      0x150 build\STM32F4xx_Libraries\STM32F4xx_StdPeriph_Driver\src\stm32f4xx_dma.o
 .debug_abbrev  0x00001248      0x19a build\STM32F4xx_Libraries\STM32F4xx_StdPeriph_Driver\src\stm32f4xx_exti.o
 .debug_abbrev  0x000013e2      0x184 build\STM32F4xx_Libraries\STM32F4xx_StdPeriph_Driver\src\stm32f4xx_gpio.o
 .debug_abbrev  0x00001566      0x1b9 build\STM32F4xx_Libraries\STM32F4xx_StdPeriph_Driver\src\stm32f4xx_rcc.o
 .debug_abbrev  0x0000171f      0x165 build\STM32F4xx_Libraries\STM32F4xx_StdPeriph_Driver\src\stm32f4xx_tim.o
 .debug_abbrev  0x00001884      0x150 build\STM32F4xx_Libraries\STM32F4xx_StdPeriph_Driver\src\stm32f4xx_usart.o
 .debug_abbrev  0x000019d4      0x16d build\STM32F4xx_Libraries\STM32_USB_HOST_Library\Core\src\usbh_hcs.o
 .debug_abbrev  0x00001b41      0x1f0 build\STM32F4xx_Libraries\STM32_USB_HOST_Library\Core\src\usbh_ioreq.o
 .debug_abbrev  0x00001d31      0x23e build\STM32F4xx_Libraries\STM32_USB_HOST_Library\Core\src\usbh_core.o
 .debug_abbrev  0x00001f6f      0x239 build\STM32F4xx_Libraries\STM32_USB_HOST_Library\Core\src\usbh_stdreq.o
 .debug_abbrev  0x000021a8      0x215 build\STM32F4xx_Libraries\STM32_USB_HOST_Library\Class\Msc\src\usbh_msc_bot.o
 .debug_abbrev  0x000023bd      0x232 build\STM32F4xx_Libraries\STM32_USB_HOST_Library\Class\Msc\src\usbh_msc_core.o
 .debug_abbrev  0x000025ef      0x1ad build\STM32F4xx_Libraries\STM32_USB_HOST_Library\Class\Msc\src\usbh_msc_scsi.o
 .debug_abbrev  0x0000279c      0x251 build\STM32F4xx_Libraries\STM32_USB_OTG_Driver\src\usb_core.o
 .debug_abbrev  0x000029ed      0x185 build\STM32F4xx_Libraries\STM32_USB_OTG_Driver\src\usb_hcd.o
 .debug_abbrev  0x00002b72      0x23b build\STM32F4xx_Libraries\STM32_USB_OTG_Driver\src\usb_hcd_int.o
 .debug_abbrev  0x00002dad       0x12 build\STM32F4xx_Libraries\CMSIS\ST\STM32F4xx\Source\Templates\gcc_ride7\startup_stm32f4xx.o
 .debug_abbrev  0x00002dbf      0x13f build\src\clock.o
 .debug_abbrev  0x00002efe      0x1a8 build\src\device.o
 .debug_abbrev  0x000030a6      0x192 build\src\idle.o
 .debug_abbrev  0x00003238      0x1f1 build\src\ipc.o
 .debug_abbrev  0x00003429       0x8e build\src\irq.o
 .debug_abbrev  0x000034b7      0x23c build\src\kservice.o
 .debug_abbrev  0x000036f3      0x1e8 build\src\mem.o
 .debug_abbrev  0x000038db      0x20e build\src\mempool.o
 .debug_abbrev  0x00003ae9      0x1de build\src\object.o
 .debug_abbrev  0x00003cc7      0x1bf build\src\scheduler.o
 .debug_abbrev  0x00003e86      0x217 build\src\thread.o
 .debug_abbrev  0x0000409d      0x23c build\src\timer.o
 .debug_abbrev  0x000042d9      0x18a build\libcpu\arm\cortex-m4\cpuport.o
 .debug_abbrev  0x00004463       0x14 build\libcpu\arm\cortex-m4\context_gcc.o
 .debug_abbrev  0x00004477      0x231 build\components\dfs\src\dfs.o
 .debug_abbrev  0x000046a8      0x24e build\components\dfs\src\dfs_fs.o
 .debug_abbrev  0x000048f6      0x20b build\components\dfs\src\dfs_file.o
 .debug_abbrev  0x00004b01      0x20a build\components\dfs\src\dfs_posix.o
 .debug_abbrev  0x00004d0b      0x283 build\components\finsh\cmd.o
 .debug_abbrev  0x00004f8e      0x226 build\components\finsh\finsh_compiler.o
 .debug_abbrev  0x000051b4       0xba build\components\finsh\finsh_error.o
 .debug_abbrev  0x0000526e      0x177 build\components\finsh\finsh_heap.o
 .debug_abbrev  0x000053e5      0x177 build\components\finsh\finsh_init.o
 .debug_abbrev  0x0000555c      0x195 build\components\finsh\finsh_node.o
 .debug_abbrev  0x000056f1      0x128 build\components\finsh\finsh_ops.o
 .debug_abbrev  0x00005819      0x225 build\components\finsh\finsh_parser.o
 .debug_abbrev  0x00005a3e      0x206 build\components\finsh\finsh_token.o
 .debug_abbrev  0x00005c44      0x164 build\components\finsh\finsh_var.o
 .debug_abbrev  0x00005da8      0x142 build\components\finsh\finsh_vm.o
 .debug_abbrev  0x00005eea      0x2cc build\components\finsh\shell.o
 .debug_abbrev  0x000061b6       0x9a build\components\finsh\symbol.o
 .debug_abbrev  0x00006250       0x6b build\components\libc\minilibc\ctype.o
 .debug_abbrev  0x000062bb       0xd3 build\components\libc\minilibc\stdlib.o
 .debug_abbrev  0x0000638e      0x169 build\components\libc\minilibc\string.o

.debug_line     0x00000000     0xef8b
 *(.debug_line)
 .debug_line    0x00000000      0x312 build\applications\application.o
 .debug_line    0x00000312      0x169 build\applications\startup.o
 .debug_line    0x0000047b      0x1e9 build\drivers\board.o
 .debug_line    0x00000664      0x34a build\drivers\serial.o
 .debug_line    0x000009ae      0x18c build\drivers\stm32f4xx_it.o
 .debug_line    0x00000b3a      0x20d build\drivers\usart.o
 .debug_line    0x00000d47      0x352 build\drivers\usb_bsp.o
 .debug_line    0x00001099      0x418 build\drivers\usbh_usr.o
 .debug_line    0x000014b1      0x1d5 build\STM32F4xx_Libraries\CMSIS\ST\STM32F4xx\Source\Templates\system_stm32f4xx.o
 .debug_line    0x00001686      0x265 build\STM32F4xx_Libraries\STM32F4xx_StdPeriph_Driver\src\misc.o
 .debug_line    0x000018eb      0xc80 build\STM32F4xx_Libraries\STM32F4xx_StdPeriph_Driver\src\stm32f4xx_dma.o
 .debug_line    0x0000256b      0x397 build\STM32F4xx_Libraries\STM32F4xx_StdPeriph_Driver\src\stm32f4xx_exti.o
 .debug_line    0x00002902      0x7d0 build\STM32F4xx_Libraries\STM32F4xx_StdPeriph_Driver\src\stm32f4xx_gpio.o
 .debug_line    0x000030d2      0x9cf build\STM32F4xx_Libraries\STM32F4xx_StdPeriph_Driver\src\stm32f4xx_rcc.o
 .debug_line    0x00003aa1     0x221b build\STM32F4xx_Libraries\STM32F4xx_StdPeriph_Driver\src\stm32f4xx_tim.o
 .debug_line    0x00005cbc      0xa50 build\STM32F4xx_Libraries\STM32F4xx_StdPeriph_Driver\src\stm32f4xx_usart.o
 .debug_line    0x0000670c      0x247 build\STM32F4xx_Libraries\STM32_USB_HOST_Library\Core\src\usbh_hcs.o
 .debug_line    0x00006953      0x2c7 build\STM32F4xx_Libraries\STM32_USB_HOST_Library\Core\src\usbh_ioreq.o
 .debug_line    0x00006c1a      0x3f9 build\STM32F4xx_Libraries\STM32_USB_HOST_Library\Core\src\usbh_core.o
 .debug_line    0x00007013      0x395 build\STM32F4xx_Libraries\STM32_USB_HOST_Library\Core\src\usbh_stdreq.o
 .debug_line    0x000073a8      0x366 build\STM32F4xx_Libraries\STM32_USB_HOST_Library\Class\Msc\src\usbh_msc_bot.o
 .debug_line    0x0000770e      0x340 build\STM32F4xx_Libraries\STM32_USB_HOST_Library\Class\Msc\src\usbh_msc_core.o
 .debug_line    0x00007a4e      0x397 build\STM32F4xx_Libraries\STM32_USB_HOST_Library\Class\Msc\src\usbh_msc_scsi.o
 .debug_line    0x00007de5      0x5b8 build\STM32F4xx_Libraries\STM32_USB_OTG_Driver\src\usb_core.o
 .debug_line    0x0000839d      0x238 build\STM32F4xx_Libraries\STM32_USB_OTG_Driver\src\usb_hcd.o
 .debug_line    0x000085d5      0x3d6 build\STM32F4xx_Libraries\STM32_USB_OTG_Driver\src\usb_hcd_int.o
 .debug_line    0x000089ab       0xb1 build\STM32F4xx_Libraries\CMSIS\ST\STM32F4xx\Source\Templates\gcc_ride7\startup_stm32f4xx.o
 .debug_line    0x00008a5c       0xe0 build\src\clock.o
 .debug_line    0x00008b3c      0x250 build\src\device.o
 .debug_line    0x00008d8c      0x136 build\src\idle.o
 .debug_line    0x00008ec2      0xaa8 build\src\ipc.o
 .debug_line    0x0000996a       0xb7 build\src\irq.o
 .debug_line    0x00009a21      0x5b1 build\src\kservice.o
 .debug_line    0x00009fd2      0x383 build\src\mem.o
 .debug_line    0x0000a355      0x296 build\src\mempool.o
 .debug_line    0x0000a5eb      0x27a build\src\object.o
 .debug_line    0x0000a865      0x238 build\src\scheduler.o
 .debug_line    0x0000aa9d      0x36a build\src\thread.o
 .debug_line    0x0000ae07      0x2cf build\src\timer.o
 .debug_line    0x0000b0d6       0xfd build\libcpu\arm\cortex-m4\cpuport.o
 .debug_line    0x0000b1d3       0xc9 build\libcpu\arm\cortex-m4\context_gcc.o
 .debug_line    0x0000b29c      0x2a2 build\components\dfs\src\dfs.o
 .debug_line    0x0000b53e      0x30a build\components\dfs\src\dfs_fs.o
 .debug_line    0x0000b848      0x318 build\components\dfs\src\dfs_file.o
 .debug_line    0x0000bb60      0x385 build\components\dfs\src\dfs_posix.o
 .debug_line    0x0000bee5      0x57a build\components\finsh\cmd.o
 .debug_line    0x0000c45f      0x5a8 build\components\finsh\finsh_compiler.o
 .debug_line    0x0000ca07      0x123 build\components\finsh\finsh_error.o
 .debug_line    0x0000cb2a      0x270 build\components\finsh\finsh_heap.o
 .debug_line    0x0000cd9a      0x187 build\components\finsh\finsh_init.o
 .debug_line    0x0000cf21      0x206 build\components\finsh\finsh_node.o
 .debug_line    0x0000d127      0x529 build\components\finsh\finsh_ops.o
 .debug_line    0x0000d650      0x52f build\components\finsh\finsh_parser.o
 .debug_line    0x0000db7f      0x437 build\components\finsh\finsh_token.o
 .debug_line    0x0000dfb6      0x205 build\components\finsh\finsh_var.o
 .debug_line    0x0000e1bb      0x1a3 build\components\finsh\finsh_vm.o
 .debug_line    0x0000e35e      0x355 build\components\finsh\shell.o
 .debug_line    0x0000e6b3      0x116 build\components\finsh\symbol.o
 .debug_line    0x0000e7c9       0xb9 build\components\libc\minilibc\ctype.o
 .debug_line    0x0000e882      0x1a6 build\components\libc\minilibc\stdlib.o
 .debug_line    0x0000ea28      0x563 build\components\libc\minilibc\string.o

.debug_frame    0x00000000     0x667c
 *(.debug_frame)
 .debug_frame   0x00000000       0x90 build\applications\application.o
 .debug_frame   0x00000090       0x68 build\applications\startup.o
 .debug_frame   0x000000f8       0xc0 build\drivers\board.o
 .debug_frame   0x000001b8      0x148 build\drivers\serial.o
 .debug_frame   0x00000300       0xec build\drivers\stm32f4xx_it.o
 .debug_frame   0x000003ec       0xa4 build\drivers\usart.o
 .debug_frame   0x00000490      0x1a0 build\drivers\usb_bsp.o
 .debug_frame   0x00000630      0x290 build\drivers\usbh_usr.o
 .debug_frame   0x000008c0       0x64 build\STM32F4xx_Libraries\CMSIS\ST\STM32F4xx\Source\Templates\system_stm32f4xx.o
 .debug_frame   0x00000924       0xb0 build\STM32F4xx_Libraries\STM32F4xx_StdPeriph_Driver\src\misc.o
 .debug_frame   0x000009d4      0x26c build\STM32F4xx_Libraries\STM32F4xx_StdPeriph_Driver\src\stm32f4xx_dma.o
 .debug_frame   0x00000c40      0x104 build\STM32F4xx_Libraries\STM32F4xx_StdPeriph_Driver\src\stm32f4xx_exti.o
 .debug_frame   0x00000d44      0x1cc build\STM32F4xx_Libraries\STM32F4xx_StdPeriph_Driver\src\stm32f4xx_gpio.o
 .debug_frame   0x00000f10      0x574 build\STM32F4xx_Libraries\STM32F4xx_StdPeriph_Driver\src\stm32f4xx_rcc.o
 .debug_frame   0x00001484      0xb70 build\STM32F4xx_Libraries\STM32F4xx_StdPeriph_Driver\src\stm32f4xx_tim.o
 .debug_frame   0x00001ff4      0x3a8 build\STM32F4xx_Libraries\STM32F4xx_StdPeriph_Driver\src\stm32f4xx_usart.o
 .debug_frame   0x0000239c       0xc4 build\STM32F4xx_Libraries\STM32_USB_HOST_Library\Core\src\usbh_hcs.o
 .debug_frame   0x00002460      0x16c build\STM32F4xx_Libraries\STM32_USB_HOST_Library\Core\src\usbh_ioreq.o
 .debug_frame   0x000025cc      0x124 build\STM32F4xx_Libraries\STM32_USB_HOST_Library\Core\src\usbh_core.o
 .debug_frame   0x000026f0      0x1bc build\STM32F4xx_Libraries\STM32_USB_HOST_Library\Core\src\usbh_stdreq.o
 .debug_frame   0x000028ac       0x90 build\STM32F4xx_Libraries\STM32_USB_HOST_Library\Class\Msc\src\usbh_msc_bot.o
 .debug_frame   0x0000293c       0xe8 build\STM32F4xx_Libraries\STM32_USB_HOST_Library\Class\Msc\src\usbh_msc_core.o
 .debug_frame   0x00002a24       0xd0 build\STM32F4xx_Libraries\STM32_USB_HOST_Library\Class\Msc\src\usbh_msc_scsi.o
 .debug_frame   0x00002af4      0x370 build\STM32F4xx_Libraries\STM32_USB_OTG_Driver\src\usb_core.o
 .debug_frame   0x00002e64      0x138 build\STM32F4xx_Libraries\STM32_USB_OTG_Driver\src\usb_hcd.o
 .debug_frame   0x00002f9c      0x16c build\STM32F4xx_Libraries\STM32_USB_OTG_Driver\src\usb_hcd_int.o
 .debug_frame   0x00003108       0x9c build\src\clock.o
 .debug_frame   0x000031a4      0x190 build\src\device.o
 .debug_frame   0x00003334       0xc4 build\src\idle.o
 .debug_frame   0x000033f8      0x5ac build\src\ipc.o
 .debug_frame   0x000039a4       0x68 build\src\irq.o
 .debug_frame   0x00003a0c      0x378 build\src\kservice.o
 .debug_frame   0x00003d84      0x140 build\src\mem.o
 .debug_frame   0x00003ec4      0x15c build\src\mempool.o
 .debug_frame   0x00004020      0x1c8 build\src\object.o
 .debug_frame   0x000041e8      0x19c build\src\scheduler.o
 .debug_frame   0x00004384      0x278 build\src\thread.o
 .debug_frame   0x000045fc      0x228 build\src\timer.o
 .debug_frame   0x00004824       0x6c build\libcpu\arm\cortex-m4\cpuport.o
 .debug_frame   0x00004890      0x128 build\components\dfs\src\dfs.o
 .debug_frame   0x000049b8      0x130 build\components\dfs\src\dfs_fs.o
 .debug_frame   0x00004ae8      0x1f4 build\components\dfs\src\dfs_file.o
 .debug_frame   0x00004cdc      0x270 build\components\dfs\src\dfs_posix.o
 .debug_frame   0x00004f4c      0x34c build\components\finsh\cmd.o
 .debug_frame   0x00005298       0x70 build\components\finsh\finsh_compiler.o
 .debug_frame   0x00005308       0x78 build\components\finsh\finsh_error.o
 .debug_frame   0x00005380       0xfc build\components\finsh\finsh_heap.o
 .debug_frame   0x0000547c       0x88 build\components\finsh\finsh_init.o
 .debug_frame   0x00005504      0x108 build\components\finsh\finsh_node.o
 .debug_frame   0x0000560c      0x4c0 build\components\finsh\finsh_ops.o
 .debug_frame   0x00005acc      0x290 build\components\finsh\finsh_parser.o
 .debug_frame   0x00005d5c      0x1c8 build\components\finsh\finsh_token.o
 .debug_frame   0x00005f24       0xcc build\components\finsh\finsh_var.o
 .debug_frame   0x00005ff0       0x70 build\components\finsh\finsh_vm.o
 .debug_frame   0x00006060      0x1ac build\components\finsh\shell.o
 .debug_frame   0x0000620c       0x80 build\components\libc\minilibc\ctype.o
 .debug_frame   0x0000628c       0xc8 build\components\libc\minilibc\stdlib.o
 .debug_frame   0x00006354      0x328 build\components\libc\minilibc\string.o

.debug_str      0x00000000     0x9112
 *(.debug_str)
 .debug_str     0x00000000     0x11d2 build\applications\application.o
                               0x1413 (size before relaxing)
 .debug_str     0x000011d2       0x45 build\applications\startup.o
                                0x15f (size before relaxing)
 .debug_str     0x00001217      0x6bd build\drivers\board.o
                                0x7db (size before relaxing)
 .debug_str     0x000018d4      0x439 build\drivers\serial.o
                                0x68f (size before relaxing)
 .debug_str     0x00001d0d       0xb9 build\drivers\stm32f4xx_it.o
                                0x429 (size before relaxing)
 .debug_str     0x00001dc6      0x192 build\drivers\usart.o
                                0xdb6 (size before relaxing)
 .debug_str     0x00001f58      0x267 build\drivers\usb_bsp.o
                               0x1a11 (size before relaxing)
 .debug_str     0x000021bf      0x672 build\drivers\usbh_usr.o
                               0x1261 (size before relaxing)
 .debug_str     0x00002831      0x195 build\STM32F4xx_Libraries\CMSIS\ST\STM32F4xx\Source\Templates\system_stm32f4xx.o
                                0x372 (size before relaxing)
 .debug_str     0x000029c6      0x116 build\STM32F4xx_Libraries\STM32F4xx_StdPeriph_Driver\src\misc.o
                                0x38a (size before relaxing)
 .debug_str     0x00002adc      0x37a build\STM32F4xx_Libraries\STM32F4xx_StdPeriph_Driver\src\stm32f4xx_dma.o
                                0x511 (size before relaxing)
 .debug_str     0x00002e56      0x1c7 build\STM32F4xx_Libraries\STM32F4xx_StdPeriph_Driver\src\stm32f4xx_exti.o
                                0x33c (size before relaxing)
 .debug_str     0x0000301d      0x19d build\STM32F4xx_Libraries\STM32F4xx_StdPeriph_Driver\src\stm32f4xx_gpio.o
                                0x460 (size before relaxing)
 .debug_str     0x000031ba      0x4f7 build\STM32F4xx_Libraries\STM32F4xx_StdPeriph_Driver\src\stm32f4xx_rcc.o
                                0x80d (size before relaxing)
 .debug_str     0x000036b1      0xa80 build\STM32F4xx_Libraries\STM32F4xx_StdPeriph_Driver\src\stm32f4xx_tim.o
                                0xd8d (size before relaxing)
 .debug_str     0x00004131      0x3ab build\STM32F4xx_Libraries\STM32F4xx_StdPeriph_Driver\src\stm32f4xx_usart.o
                                0x64c (size before relaxing)
 .debug_str     0x000044dc       0xd4 build\STM32F4xx_Libraries\STM32_USB_HOST_Library\Core\src\usbh_hcs.o
                                0x7c3 (size before relaxing)
 .debug_str     0x000045b0      0x11b build\STM32F4xx_Libraries\STM32_USB_HOST_Library\Core\src\usbh_ioreq.o
                               0x1132 (size before relaxing)
 .debug_str     0x000046cb      0x15e build\STM32F4xx_Libraries\STM32_USB_HOST_Library\Core\src\usbh_core.o
                               0x11ad (size before relaxing)
 .debug_str     0x00004829      0x242 build\STM32F4xx_Libraries\STM32_USB_HOST_Library\Core\src\usbh_stdreq.o
                               0x1266 (size before relaxing)
 .debug_str     0x00004a6b      0x37f build\STM32F4xx_Libraries\STM32_USB_HOST_Library\Class\Msc\src\usbh_msc_bot.o
                               0x13cc (size before relaxing)
 .debug_str     0x00004dea      0x218 build\STM32F4xx_Libraries\STM32_USB_HOST_Library\Class\Msc\src\usbh_msc_core.o
                               0x13d3 (size before relaxing)
 .debug_str     0x00005002      0x11f build\STM32F4xx_Libraries\STM32_USB_HOST_Library\Class\Msc\src\usbh_msc_scsi.o
                                0xb6f (size before relaxing)
 .debug_str     0x00005121      0x999 build\STM32F4xx_Libraries\STM32_USB_OTG_Driver\src\usb_core.o
                               0x120c (size before relaxing)
 .debug_str     0x00005aba       0xe0 build\STM32F4xx_Libraries\STM32_USB_OTG_Driver\src\usb_hcd.o
                                0x859 (size before relaxing)
 .debug_str     0x00005b9a      0x27d build\STM32F4xx_Libraries\STM32_USB_OTG_Driver\src\usb_hcd_int.o
                                0xe60 (size before relaxing)
 .debug_str     0x00005e17       0x8b build\src\clock.o
                                0x2b3 (size before relaxing)
 .debug_str     0x00005ea2      0x270 build\src\device.o
                                0x5e2 (size before relaxing)
 .debug_str     0x00006112       0xe3 build\src\idle.o
                                0x334 (size before relaxing)
 .debug_str     0x000061f5      0x414 build\src\ipc.o
                                0x814 (size before relaxing)
 .debug_str     0x00006609       0x79 build\src\irq.o
                                0x137 (size before relaxing)
 .debug_str     0x00006682      0x274 build\src\kservice.o
                                0x6dc (size before relaxing)
 .debug_str     0x000068f6      0x1bf build\src\mem.o
                                0x35b (size before relaxing)
 .debug_str     0x00006ab5       0xf9 build\src\mempool.o
                                0x513 (size before relaxing)
 .debug_str     0x00006bae      0x170 build\src\object.o
                                0x49e (size before relaxing)
 .debug_str     0x00006d1e      0x1a5 build\src\scheduler.o
                                0x486 (size before relaxing)
 .debug_str     0x00006ec3      0x133 build\src\thread.o
                                0x5ab (size before relaxing)
 .debug_str     0x00006ff6      0x165 build\src\timer.o
                                0x493 (size before relaxing)
 .debug_str     0x0000715b      0x110 build\libcpu\arm\cortex-m4\cpuport.o
                                0x363 (size before relaxing)
 .debug_str     0x0000726b      0x1ba build\components\dfs\src\dfs.o
                                0x68d (size before relaxing)
 .debug_str     0x00007425      0x159 build\components\dfs\src\dfs_fs.o
                                0x66b (size before relaxing)
 .debug_str     0x0000757e      0x1e8 build\components\dfs\src\dfs_file.o
                                0x690 (size before relaxing)
 .debug_str     0x00007766       0xcc build\components\dfs\src\dfs_posix.o
                                0x55d (size before relaxing)
 .debug_str     0x00007832      0x589 build\components\finsh\cmd.o
                                0xdc2 (size before relaxing)
 .debug_str     0x00007dbb      0x150 build\components\finsh\finsh_compiler.o
                                0x36e (size before relaxing)
 .debug_str     0x00007f0b       0xa6 build\components\finsh\finsh_error.o
                                0x160 (size before relaxing)
 .debug_str     0x00007fb1      0x125 build\components\finsh\finsh_heap.o
                                0x37d (size before relaxing)
 .debug_str     0x000080d6       0xb6 build\components\finsh\finsh_init.o
                                0x263 (size before relaxing)
 .debug_str     0x0000818c       0xf2 build\components\finsh\finsh_node.o
                                0x267 (size before relaxing)
 .debug_str     0x0000827e      0x2d9 build\components\finsh\finsh_ops.o
                                0x3d3 (size before relaxing)
 .debug_str     0x00008557      0x518 build\components\finsh\finsh_parser.o
                                0x80c (size before relaxing)
 .debug_str     0x00008a6f      0x147 build\components\finsh\finsh_token.o
                                0x5ae (size before relaxing)
 .debug_str     0x00008bb6       0xb1 build\components\finsh\finsh_var.o
                                0x33d (size before relaxing)
 .debug_str     0x00008c67       0x74 build\components\finsh\finsh_vm.o
                                0x227 (size before relaxing)
 .debug_str     0x00008cdb      0x220 build\components\finsh\shell.o
                                0x821 (size before relaxing)
 .debug_str     0x00008efb       0x3b build\components\finsh\symbol.o
                                0x17a (size before relaxing)
 .debug_str     0x00008f36       0x5a build\components\libc\minilibc\ctype.o
                                0x105 (size before relaxing)
 .debug_str     0x00008f90       0x55 build\components\libc\minilibc\stdlib.o
                                0x13e (size before relaxing)
 .debug_str     0x00008fe5      0x12d build\components\libc\minilibc\string.o
                                0x2b2 (size before relaxing)

.debug_loc      0x00000000     0xb004
 *(.debug_loc)
 .debug_loc     0x00000000       0xe0 build\applications\application.o
 .debug_loc     0x000000e0       0x90 build\applications\startup.o
 .debug_loc     0x00000170      0x12c build\drivers\board.o
 .debug_loc     0x0000029c      0x230 build\drivers\serial.o
 .debug_loc     0x000004cc      0x18c build\drivers\stm32f4xx_it.o
 .debug_loc     0x00000658      0x100 build\drivers\usart.o
 .debug_loc     0x00000758      0x2a8 build\drivers\usb_bsp.o
 .debug_loc     0x00000a00      0x446 build\drivers\usbh_usr.o
 .debug_loc     0x00000e46       0x9c build\STM32F4xx_Libraries\CMSIS\ST\STM32F4xx\Source\Templates\system_stm32f4xx.o
 .debug_loc     0x00000ee2      0x118 build\STM32F4xx_Libraries\STM32F4xx_StdPeriph_Driver\src\misc.o
 .debug_loc     0x00000ffa      0x428 build\STM32F4xx_Libraries\STM32F4xx_StdPeriph_Driver\src\stm32f4xx_dma.o
 .debug_loc     0x00001422      0x1b4 build\STM32F4xx_Libraries\STM32F4xx_StdPeriph_Driver\src\stm32f4xx_exti.o
 .debug_loc     0x000015d6      0x310 build\STM32F4xx_Libraries\STM32F4xx_StdPeriph_Driver\src\stm32f4xx_gpio.o
 .debug_loc     0x000018e6      0x97c build\STM32F4xx_Libraries\STM32F4xx_StdPeriph_Driver\src\stm32f4xx_rcc.o
 .debug_loc     0x00002262     0x1420 build\STM32F4xx_Libraries\STM32F4xx_StdPeriph_Driver\src\stm32f4xx_tim.o
 .debug_loc     0x00003682      0x658 build\STM32F4xx_Libraries\STM32F4xx_StdPeriph_Driver\src\stm32f4xx_usart.o
 .debug_loc     0x00003cda      0x150 build\STM32F4xx_Libraries\STM32_USB_HOST_Library\Core\src\usbh_hcs.o
 .debug_loc     0x00003e2a      0x268 build\STM32F4xx_Libraries\STM32_USB_HOST_Library\Core\src\usbh_ioreq.o
 .debug_loc     0x00004092      0x1fa build\STM32F4xx_Libraries\STM32_USB_HOST_Library\Core\src\usbh_core.o
 .debug_loc     0x0000428c      0x310 build\STM32F4xx_Libraries\STM32_USB_HOST_Library\Core\src\usbh_stdreq.o
 .debug_loc     0x0000459c       0xe0 build\STM32F4xx_Libraries\STM32_USB_HOST_Library\Class\Msc\src\usbh_msc_bot.o
 .debug_loc     0x0000467c      0x188 build\STM32F4xx_Libraries\STM32_USB_HOST_Library\Class\Msc\src\usbh_msc_core.o
 .debug_loc     0x00004804      0x150 build\STM32F4xx_Libraries\STM32_USB_HOST_Library\Class\Msc\src\usbh_msc_scsi.o
 .debug_loc     0x00004954      0x658 build\STM32F4xx_Libraries\STM32_USB_OTG_Driver\src\usb_core.o
 .debug_loc     0x00004fac      0x230 build\STM32F4xx_Libraries\STM32_USB_OTG_Driver\src\usb_hcd.o
 .debug_loc     0x000051dc      0x26c build\STM32F4xx_Libraries\STM32_USB_OTG_Driver\src\usb_hcd_int.o
 .debug_loc     0x00005448      0x100 build\src\clock.o
 .debug_loc     0x00005548      0x2a0 build\src\device.o
 .debug_loc     0x000057e8      0x150 build\src\idle.o
 .debug_loc     0x00005938      0x9d8 build\src\ipc.o
 .debug_loc     0x00006310       0x9c build\src\irq.o
 .debug_loc     0x000063ac      0x63c build\src\kservice.o
 .debug_loc     0x000069e8      0x224 build\src\mem.o
 .debug_loc     0x00006c0c      0x268 build\src\mempool.o
 .debug_loc     0x00006e74      0x33c build\src\object.o
 .debug_loc     0x000071b0      0x2a8 build\src\scheduler.o
 .debug_loc     0x00007458      0x454 build\src\thread.o
 .debug_loc     0x000078ac      0x3cc build\src\timer.o
 .debug_loc     0x00007c78       0xa8 build\libcpu\arm\cortex-m4\cpuport.o
 .debug_loc     0x00007d20      0x1e0 build\components\dfs\src\dfs.o
 .debug_loc     0x00007f00      0x1fa build\components\dfs\src\dfs_fs.o
 .debug_loc     0x000080fa      0x34a build\components\dfs\src\dfs_file.o
 .debug_loc     0x00008444      0x428 build\components\dfs\src\dfs_posix.o
 .debug_loc     0x0000886c      0x566 build\components\finsh\cmd.o
 .debug_loc     0x00008dd2       0xa8 build\components\finsh\finsh_compiler.o
 .debug_loc     0x00008e7a       0xc8 build\components\finsh\finsh_error.o
 .debug_loc     0x00008f42      0x1b4 build\components\finsh\finsh_heap.o
 .debug_loc     0x000090f6       0xd4 build\components\finsh\finsh_init.o
 .debug_loc     0x000091ca      0x1b4 build\components\finsh\finsh_node.o
 .debug_loc     0x0000937e      0x896 build\components\finsh\finsh_ops.o
 .debug_loc     0x00009c14      0x462 build\components\finsh\finsh_parser.o
 .debug_loc     0x0000a076      0x314 build\components\finsh\finsh_token.o
 .debug_loc     0x0000a38a      0x144 build\components\finsh\finsh_var.o
 .debug_loc     0x0000a4ce       0xa8 build\components\finsh\finsh_vm.o
 .debug_loc     0x0000a576      0x2d8 build\components\finsh\shell.o
 .debug_loc     0x0000a84e       0xe0 build\components\libc\minilibc\ctype.o
 .debug_loc     0x0000a92e      0x150 build\components\libc\minilibc\stdlib.o
 .debug_loc     0x0000aa7e      0x586 build\components\libc\minilibc\string.o

.debug_macinfo
 *(.debug_macinfo)

.debug_weaknames
 *(.debug_weaknames)

.debug_funcnames
 *(.debug_funcnames)

.debug_typenames
 *(.debug_typenames)

.debug_varnames
 *(.debug_varnames)
OUTPUT(rtthread-stm32f4xx-gps.axf elf32-littlearm)

.debug_ranges   0x00000000     0x1c48
 .debug_ranges  0x00000000       0x28 build\applications\application.o
 .debug_ranges  0x00000028       0x20 build\applications\startup.o
 .debug_ranges  0x00000048       0x38 build\drivers\board.o
 .debug_ranges  0x00000080       0x58 build\drivers\serial.o
 .debug_ranges  0x000000d8       0x50 build\drivers\stm32f4xx_it.o
 .debug_ranges  0x00000128       0x30 build\drivers\usart.o
 .debug_ranges  0x00000158       0x70 build\drivers\usb_bsp.o
 .debug_ranges  0x000001c8       0xb8 build\drivers\usbh_usr.o
 .debug_ranges  0x00000280       0x20 build\STM32F4xx_Libraries\CMSIS\ST\STM32F4xx\Source\Templates\system_stm32f4xx.o
 .debug_ranges  0x000002a0       0x30 build\STM32F4xx_Libraries\STM32F4xx_StdPeriph_Driver\src\misc.o
 .debug_ranges  0x000002d0       0xa0 build\STM32F4xx_Libraries\STM32F4xx_StdPeriph_Driver\src\stm32f4xx_dma.o
 .debug_ranges  0x00000370       0x48 build\STM32F4xx_Libraries\STM32F4xx_StdPeriph_Driver\src\stm32f4xx_exti.o
 .debug_ranges  0x000003b8       0x78 build\STM32F4xx_Libraries\STM32F4xx_StdPeriph_Driver\src\stm32f4xx_gpio.o
 .debug_ranges  0x00000430      0x168 build\STM32F4xx_Libraries\STM32F4xx_StdPeriph_Driver\src\stm32f4xx_rcc.o
 .debug_ranges  0x00000598      0x2e8 build\STM32F4xx_Libraries\STM32F4xx_StdPeriph_Driver\src\stm32f4xx_tim.o
 .debug_ranges  0x00000880       0xf0 build\STM32F4xx_Libraries\STM32F4xx_StdPeriph_Driver\src\stm32f4xx_usart.o
 .debug_ranges  0x00000970       0x38 build\STM32F4xx_Libraries\STM32_USB_HOST_Library\Core\src\usbh_hcs.o
 .debug_ranges  0x000009a8       0x60 build\STM32F4xx_Libraries\STM32_USB_HOST_Library\Core\src\usbh_ioreq.o
 .debug_ranges  0x00000a08       0x50 build\STM32F4xx_Libraries\STM32_USB_HOST_Library\Core\src\usbh_core.o
 .debug_ranges  0x00000a58       0x78 build\STM32F4xx_Libraries\STM32_USB_HOST_Library\Core\src\usbh_stdreq.o
 .debug_ranges  0x00000ad0       0x28 build\STM32F4xx_Libraries\STM32_USB_HOST_Library\Class\Msc\src\usbh_msc_bot.o
 .debug_ranges  0x00000af8       0x40 build\STM32F4xx_Libraries\STM32_USB_HOST_Library\Class\Msc\src\usbh_msc_core.o
 .debug_ranges  0x00000b38       0x38 build\STM32F4xx_Libraries\STM32_USB_HOST_Library\Class\Msc\src\usbh_msc_scsi.o
 .debug_ranges  0x00000b70       0xf0 build\STM32F4xx_Libraries\STM32_USB_OTG_Driver\src\usb_core.o
 .debug_ranges  0x00000c60       0x58 build\STM32F4xx_Libraries\STM32_USB_OTG_Driver\src\usb_hcd.o
 .debug_ranges  0x00000cb8       0x60 build\STM32F4xx_Libraries\STM32_USB_OTG_Driver\src\usb_hcd_int.o
 .debug_ranges  0x00000d18       0x20 build\STM32F4xx_Libraries\CMSIS\ST\STM32F4xx\Source\Templates\gcc_ride7\startup_stm32f4xx.o
 .debug_ranges  0x00000d38       0x30 build\src\clock.o
 .debug_ranges  0x00000d68       0x68 build\src\device.o
 .debug_ranges  0x00000dd0       0x38 build\src\idle.o
 .debug_ranges  0x00000e08      0x170 build\src\ipc.o
 .debug_ranges  0x00000f78       0x20 build\src\irq.o
 .debug_ranges  0x00000f98       0xe8 build\src\kservice.o
 .debug_ranges  0x00001080       0x58 build\src\mem.o
 .debug_ranges  0x000010d8       0x60 build\src\mempool.o
 .debug_ranges  0x00001138       0x80 build\src\object.o
 .debug_ranges  0x000011b8       0x70 build\src\scheduler.o
 .debug_ranges  0x00001228       0xa8 build\src\thread.o
 .debug_ranges  0x000012d0       0x98 build\src\timer.o
 .debug_ranges  0x00001368       0x20 build\libcpu\arm\cortex-m4\cpuport.o
 .debug_ranges  0x00001388       0x68 build\components\dfs\src\dfs.o
 .debug_ranges  0x000013f0       0x68 build\components\dfs\src\dfs_fs.o
 .debug_ranges  0x00001458       0x80 build\components\dfs\src\dfs_file.o
 .debug_ranges  0x000014d8       0xa0 build\components\dfs\src\dfs_posix.o
 .debug_ranges  0x00001578       0xe0 build\components\finsh\cmd.o
 .debug_ranges  0x00001658       0x70 build\components\finsh\finsh_compiler.o
 .debug_ranges  0x000016c8       0x28 build\components\finsh\finsh_error.o
 .debug_ranges  0x000016f0       0x48 build\components\finsh\finsh_heap.o
 .debug_ranges  0x00001738       0x28 build\components\finsh\finsh_init.o
 .debug_ranges  0x00001760       0x48 build\components\finsh\finsh_node.o
 .debug_ranges  0x000017a8      0x188 build\components\finsh\finsh_ops.o
 .debug_ranges  0x00001930       0xa8 build\components\finsh\finsh_parser.o
 .debug_ranges  0x000019d8       0x78 build\components\finsh\finsh_token.o
 .debug_ranges  0x00001a50       0x38 build\components\finsh\finsh_var.o
 .debug_ranges  0x00001a88       0x20 build\components\finsh\finsh_vm.o
 .debug_ranges  0x00001aa8       0x70 build\components\finsh\shell.o
 .debug_ranges  0x00001b18       0x28 build\components\libc\minilibc\ctype.o
 .debug_ranges  0x00001b40       0x38 build\components\libc\minilibc\stdlib.o
 .debug_ranges  0x00001b78       0xd0 build\components\libc\minilibc\string.o

Cross Reference Table

Symbol                                            File
ADC_AnalogWatchdogCmd                             build\STM32F4xx_Libraries\STM32F4xx_StdPeriph_Driver\src\stm32f4xx_adc.o
ADC_AnalogWatchdogSingleChannelConfig             build\STM32F4xx_Libraries\STM32F4xx_StdPeriph_Driver\src\stm32f4xx_adc.o
ADC_AnalogWatchdogThresholdsConfig                build\STM32F4xx_Libraries\STM32F4xx_StdPeriph_Driver\src\stm32f4xx_adc.o
ADC_AutoInjectedConvCmd                           build\STM32F4xx_Libraries\STM32F4xx_StdPeriph_Driver\src\stm32f4xx_adc.o
ADC_ClearFlag                                     build\STM32F4xx_Libraries\STM32F4xx_StdPeriph_Driver\src\stm32f4xx_adc.o
ADC_ClearITPendingBit                             build\STM32F4xx_Libraries\STM32F4xx_StdPeriph_Driver\src\stm32f4xx_adc.o
ADC_Cmd                                           build\STM32F4xx_Libraries\STM32F4xx_StdPeriph_Driver\src\stm32f4xx_adc.o
ADC_CommonInit                                    build\STM32F4xx_Libraries\STM32F4xx_StdPeriph_Driver\src\stm32f4xx_adc.o
ADC_CommonStructInit                              build\STM32F4xx_Libraries\STM32F4xx_StdPeriph_Driver\src\stm32f4xx_adc.o
ADC_ContinuousModeCmd                             build\STM32F4xx_Libraries\STM32F4xx_StdPeriph_Driver\src\stm32f4xx_adc.o
ADC_DMACmd                                        build\STM32F4xx_Libraries\STM32F4xx_StdPeriph_Driver\src\stm32f4xx_adc.o
ADC_DMARequestAfterLastTransferCmd                build\STM32F4xx_Libraries\STM32F4xx_StdPeriph_Driver\src\stm32f4xx_adc.o
ADC_DeInit                                        build\STM32F4xx_Libraries\STM32F4xx_StdPeriph_Driver\src\stm32f4xx_adc.o
ADC_DiscModeChannelCountConfig                    build\STM32F4xx_Libraries\STM32F4xx_StdPeriph_Driver\src\stm32f4xx_adc.o
ADC_DiscModeCmd                                   build\STM32F4xx_Libraries\STM32F4xx_StdPeriph_Driver\src\stm32f4xx_adc.o
ADC_EOCOnEachRegularChannelCmd                    build\STM32F4xx_Libraries\STM32F4xx_StdPeriph_Driver\src\stm32f4xx_adc.o
ADC_ExternalTrigInjectedConvConfig                build\STM32F4xx_Libraries\STM32F4xx_StdPeriph_Driver\src\stm32f4xx_adc.o
ADC_ExternalTrigInjectedConvEdgeConfig            build\STM32F4xx_Libraries\STM32F4xx_StdPeriph_Driver\src\stm32f4xx_adc.o
ADC_GetConversionValue                            build\STM32F4xx_Libraries\STM32F4xx_StdPeriph_Driver\src\stm32f4xx_adc.o
ADC_GetFlagStatus                                 build\STM32F4xx_Libraries\STM32F4xx_StdPeriph_Driver\src\stm32f4xx_adc.o
ADC_GetITStatus                                   build\STM32F4xx_Libraries\STM32F4xx_StdPeriph_Driver\src\stm32f4xx_adc.o
ADC_GetInjectedConversionValue                    build\STM32F4xx_Libraries\STM32F4xx_StdPeriph_Driver\src\stm32f4xx_adc.o
ADC_GetMultiModeConversionValue                   build\STM32F4xx_Libraries\STM32F4xx_StdPeriph_Driver\src\stm32f4xx_adc.o
ADC_GetSoftwareStartConvStatus                    build\STM32F4xx_Libraries\STM32F4xx_StdPeriph_Driver\src\stm32f4xx_adc.o
ADC_GetSoftwareStartInjectedConvCmdStatus         build\STM32F4xx_Libraries\STM32F4xx_StdPeriph_Driver\src\stm32f4xx_adc.o
ADC_IRQHandler                                    build\STM32F4xx_Libraries\CMSIS\ST\STM32F4xx\Source\Templates\gcc_ride7\startup_stm32f4xx.o
ADC_ITConfig                                      build\STM32F4xx_Libraries\STM32F4xx_StdPeriph_Driver\src\stm32f4xx_adc.o
ADC_Init                                          build\STM32F4xx_Libraries\STM32F4xx_StdPeriph_Driver\src\stm32f4xx_adc.o
ADC_InjectedChannelConfig                         build\STM32F4xx_Libraries\STM32F4xx_StdPeriph_Driver\src\stm32f4xx_adc.o
ADC_InjectedDiscModeCmd                           build\STM32F4xx_Libraries\STM32F4xx_StdPeriph_Driver\src\stm32f4xx_adc.o
ADC_InjectedSequencerLengthConfig                 build\STM32F4xx_Libraries\STM32F4xx_StdPeriph_Driver\src\stm32f4xx_adc.o
ADC_MultiModeDMARequestAfterLastTransferCmd       build\STM32F4xx_Libraries\STM32F4xx_StdPeriph_Driver\src\stm32f4xx_adc.o
ADC_RegularChannelConfig                          build\STM32F4xx_Libraries\STM32F4xx_StdPeriph_Driver\src\stm32f4xx_adc.o
ADC_SetInjectedOffset                             build\STM32F4xx_Libraries\STM32F4xx_StdPeriph_Driver\src\stm32f4xx_adc.o
ADC_SoftwareStartConv                             build\STM32F4xx_Libraries\STM32F4xx_StdPeriph_Driver\src\stm32f4xx_adc.o
ADC_SoftwareStartInjectedConv                     build\STM32F4xx_Libraries\STM32F4xx_StdPeriph_Driver\src\stm32f4xx_adc.o
ADC_StructInit                                    build\STM32F4xx_Libraries\STM32F4xx_StdPeriph_Driver\src\stm32f4xx_adc.o
ADC_TempSensorVrefintCmd                          build\STM32F4xx_Libraries\STM32F4xx_StdPeriph_Driver\src\stm32f4xx_adc.o
ADC_VBATCmd                                       build\STM32F4xx_Libraries\STM32F4xx_StdPeriph_Driver\src\stm32f4xx_adc.o
AHBPrescTable                                     build\STM32F4xx_Libraries\CMSIS\ST\STM32F4xx\Source\Templates\system_stm32f4xx.o
BSP_delay                                         build\drivers\usb_bsp.o
BusFault_Handler                                  build\drivers\stm32f4xx_it.o
CAN1_RX0_IRQHandler                               build\STM32F4xx_Libraries\CMSIS\ST\STM32F4xx\Source\Templates\gcc_ride7\startup_stm32f4xx.o
CAN1_RX1_IRQHandler                               build\STM32F4xx_Libraries\CMSIS\ST\STM32F4xx\Source\Templates\gcc_ride7\startup_stm32f4xx.o
CAN1_SCE_IRQHandler                               build\STM32F4xx_Libraries\CMSIS\ST\STM32F4xx\Source\Templates\gcc_ride7\startup_stm32f4xx.o
CAN1_TX_IRQHandler                                build\STM32F4xx_Libraries\CMSIS\ST\STM32F4xx\Source\Templates\gcc_ride7\startup_stm32f4xx.o
CAN2_RX0_IRQHandler                               build\STM32F4xx_Libraries\CMSIS\ST\STM32F4xx\Source\Templates\gcc_ride7\startup_stm32f4xx.o
CAN2_RX1_IRQHandler                               build\STM32F4xx_Libraries\CMSIS\ST\STM32F4xx\Source\Templates\gcc_ride7\startup_stm32f4xx.o
CAN2_SCE_IRQHandler                               build\STM32F4xx_Libraries\CMSIS\ST\STM32F4xx\Source\Templates\gcc_ride7\startup_stm32f4xx.o
CAN2_TX_IRQHandler                                build\STM32F4xx_Libraries\CMSIS\ST\STM32F4xx\Source\Templates\gcc_ride7\startup_stm32f4xx.o
CAN_CancelTransmit                                build\STM32F4xx_Libraries\STM32F4xx_StdPeriph_Driver\src\stm32f4xx_can.o
CAN_ClearFlag                                     build\STM32F4xx_Libraries\STM32F4xx_StdPeriph_Driver\src\stm32f4xx_can.o
CAN_ClearITPendingBit                             build\STM32F4xx_Libraries\STM32F4xx_StdPeriph_Driver\src\stm32f4xx_can.o
CAN_DBGFreeze                                     build\STM32F4xx_Libraries\STM32F4xx_StdPeriph_Driver\src\stm32f4xx_can.o
CAN_DeInit                                        build\STM32F4xx_Libraries\STM32F4xx_StdPeriph_Driver\src\stm32f4xx_can.o
CAN_FIFORelease                                   build\STM32F4xx_Libraries\STM32F4xx_StdPeriph_Driver\src\stm32f4xx_can.o
CAN_FilterInit                                    build\STM32F4xx_Libraries\STM32F4xx_StdPeriph_Driver\src\stm32f4xx_can.o
CAN_GetFlagStatus                                 build\STM32F4xx_Libraries\STM32F4xx_StdPeriph_Driver\src\stm32f4xx_can.o
CAN_GetITStatus                                   build\STM32F4xx_Libraries\STM32F4xx_StdPeriph_Driver\src\stm32f4xx_can.o
CAN_GetLSBTransmitErrorCounter                    build\STM32F4xx_Libraries\STM32F4xx_StdPeriph_Driver\src\stm32f4xx_can.o
CAN_GetLastErrorCode                              build\STM32F4xx_Libraries\STM32F4xx_StdPeriph_Driver\src\stm32f4xx_can.o
CAN_GetReceiveErrorCounter                        build\STM32F4xx_Libraries\STM32F4xx_StdPeriph_Driver\src\stm32f4xx_can.o
CAN_ITConfig                                      build\STM32F4xx_Libraries\STM32F4xx_StdPeriph_Driver\src\stm32f4xx_can.o
CAN_Init                                          build\STM32F4xx_Libraries\STM32F4xx_StdPeriph_Driver\src\stm32f4xx_can.o
CAN_MessagePending                                build\STM32F4xx_Libraries\STM32F4xx_StdPeriph_Driver\src\stm32f4xx_can.o
CAN_OperatingModeRequest                          build\STM32F4xx_Libraries\STM32F4xx_StdPeriph_Driver\src\stm32f4xx_can.o
CAN_Receive                                       build\STM32F4xx_Libraries\STM32F4xx_StdPeriph_Driver\src\stm32f4xx_can.o
CAN_SlaveStartBank                                build\STM32F4xx_Libraries\STM32F4xx_StdPeriph_Driver\src\stm32f4xx_can.o
CAN_Sleep                                         build\STM32F4xx_Libraries\STM32F4xx_StdPeriph_Driver\src\stm32f4xx_can.o
CAN_StructInit                                    build\STM32F4xx_Libraries\STM32F4xx_StdPeriph_Driver\src\stm32f4xx_can.o
CAN_TTComModeCmd                                  build\STM32F4xx_Libraries\STM32F4xx_StdPeriph_Driver\src\stm32f4xx_can.o
CAN_Transmit                                      build\STM32F4xx_Libraries\STM32F4xx_StdPeriph_Driver\src\stm32f4xx_can.o
CAN_TransmitStatus                                build\STM32F4xx_Libraries\STM32F4xx_StdPeriph_Driver\src\stm32f4xx_can.o
CAN_WakeUp                                        build\STM32F4xx_Libraries\STM32F4xx_StdPeriph_Driver\src\stm32f4xx_can.o
CRC_CalcBlockCRC                                  build\STM32F4xx_Libraries\STM32F4xx_StdPeriph_Driver\src\stm32f4xx_crc.o
CRC_CalcCRC                                       build\STM32F4xx_Libraries\STM32F4xx_StdPeriph_Driver\src\stm32f4xx_crc.o
CRC_GetCRC                                        build\STM32F4xx_Libraries\STM32F4xx_StdPeriph_Driver\src\stm32f4xx_crc.o
CRC_GetIDRegister                                 build\STM32F4xx_Libraries\STM32F4xx_StdPeriph_Driver\src\stm32f4xx_crc.o
CRC_ResetDR                                       build\STM32F4xx_Libraries\STM32F4xx_StdPeriph_Driver\src\stm32f4xx_crc.o
CRC_SetIDRegister                                 build\STM32F4xx_Libraries\STM32F4xx_StdPeriph_Driver\src\stm32f4xx_crc.o
CRYP_AES_CBC                                      build\STM32F4xx_Libraries\STM32F4xx_StdPeriph_Driver\src\stm32f4xx_cryp_aes.o
CRYP_AES_CTR                                      build\STM32F4xx_Libraries\STM32F4xx_StdPeriph_Driver\src\stm32f4xx_cryp_aes.o
CRYP_AES_ECB                                      build\STM32F4xx_Libraries\STM32F4xx_StdPeriph_Driver\src\stm32f4xx_cryp_aes.o
CRYP_Cmd                                          build\STM32F4xx_Libraries\STM32F4xx_StdPeriph_Driver\src\stm32f4xx_cryp.o
                                                  build\STM32F4xx_Libraries\STM32F4xx_StdPeriph_Driver\src\stm32f4xx_cryp_tdes.o
                                                  build\STM32F4xx_Libraries\STM32F4xx_StdPeriph_Driver\src\stm32f4xx_cryp_des.o
                                                  build\STM32F4xx_Libraries\STM32F4xx_StdPeriph_Driver\src\stm32f4xx_cryp_aes.o
CRYP_DES_CBC                                      build\STM32F4xx_Libraries\STM32F4xx_StdPeriph_Driver\src\stm32f4xx_cryp_des.o
CRYP_DES_ECB                                      build\STM32F4xx_Libraries\STM32F4xx_StdPeriph_Driver\src\stm32f4xx_cryp_des.o
CRYP_DMACmd                                       build\STM32F4xx_Libraries\STM32F4xx_StdPeriph_Driver\src\stm32f4xx_cryp.o
CRYP_DataIn                                       build\STM32F4xx_Libraries\STM32F4xx_StdPeriph_Driver\src\stm32f4xx_cryp.o
                                                  build\STM32F4xx_Libraries\STM32F4xx_StdPeriph_Driver\src\stm32f4xx_cryp_tdes.o
                                                  build\STM32F4xx_Libraries\STM32F4xx_StdPeriph_Driver\src\stm32f4xx_cryp_des.o
                                                  build\STM32F4xx_Libraries\STM32F4xx_StdPeriph_Driver\src\stm32f4xx_cryp_aes.o
CRYP_DataOut                                      build\STM32F4xx_Libraries\STM32F4xx_StdPeriph_Driver\src\stm32f4xx_cryp.o
                                                  build\STM32F4xx_Libraries\STM32F4xx_StdPeriph_Driver\src\stm32f4xx_cryp_tdes.o
                                                  build\STM32F4xx_Libraries\STM32F4xx_StdPeriph_Driver\src\stm32f4xx_cryp_des.o
                                                  build\STM32F4xx_Libraries\STM32F4xx_StdPeriph_Driver\src\stm32f4xx_cryp_aes.o
CRYP_DeInit                                       build\STM32F4xx_Libraries\STM32F4xx_StdPeriph_Driver\src\stm32f4xx_cryp.o
CRYP_FIFOFlush                                    build\STM32F4xx_Libraries\STM32F4xx_StdPeriph_Driver\src\stm32f4xx_cryp.o
                                                  build\STM32F4xx_Libraries\STM32F4xx_StdPeriph_Driver\src\stm32f4xx_cryp_tdes.o
                                                  build\STM32F4xx_Libraries\STM32F4xx_StdPeriph_Driver\src\stm32f4xx_cryp_des.o
                                                  build\STM32F4xx_Libraries\STM32F4xx_StdPeriph_Driver\src\stm32f4xx_cryp_aes.o
CRYP_GetFlagStatus                                build\STM32F4xx_Libraries\STM32F4xx_StdPeriph_Driver\src\stm32f4xx_cryp.o
                                                  build\STM32F4xx_Libraries\STM32F4xx_StdPeriph_Driver\src\stm32f4xx_cryp_tdes.o
                                                  build\STM32F4xx_Libraries\STM32F4xx_StdPeriph_Driver\src\stm32f4xx_cryp_des.o
                                                  build\STM32F4xx_Libraries\STM32F4xx_StdPeriph_Driver\src\stm32f4xx_cryp_aes.o
CRYP_GetITStatus                                  build\STM32F4xx_Libraries\STM32F4xx_StdPeriph_Driver\src\stm32f4xx_cryp.o
CRYP_IRQHandler                                   build\STM32F4xx_Libraries\CMSIS\ST\STM32F4xx\Source\Templates\gcc_ride7\startup_stm32f4xx.o
CRYP_ITConfig                                     build\STM32F4xx_Libraries\STM32F4xx_StdPeriph_Driver\src\stm32f4xx_cryp.o
CRYP_IVInit                                       build\STM32F4xx_Libraries\STM32F4xx_StdPeriph_Driver\src\stm32f4xx_cryp.o
                                                  build\STM32F4xx_Libraries\STM32F4xx_StdPeriph_Driver\src\stm32f4xx_cryp_tdes.o
                                                  build\STM32F4xx_Libraries\STM32F4xx_StdPeriph_Driver\src\stm32f4xx_cryp_des.o
                                                  build\STM32F4xx_Libraries\STM32F4xx_StdPeriph_Driver\src\stm32f4xx_cryp_aes.o
CRYP_IVStructInit                                 build\STM32F4xx_Libraries\STM32F4xx_StdPeriph_Driver\src\stm32f4xx_cryp.o
CRYP_Init                                         build\STM32F4xx_Libraries\STM32F4xx_StdPeriph_Driver\src\stm32f4xx_cryp.o
                                                  build\STM32F4xx_Libraries\STM32F4xx_StdPeriph_Driver\src\stm32f4xx_cryp_tdes.o
                                                  build\STM32F4xx_Libraries\STM32F4xx_StdPeriph_Driver\src\stm32f4xx_cryp_des.o
                                                  build\STM32F4xx_Libraries\STM32F4xx_StdPeriph_Driver\src\stm32f4xx_cryp_aes.o
CRYP_KeyInit                                      build\STM32F4xx_Libraries\STM32F4xx_StdPeriph_Driver\src\stm32f4xx_cryp.o
                                                  build\STM32F4xx_Libraries\STM32F4xx_StdPeriph_Driver\src\stm32f4xx_cryp_tdes.o
                                                  build\STM32F4xx_Libraries\STM32F4xx_StdPeriph_Driver\src\stm32f4xx_cryp_des.o
                                                  build\STM32F4xx_Libraries\STM32F4xx_StdPeriph_Driver\src\stm32f4xx_cryp_aes.o
CRYP_KeyStructInit                                build\STM32F4xx_Libraries\STM32F4xx_StdPeriph_Driver\src\stm32f4xx_cryp.o
                                                  build\STM32F4xx_Libraries\STM32F4xx_StdPeriph_Driver\src\stm32f4xx_cryp_tdes.o
                                                  build\STM32F4xx_Libraries\STM32F4xx_StdPeriph_Driver\src\stm32f4xx_cryp_des.o
                                                  build\STM32F4xx_Libraries\STM32F4xx_StdPeriph_Driver\src\stm32f4xx_cryp_aes.o
CRYP_RestoreContext                               build\STM32F4xx_Libraries\STM32F4xx_StdPeriph_Driver\src\stm32f4xx_cryp.o
CRYP_SaveContext                                  build\STM32F4xx_Libraries\STM32F4xx_StdPeriph_Driver\src\stm32f4xx_cryp.o
CRYP_StructInit                                   build\STM32F4xx_Libraries\STM32F4xx_StdPeriph_Driver\src\stm32f4xx_cryp.o
CRYP_TDES_CBC                                     build\STM32F4xx_Libraries\STM32F4xx_StdPeriph_Driver\src\stm32f4xx_cryp_tdes.o
CRYP_TDES_ECB                                     build\STM32F4xx_Libraries\STM32F4xx_StdPeriph_Driver\src\stm32f4xx_cryp_tdes.o
DAC_ClearFlag                                     build\STM32F4xx_Libraries\STM32F4xx_StdPeriph_Driver\src\stm32f4xx_dac.o
DAC_ClearITPendingBit                             build\STM32F4xx_Libraries\STM32F4xx_StdPeriph_Driver\src\stm32f4xx_dac.o
DAC_Cmd                                           build\STM32F4xx_Libraries\STM32F4xx_StdPeriph_Driver\src\stm32f4xx_dac.o
DAC_DMACmd                                        build\STM32F4xx_Libraries\STM32F4xx_StdPeriph_Driver\src\stm32f4xx_dac.o
DAC_DeInit                                        build\STM32F4xx_Libraries\STM32F4xx_StdPeriph_Driver\src\stm32f4xx_dac.o
DAC_DualSoftwareTriggerCmd                        build\STM32F4xx_Libraries\STM32F4xx_StdPeriph_Driver\src\stm32f4xx_dac.o
DAC_GetDataOutputValue                            build\STM32F4xx_Libraries\STM32F4xx_StdPeriph_Driver\src\stm32f4xx_dac.o
DAC_GetFlagStatus                                 build\STM32F4xx_Libraries\STM32F4xx_StdPeriph_Driver\src\stm32f4xx_dac.o
DAC_GetITStatus                                   build\STM32F4xx_Libraries\STM32F4xx_StdPeriph_Driver\src\stm32f4xx_dac.o
DAC_ITConfig                                      build\STM32F4xx_Libraries\STM32F4xx_StdPeriph_Driver\src\stm32f4xx_dac.o
DAC_Init                                          build\STM32F4xx_Libraries\STM32F4xx_StdPeriph_Driver\src\stm32f4xx_dac.o
DAC_SetChannel1Data                               build\STM32F4xx_Libraries\STM32F4xx_StdPeriph_Driver\src\stm32f4xx_dac.o
DAC_SetChannel2Data                               build\STM32F4xx_Libraries\STM32F4xx_StdPeriph_Driver\src\stm32f4xx_dac.o
DAC_SetDualChannelData                            build\STM32F4xx_Libraries\STM32F4xx_StdPeriph_Driver\src\stm32f4xx_dac.o
DAC_SoftwareTriggerCmd                            build\STM32F4xx_Libraries\STM32F4xx_StdPeriph_Driver\src\stm32f4xx_dac.o
DAC_StructInit                                    build\STM32F4xx_Libraries\STM32F4xx_StdPeriph_Driver\src\stm32f4xx_dac.o
DAC_WaveGenerationCmd                             build\STM32F4xx_Libraries\STM32F4xx_StdPeriph_Driver\src\stm32f4xx_dac.o
DBGMCU_APB1PeriphConfig                           build\STM32F4xx_Libraries\STM32F4xx_StdPeriph_Driver\src\stm32f4xx_dbgmcu.o
DBGMCU_APB2PeriphConfig                           build\STM32F4xx_Libraries\STM32F4xx_StdPeriph_Driver\src\stm32f4xx_dbgmcu.o
DBGMCU_Config                                     build\STM32F4xx_Libraries\STM32F4xx_StdPeriph_Driver\src\stm32f4xx_dbgmcu.o
DBGMCU_GetDEVID                                   build\STM32F4xx_Libraries\STM32F4xx_StdPeriph_Driver\src\stm32f4xx_dbgmcu.o
DBGMCU_GetREVID                                   build\STM32F4xx_Libraries\STM32F4xx_StdPeriph_Driver\src\stm32f4xx_dbgmcu.o
DCMI_CROPCmd                                      build\STM32F4xx_Libraries\STM32F4xx_StdPeriph_Driver\src\stm32f4xx_dcmi.o
DCMI_CROPConfig                                   build\STM32F4xx_Libraries\STM32F4xx_StdPeriph_Driver\src\stm32f4xx_dcmi.o
DCMI_CaptureCmd                                   build\STM32F4xx_Libraries\STM32F4xx_StdPeriph_Driver\src\stm32f4xx_dcmi.o
DCMI_ClearFlag                                    build\STM32F4xx_Libraries\STM32F4xx_StdPeriph_Driver\src\stm32f4xx_dcmi.o
DCMI_ClearITPendingBit                            build\STM32F4xx_Libraries\STM32F4xx_StdPeriph_Driver\src\stm32f4xx_dcmi.o
DCMI_Cmd                                          build\STM32F4xx_Libraries\STM32F4xx_StdPeriph_Driver\src\stm32f4xx_dcmi.o
DCMI_DeInit                                       build\STM32F4xx_Libraries\STM32F4xx_StdPeriph_Driver\src\stm32f4xx_dcmi.o
DCMI_GetFlagStatus                                build\STM32F4xx_Libraries\STM32F4xx_StdPeriph_Driver\src\stm32f4xx_dcmi.o
DCMI_GetITStatus                                  build\STM32F4xx_Libraries\STM32F4xx_StdPeriph_Driver\src\stm32f4xx_dcmi.o
DCMI_IRQHandler                                   build\STM32F4xx_Libraries\CMSIS\ST\STM32F4xx\Source\Templates\gcc_ride7\startup_stm32f4xx.o
DCMI_ITConfig                                     build\STM32F4xx_Libraries\STM32F4xx_StdPeriph_Driver\src\stm32f4xx_dcmi.o
DCMI_Init                                         build\STM32F4xx_Libraries\STM32F4xx_StdPeriph_Driver\src\stm32f4xx_dcmi.o
DCMI_JPEGCmd                                      build\STM32F4xx_Libraries\STM32F4xx_StdPeriph_Driver\src\stm32f4xx_dcmi.o
DCMI_ReadData                                     build\STM32F4xx_Libraries\STM32F4xx_StdPeriph_Driver\src\stm32f4xx_dcmi.o
DCMI_SetEmbeddedSynchroCodes                      build\STM32F4xx_Libraries\STM32F4xx_StdPeriph_Driver\src\stm32f4xx_dcmi.o
DCMI_StructInit                                   build\STM32F4xx_Libraries\STM32F4xx_StdPeriph_Driver\src\stm32f4xx_dcmi.o
DMA1_Stream0_IRQHandler                           build\STM32F4xx_Libraries\CMSIS\ST\STM32F4xx\Source\Templates\gcc_ride7\startup_stm32f4xx.o
DMA1_Stream1_IRQHandler                           build\STM32F4xx_Libraries\CMSIS\ST\STM32F4xx\Source\Templates\gcc_ride7\startup_stm32f4xx.o
DMA1_Stream2_IRQHandler                           build\STM32F4xx_Libraries\CMSIS\ST\STM32F4xx\Source\Templates\gcc_ride7\startup_stm32f4xx.o
DMA1_Stream3_IRQHandler                           build\STM32F4xx_Libraries\CMSIS\ST\STM32F4xx\Source\Templates\gcc_ride7\startup_stm32f4xx.o
DMA1_Stream4_IRQHandler                           build\STM32F4xx_Libraries\CMSIS\ST\STM32F4xx\Source\Templates\gcc_ride7\startup_stm32f4xx.o
DMA1_Stream5_IRQHandler                           build\STM32F4xx_Libraries\CMSIS\ST\STM32F4xx\Source\Templates\gcc_ride7\startup_stm32f4xx.o
DMA1_Stream6_IRQHandler                           build\STM32F4xx_Libraries\CMSIS\ST\STM32F4xx\Source\Templates\gcc_ride7\startup_stm32f4xx.o
DMA1_Stream7_IRQHandler                           build\STM32F4xx_Libraries\CMSIS\ST\STM32F4xx\Source\Templates\gcc_ride7\startup_stm32f4xx.o
DMA2_Stream0_IRQHandler                           build\STM32F4xx_Libraries\CMSIS\ST\STM32F4xx\Source\Templates\gcc_ride7\startup_stm32f4xx.o
DMA2_Stream1_IRQHandler                           build\STM32F4xx_Libraries\CMSIS\ST\STM32F4xx\Source\Templates\gcc_ride7\startup_stm32f4xx.o
DMA2_Stream2_IRQHandler                           build\STM32F4xx_Libraries\CMSIS\ST\STM32F4xx\Source\Templates\gcc_ride7\startup_stm32f4xx.o
DMA2_Stream3_IRQHandler                           build\STM32F4xx_Libraries\CMSIS\ST\STM32F4xx\Source\Templates\gcc_ride7\startup_stm32f4xx.o
DMA2_Stream4_IRQHandler                           build\STM32F4xx_Libraries\CMSIS\ST\STM32F4xx\Source\Templates\gcc_ride7\startup_stm32f4xx.o
DMA2_Stream5_IRQHandler                           build\STM32F4xx_Libraries\CMSIS\ST\STM32F4xx\Source\Templates\gcc_ride7\startup_stm32f4xx.o
DMA2_Stream6_IRQHandler                           build\STM32F4xx_Libraries\CMSIS\ST\STM32F4xx\Source\Templates\gcc_ride7\startup_stm32f4xx.o
DMA2_Stream7_IRQHandler                           build\STM32F4xx_Libraries\CMSIS\ST\STM32F4xx\Source\Templates\gcc_ride7\startup_stm32f4xx.o
DMA_ClearFlag                                     build\STM32F4xx_Libraries\STM32F4xx_StdPeriph_Driver\src\stm32f4xx_dma.o
DMA_ClearITPendingBit                             build\STM32F4xx_Libraries\STM32F4xx_StdPeriph_Driver\src\stm32f4xx_dma.o
DMA_Cmd                                           build\STM32F4xx_Libraries\STM32F4xx_StdPeriph_Driver\src\stm32f4xx_dma.o
                                                  build\drivers\serial.o
DMA_DeInit                                        build\STM32F4xx_Libraries\STM32F4xx_StdPeriph_Driver\src\stm32f4xx_dma.o
DMA_DoubleBufferModeCmd                           build\STM32F4xx_Libraries\STM32F4xx_StdPeriph_Driver\src\stm32f4xx_dma.o
DMA_DoubleBufferModeConfig                        build\STM32F4xx_Libraries\STM32F4xx_StdPeriph_Driver\src\stm32f4xx_dma.o
DMA_FlowControllerConfig                          build\STM32F4xx_Libraries\STM32F4xx_StdPeriph_Driver\src\stm32f4xx_dma.o
DMA_GetCmdStatus                                  build\STM32F4xx_Libraries\STM32F4xx_StdPeriph_Driver\src\stm32f4xx_dma.o
DMA_GetCurrDataCounter                            build\STM32F4xx_Libraries\STM32F4xx_StdPeriph_Driver\src\stm32f4xx_dma.o
DMA_GetCurrentMemoryTarget                        build\STM32F4xx_Libraries\STM32F4xx_StdPeriph_Driver\src\stm32f4xx_dma.o
DMA_GetFIFOStatus                                 build\STM32F4xx_Libraries\STM32F4xx_StdPeriph_Driver\src\stm32f4xx_dma.o
DMA_GetFlagStatus                                 build\STM32F4xx_Libraries\STM32F4xx_StdPeriph_Driver\src\stm32f4xx_dma.o
DMA_GetITStatus                                   build\STM32F4xx_Libraries\STM32F4xx_StdPeriph_Driver\src\stm32f4xx_dma.o
DMA_ITConfig                                      build\STM32F4xx_Libraries\STM32F4xx_StdPeriph_Driver\src\stm32f4xx_dma.o
DMA_Init                                          build\STM32F4xx_Libraries\STM32F4xx_StdPeriph_Driver\src\stm32f4xx_dma.o
DMA_MemoryTargetConfig                            build\STM32F4xx_Libraries\STM32F4xx_StdPeriph_Driver\src\stm32f4xx_dma.o
DMA_PeriphIncOffsetSizeConfig                     build\STM32F4xx_Libraries\STM32F4xx_StdPeriph_Driver\src\stm32f4xx_dma.o
DMA_SetCurrDataCounter                            build\STM32F4xx_Libraries\STM32F4xx_StdPeriph_Driver\src\stm32f4xx_dma.o
DMA_StructInit                                    build\STM32F4xx_Libraries\STM32F4xx_StdPeriph_Driver\src\stm32f4xx_dma.o
DebugMon_Handler                                  build\drivers\stm32f4xx_it.o
Default_Handler                                   build\STM32F4xx_Libraries\CMSIS\ST\STM32F4xx\Source\Templates\gcc_ride7\startup_stm32f4xx.o
ETH_IRQHandler                                    build\STM32F4xx_Libraries\CMSIS\ST\STM32F4xx\Source\Templates\gcc_ride7\startup_stm32f4xx.o
ETH_WKUP_IRQHandler                               build\STM32F4xx_Libraries\CMSIS\ST\STM32F4xx\Source\Templates\gcc_ride7\startup_stm32f4xx.o
EXTI0_IRQHandler                                  build\STM32F4xx_Libraries\CMSIS\ST\STM32F4xx\Source\Templates\gcc_ride7\startup_stm32f4xx.o
EXTI15_10_IRQHandler                              build\STM32F4xx_Libraries\CMSIS\ST\STM32F4xx\Source\Templates\gcc_ride7\startup_stm32f4xx.o
EXTI1_IRQHandler                                  build\drivers\usb_bsp.o
EXTI2_IRQHandler                                  build\STM32F4xx_Libraries\CMSIS\ST\STM32F4xx\Source\Templates\gcc_ride7\startup_stm32f4xx.o
EXTI3_IRQHandler                                  build\STM32F4xx_Libraries\CMSIS\ST\STM32F4xx\Source\Templates\gcc_ride7\startup_stm32f4xx.o
EXTI4_IRQHandler                                  build\STM32F4xx_Libraries\CMSIS\ST\STM32F4xx\Source\Templates\gcc_ride7\startup_stm32f4xx.o
